{
  "contractName": "ACLGuard",
  "abi": [
    {
      "constant": true,
      "inputs": [],
      "name": "ALL",
      "outputs": [
        {
          "name": "",
          "type": "bytes32"
        }
      ],
      "payable": false,
      "stateMutability": "view",
      "type": "function"
    },
    {
      "constant": true,
      "inputs": [],
      "name": "guard",
      "outputs": [
        {
          "name": "",
          "type": "address"
        }
      ],
      "payable": false,
      "stateMutability": "view",
      "type": "function"
    },
    {
      "constant": true,
      "inputs": [
        {
          "name": "",
          "type": "bytes32"
        },
        {
          "name": "",
          "type": "bytes32"
        },
        {
          "name": "",
          "type": "bytes32"
        }
      ],
      "name": "acl",
      "outputs": [
        {
          "name": "",
          "type": "bool"
        }
      ],
      "payable": false,
      "stateMutability": "view",
      "type": "function"
    },
    {
      "constant": true,
      "inputs": [
        {
          "name": "_src",
          "type": "address"
        },
        {
          "name": "_sig",
          "type": "bytes4"
        }
      ],
      "name": "isAuthorized",
      "outputs": [
        {
          "name": "",
          "type": "bool"
        }
      ],
      "payable": false,
      "stateMutability": "view",
      "type": "function"
    },
    {
      "constant": false,
      "inputs": [
        {
          "name": "_guard",
          "type": "address"
        }
      ],
      "name": "setGuard",
      "outputs": [],
      "payable": false,
      "stateMutability": "nonpayable",
      "type": "function"
    },
    {
      "inputs": [
        {
          "name": "_guard",
          "type": "address"
        }
      ],
      "payable": false,
      "stateMutability": "nonpayable",
      "type": "constructor"
    },
    {
      "anonymous": false,
      "inputs": [
        {
          "indexed": false,
          "name": "src",
          "type": "address"
        },
        {
          "indexed": false,
          "name": "dst",
          "type": "address"
        },
        {
          "indexed": false,
          "name": "sig",
          "type": "bytes4"
        }
      ],
      "name": "LogPermit",
      "type": "event"
    },
    {
      "anonymous": false,
      "inputs": [
        {
          "indexed": false,
          "name": "src",
          "type": "address"
        },
        {
          "indexed": false,
          "name": "dst",
          "type": "address"
        },
        {
          "indexed": false,
          "name": "sig",
          "type": "bytes4"
        }
      ],
      "name": "LogForbid",
      "type": "event"
    },
    {
      "anonymous": false,
      "inputs": [
        {
          "indexed": true,
          "name": "setBy",
          "type": "address"
        },
        {
          "indexed": true,
          "name": "guard",
          "type": "address"
        }
      ],
      "name": "SetGuard",
      "type": "event"
    },
    {
      "constant": false,
      "inputs": [
        {
          "name": "_src",
          "type": "address"
        },
        {
          "name": "_dst",
          "type": "address"
        },
        {
          "name": "_sig",
          "type": "bytes4"
        }
      ],
      "name": "permit",
      "outputs": [],
      "payable": false,
      "stateMutability": "nonpayable",
      "type": "function"
    },
    {
      "constant": false,
      "inputs": [
        {
          "name": "_src",
          "type": "bytes32"
        },
        {
          "name": "_dst",
          "type": "bytes32"
        },
        {
          "name": "_sig",
          "type": "bytes32"
        }
      ],
      "name": "permit",
      "outputs": [],
      "payable": false,
      "stateMutability": "nonpayable",
      "type": "function"
    },
    {
      "constant": false,
      "inputs": [
        {
          "name": "_src",
          "type": "bytes32"
        },
        {
          "name": "_dst",
          "type": "bytes32"
        },
        {
          "name": "_sig",
          "type": "bytes32"
        }
      ],
      "name": "forbid",
      "outputs": [],
      "payable": false,
      "stateMutability": "nonpayable",
      "type": "function"
    },
    {
      "constant": false,
      "inputs": [
        {
          "name": "_src",
          "type": "address"
        },
        {
          "name": "_dst",
          "type": "address"
        },
        {
          "name": "_sig",
          "type": "bytes4"
        }
      ],
      "name": "forbid",
      "outputs": [],
      "payable": false,
      "stateMutability": "nonpayable",
      "type": "function"
    },
    {
      "constant": true,
      "inputs": [
        {
          "name": "_src",
          "type": "address"
        },
        {
          "name": "_dst",
          "type": "address"
        },
        {
          "name": "_sig",
          "type": "bytes4"
        }
      ],
      "name": "canCall",
      "outputs": [
        {
          "name": "",
          "type": "bool"
        }
      ],
      "payable": false,
      "stateMutability": "view",
      "type": "function"
    }
  ],
  "bytecode": "0x608060405234801561001057600080fd5b50604051610a7a380380610a7a8339818101604052602081101561003357600080fd5b505180610048816001600160e01b0361004f16565b505061009a565b600080546001600160a01b0319166001600160a01b0383169081178255604051909133917fa1a6a6164848fdba82d01d50ad73927295d9d4ccfba42020625dd3d7320673909190a350565b6109d1806100a96000396000f3fe608060405234801561001057600080fd5b506004361061009e5760003560e01c8063bfc019c611610066578063bfc019c6146101a2578063d2d30b45146101e3578063d9972b961461020c578063e19a9dd914610242578063f0217ce5146102685761009e565b8063435f0d41146100a357806379d88d87146100bd5780637ceab3b1146100e85780639c21e9091461010c578063b70096131461014d575b600080fd5b6100ab610291565b60408051918252519081900360200190f35b6100e6600480360360608110156100d357600080fd5b5080359060208101359060400135610297565b005b6100f06102fc565b604080516001600160a01b039092168252519081900360200190f35b6100e66004803603606081101561012257600080fd5b5080356001600160a01b0390811691602081013590911690604001356001600160e01b03191661030b565b61018e6004803603606081101561016357600080fd5b5080356001600160a01b0390811691602081013590911690604001356001600160e01b03191661038f565b604080519115158252519081900360200190f35b6100e6600480360360608110156101b857600080fd5b5080356001600160a01b0390811691602081013590911690604001356001600160e01b0319166103be565b61018e600480360360608110156101f957600080fd5b5080359060208101359060400135610442565b61018e6004803603604081101561022257600080fd5b5080356001600160a01b031690602001356001600160e01b031916610468565b6100e66004803603602081101561025857600080fd5b50356001600160a01b031661047d565b6100e66004803603606081101561027e57600080fd5b50803590602081013590604001356104de565b60001981565b6102ad336000356001600160e01b031916610468565b6102ec576040805162461bcd60e51b8152602060048201526019602482015260008051602061097d833981519152604482015290519081900360640190fd5b6102f783838361053e565b505050565b6000546001600160a01b031681565b610321336000356001600160e01b031916610468565b610360576040805162461bcd60e51b8152602060048201526019602482015260008051602061097d833981519152604482015290519081900360640190fd5b6102f78360601b6001600160601b0319168360601b6001600160601b031916836001600160e01b03191661053e565b60006103b68460601b6001600160601b0319168460601b6001600160601b03191684610610565b949350505050565b6103d4336000356001600160e01b031916610468565b610413576040805162461bcd60e51b8152602060048201526019602482015260008051602061097d833981519152604482015290519081900360640190fd5b6102f78360601b6001600160601b0319168360601b6001600160601b031916836001600160e01b031916610801565b600160209081526000938452604080852082529284528284209052825290205460ff1681565b60006104748383610882565b90505b92915050565b610493336000356001600160e01b031916610468565b6104d2576040805162461bcd60e51b8152602060048201526019602482015260008051602061097d833981519152604482015290519081900360640190fd5b6104db81610931565b50565b6104f4336000356001600160e01b031916610468565b610533576040805162461bcd60e51b8152602060048201526019602482015260008051602061097d833981519152604482015290519081900360640190fd5b6102f7838383610801565b610554336000356001600160e01b031916610468565b610593576040805162461bcd60e51b8152602060048201526019602482015260008051602061097d833981519152604482015290519081900360640190fd5b60008381526001602090815260408083208584528252808320848452825291829020805460ff191690558151606086811c825285811c928201929092526001600160e01b031984168184015291517ff59111baa782faa3d5c33db8fb4d455d406e73edcf0a852a70caa6c5843eae4c9281900390910190a1505050565b600083815260016020908152604080832085845282528083206001600160e01b03198516845290915281205460ff168061066d575060008481526001602090815260408083208684528252808320600019845290915290205460ff165b806106a557506000848152600160209081526040808320600019845282528083206001600160e01b03198616845290915290205460ff165b806106d0575060008481526001602090815260408083206000198452825280832090915290205460ff165b8061071d575060008381527fc39d774f18115b85b81494d65e588b565d73abc969333d1da7b0a0eb0729accd602090815260408083206001600160e01b03198616845290915290205460ff165b80610762575060008381527fc39d774f18115b85b81494d65e588b565d73abc969333d1da7b0a0eb0729accd60209081526040808320600019845290915290205460ff165b806107a557506001600160e01b0319821660009081527fa69da7c51cf120814a577061805cfa0d34c7e3ccc66913b263afbf2923e8084b602052604090205460ff165b806103b657505060001960005250507fa69da7c51cf120814a577061805cfa0d34c7e3ccc66913b263afbf2923e8084b602052507f2aebd1e360f4a0e48dc551a62792fe4410f47ec346976f6377d87a293e44de0a5460ff1690565b60008381526001602081815260408084208685528252808420858552825292839020805460ff19169092179091558151606086811c825285811c928201929092526001600160e01b031984168184015291517fcfe11ceefe6478bea2ebfcd2f48064508489b9f54449e4bc1a2bd2afa359e01b9281900390910190a1505050565b600080546001600160a01b031661089b57506000610477565b6000546040805163b700961360e01b81526001600160a01b0386811660048301523060248301526001600160e01b0319861660448301529151919092169163b7009613916064808301926020929190829003018186803b1580156108fe57600080fd5b505afa158015610912573d6000803e3d6000fd5b505050506040513d602081101561092857600080fd5b50519392505050565b600080546001600160a01b0319166001600160a01b0383169081178255604051909133917fa1a6a6164848fdba82d01d50ad73927295d9d4ccfba42020625dd3d7320673909190a35056fe617574682d636865636b65722d756e617574686f72697a656400000000000000a265627a7a7230582043d1fed41c55191dbb1ab6c6e84819f756ac26d2f4ecdc1fa9789d429075debb64736f6c634300050a0032",
  "source": "pragma solidity ^0.5.10;\n\nimport \"../permissions/AuthChecker.sol\";\n\n/**\n * @notice ACLGuard is a Guard implementation that checks canCall permissions against an Access Control List.\n * Rights to modify the ACL are managed by an internal Guard implementation.\n */\ncontract ACLGuard is AuthChecker {\n\n    /////\n    // Constants:\n    /////\n\n    /**\n     * @dev Permission for ALL actions is marked by 0xFF...FF\n     */\n    bytes32 constant public ALL = bytes32(uint(-1));\n\n    /////\n    // Storage:\n    /////\n\n    /**\n     * @dev `acl` is the access control ledger. It is a multimap keyed by:\n     * - `src`: the address of the *caller* that is checking if it canCall\n     * - `dst`: the address of the *called* contract in which context the canCall is being checked\n     * - `sig`: the function *signature* that `_src` wants to call in the context of `dst`\n     */\n    mapping (bytes32 => mapping (bytes32 => mapping (bytes32 => bool))) public acl;\n\n    /////\n    // Events:\n    /////\n\n    /**\n     * @notice Emit when a permission is granted in the ACL.\n     * @param src The address that is granted the permission.\n     * @param dst The context (contract) in which the permission is granted.\n     * @param sig The signature of the permission which is granted.\n     */\n    event LogPermit(\n        address src,\n        address dst,\n        bytes4 sig\n    );\n\n    /**\n     * @notice Emit when a permission is revoked in the ACL.\n     * @param src The address that has the permission revoked.\n     * @param dst The context (contract) in which the permission is granted.\n     * @param sig The signature of the permission which is granted.\n     */\n    event LogForbid(\n        address src,\n        address dst,\n        bytes4 sig\n    );\n\n    /////\n    // Constructor:\n    /////\n\n    /**\n     * @dev During deployment, the Guard contract must set it's own guard instance\n     * to perform auth checks against.\n     * @param _guard Adress of a guard implementation\n     */\n    // solhint-disable-next-line no-empty-blocks\n    constructor(address _guard) public AuthChecker(_guard) {}\n\n    /////\n    // External functions:\n    /////\n\n    /**\n     * @notice Grants permission to `src` to perform `sig` in the `dst` contract.\n     * Requires authorization.\n     * @param _src The address that is granted permission.\n     * @param _dst The context (contract) in which the permission is granted.\n     * @param _sig The signature of the permission that is granted.\n     */\n    function permit(address _src, address _dst, bytes4 _sig)\n        external\n        onlyAuthorized\n    {\n        _setPermit(bytes20(_src), bytes20(_dst), _sig);\n    }\n\n    /**\n     * @notice Revokes permission from `src` to perform `sig` in the `dst` contract.\n     * Requires authorization.\n     * @param _src The address that has permission revoked.\n     * @param _dst The context (contract) in which the permission is revoked.\n     * @param _sig The signature of the permission that is revoked.\n     */\n    function forbid(address _src, address _dst, bytes4 _sig)\n        external\n        onlyAuthorized\n    {\n        _setForbid(bytes20(_src), bytes20(_dst), _sig);\n    }\n\n    /**\n     * @notice Low level interface to grants permission to `src` to perform `sig` in the `dst`\n     * contract. Requires authorization.\n     * @param _src Bytes 32 value of the address that is granted permission.\n     * @param _dst Bytes 32 value of the context (contract) in which the permission is granted.\n     * @param _sig Bytes 32 value of the signature of the permission that is granted.\n     */\n    function permit(bytes32 _src, bytes32 _dst, bytes32 _sig)\n        external\n        onlyAuthorized\n    {\n        _setPermit(_src, _dst, _sig);\n    }\n\n    /**\n     * @notice Low level interface to revoke permission from `src` to perform `sig` in the `dst`\n     * contract. Requires authorization.\n     * @param _src Bytes32 value of the address that has permission revoked.\n     * @param _dst Bytes32 value of the context (contract) in which the permission is revoked.\n     * @param _sig Bytes32 value of the signature of the permission that is revoked.\n     */\n    function forbid(bytes32 _src, bytes32 _dst, bytes32 _sig)\n        external\n        onlyAuthorized \n    {\n        _setForbid(_src, _dst, _sig);\n    }\n\n    /////\n    // Public view functions:\n    /////\n\n    /**\n     * @notice Returns true if `src` can call the function with signture `sig` in the `dst`\n     * contract, false otherwise.\n     * @param _src The address that is being checked.\n     * @param _dst The context (contract) in which the check is performed.\n     * @param _sig The signature of the function which is being against.\n     */\n    function canCall(address _src, address _dst, bytes4 _sig)\n        external\n        view\n        returns (bool)\n    {\n        return _isAuthorized(bytes20(_src), bytes20(_dst), _sig);\n    }\n\n    /////\n    // Internal functions:\n    /////\n\n    /**\n     * @dev Return true if `src` is authorized to perofm `sig` in the `dst` contract.\n     * @param src The address that is being checked.\n     * @param dst The context (contract) in which the check is performed.\n     * @param sig The signature of the permission which is checked against.\n     */\n    function _isAuthorized(bytes32 src, bytes32 dst, bytes4 sig)\n        internal\n        view\n        returns (bool)\n    {\n        return acl[src][dst][sig]\n            || acl[src][dst][ALL]\n            || acl[src][ALL][sig]\n            || acl[src][ALL][ALL]\n            || acl[ALL][dst][sig]\n            || acl[ALL][dst][ALL]\n            || acl[ALL][ALL][sig]\n            || acl[ALL][ALL][ALL];\n    }\n\n    /**\n      * @dev Internal function to grant permission to `src` to perform `sig` in the `dst` contract.\n      * Requires authorization.\n      * @param _src Bytes32 value of the address that is granted permission.\n      * @param _dst Bytes32 value of the context (contract) in which the permission is granted.\n      * @param _sig Bytes32 value of the signature of the permission that is granted.\n      */\n    function _setPermit(bytes32 _src, bytes32 _dst, bytes32 _sig)\n        internal\n    {\n        acl[_src][_dst][_sig] = true;\n        emit LogPermit(address(bytes20(_src)), address(bytes20(_dst)), bytes4(_sig));\n    }\n\n    /**\n      * @dev Internal function to deny permission to `src` to perform `sig` in the `dst` contract.\n      * Requires authorization.\n      * @param _src Bytes32 value of the address that is granted permission.\n      * @param _dst Bytes32 value of the context (contract) in which the permission is granted.\n      * @param _sig Bytes32 value of the signature of the permission that is granted.\n      */\n    function _setForbid(bytes32 _src, bytes32 _dst, bytes32 _sig)\n        internal\n        onlyAuthorized\n    {\n        acl[_src][_dst][_sig] = false;\n        emit LogForbid(address(bytes20(_src)), address(bytes20(_dst)), bytes4(_sig));\n    }\n\n}\n",
  "sourcePath": "/home/ohm/dev/dsb/smart-contracts/contracts/permissions/ACLGuard.sol",
  "compiler": {
    "name": "solc",
    "version": "0.5.10+commit.5a6ea5b1.Emscripten.clang"
  },
  "schemaVersion": "3.0.11",
  "updatedAt": "2019-08-24T22:06:59.785Z",
  "devdoc": {
    "methods": {
      "canCall(address,address,bytes4)": {
        "params": {
          "_dst": "The context (contract) in which the check is performed.",
          "_sig": "The signature of the function which is being against.",
          "_src": "The address that is being checked."
        }
      },
      "constructor": {
        "details": "During deployment, the Guard contract must set it's own guard instance to perform auth checks against.",
        "params": {
          "_guard": "Adress of a guard implementation"
        }
      },
      "forbid(address,address,bytes4)": {
        "params": {
          "_dst": "The context (contract) in which the permission is revoked.",
          "_sig": "The signature of the permission that is revoked.",
          "_src": "The address that has permission revoked."
        }
      },
      "forbid(bytes32,bytes32,bytes32)": {
        "params": {
          "_dst": "Bytes32 value of the context (contract) in which the permission is revoked.",
          "_sig": "Bytes32 value of the signature of the permission that is revoked.",
          "_src": "Bytes32 value of the address that has permission revoked."
        }
      },
      "isAuthorized(address,bytes4)": {
        "details": "The check performed by calling `canCall` on the Guard instance. If no Guard instance is configured, function returns false (as a failsafe).",
        "params": {
          "_sig": "The function selector of the function being called.",
          "_src": "The address of the caller."
        },
        "return": "True, if the caller is authorized to make the call."
      },
      "permit(address,address,bytes4)": {
        "params": {
          "_dst": "The context (contract) in which the permission is granted.",
          "_sig": "The signature of the permission that is granted.",
          "_src": "The address that is granted permission."
        }
      },
      "permit(bytes32,bytes32,bytes32)": {
        "params": {
          "_dst": "Bytes 32 value of the context (contract) in which the permission is granted.",
          "_sig": "Bytes 32 value of the signature of the permission that is granted.",
          "_src": "Bytes 32 value of the address that is granted permission."
        }
      },
      "setGuard(address)": {
        "params": {
          "_guard": "The address of the new Guard instance."
        }
      }
    }
  },
  "userdoc": {
    "methods": {
      "canCall(address,address,bytes4)": {
        "notice": "Returns true if `src` can call the function with signture `sig` in the `dst` contract, false otherwise."
      },
      "forbid(address,address,bytes4)": {
        "notice": "Revokes permission from `src` to perform `sig` in the `dst` contract. Requires authorization."
      },
      "forbid(bytes32,bytes32,bytes32)": {
        "notice": "Low level interface to revoke permission from `src` to perform `sig` in the `dst` contract. Requires authorization."
      },
      "isAuthorized(address,bytes4)": {
        "notice": "isAuthorized will return `true` if `_src` address can call the function with the `_sig` function selector in the current context (in this contract)."
      },
      "permit(address,address,bytes4)": {
        "notice": "Grants permission to `src` to perform `sig` in the `dst` contract. Requires authorization."
      },
      "permit(bytes32,bytes32,bytes32)": {
        "notice": "Low level interface to grants permission to `src` to perform `sig` in the `dst` contract. Requires authorization."
      },
      "setGuard(address)": {
        "notice": "setGuard will set the new Guard instance. The caller must have permissions to call this function in the current Guard instance."
      }
    },
    "notice": "ACLGuard is a Guard implementation that checks canCall permissions against an Access Control List. Rights to modify the ACL are managed by an internal Guard implementation."
  }
}