{
  "contractName": "AuthTestMock",
  "abi": [
    {
      "constant": true,
      "inputs": [],
      "name": "valTwo",
      "outputs": [
        {
          "name": "",
          "type": "uint256"
        }
      ],
      "payable": false,
      "stateMutability": "view",
      "type": "function"
    },
    {
      "constant": true,
      "inputs": [],
      "name": "guard",
      "outputs": [
        {
          "name": "",
          "type": "address"
        }
      ],
      "payable": false,
      "stateMutability": "view",
      "type": "function"
    },
    {
      "constant": true,
      "inputs": [],
      "name": "valOne",
      "outputs": [
        {
          "name": "",
          "type": "uint256"
        }
      ],
      "payable": false,
      "stateMutability": "view",
      "type": "function"
    },
    {
      "constant": true,
      "inputs": [
        {
          "name": "_src",
          "type": "address"
        },
        {
          "name": "_sig",
          "type": "bytes4"
        }
      ],
      "name": "isAuthorized",
      "outputs": [
        {
          "name": "",
          "type": "bool"
        }
      ],
      "payable": false,
      "stateMutability": "view",
      "type": "function"
    },
    {
      "constant": false,
      "inputs": [
        {
          "name": "_guard",
          "type": "address"
        }
      ],
      "name": "setGuard",
      "outputs": [],
      "payable": false,
      "stateMutability": "nonpayable",
      "type": "function"
    },
    {
      "inputs": [
        {
          "name": "guard",
          "type": "address"
        }
      ],
      "payable": false,
      "stateMutability": "nonpayable",
      "type": "constructor"
    },
    {
      "anonymous": false,
      "inputs": [
        {
          "indexed": true,
          "name": "setBy",
          "type": "address"
        },
        {
          "indexed": true,
          "name": "guard",
          "type": "address"
        }
      ],
      "name": "SetGuard",
      "type": "event"
    },
    {
      "constant": false,
      "inputs": [
        {
          "name": "_valOne",
          "type": "uint256"
        }
      ],
      "name": "authOne",
      "outputs": [],
      "payable": false,
      "stateMutability": "nonpayable",
      "type": "function"
    },
    {
      "constant": false,
      "inputs": [
        {
          "name": "_valTwo",
          "type": "uint256"
        }
      ],
      "name": "authTwo",
      "outputs": [],
      "payable": false,
      "stateMutability": "nonpayable",
      "type": "function"
    },
    {
      "constant": false,
      "inputs": [],
      "name": "authAny",
      "outputs": [],
      "payable": false,
      "stateMutability": "nonpayable",
      "type": "function"
    },
    {
      "constant": false,
      "inputs": [],
      "name": "reset",
      "outputs": [],
      "payable": false,
      "stateMutability": "nonpayable",
      "type": "function"
    }
  ],
  "bytecode": "0x608060405234801561001057600080fd5b506040516105583803806105588339818101604052602081101561003357600080fd5b505180610048816001600160e01b0361004f16565b505061009a565b600080546001600160a01b0319166001600160a01b0383169081178255604051909133917fa1a6a6164848fdba82d01d50ad73927295d9d4ccfba42020625dd3d7320673909190a350565b6104af806100a96000396000f3fe608060405234801561001057600080fd5b50600436106100935760003560e01c8063b81228d711610066578063b81228d7146100e8578063bebd394414610105578063d826f88f14610122578063d9972b961461012a578063e19a9dd91461017457610093565b806320ee2d05146100985780637ceab3b1146100b2578063809f027d146100d65780638dca3ec6146100de575b600080fd5b6100a061019a565b60408051918252519081900360200190f35b6100ba6101a0565b604080516001600160a01b039092168252519081900360200190f35b6100a06101af565b6100e66101b5565b005b6100e6600480360360208110156100fe57600080fd5b5035610220565b6100e66004803603602081101561011b57600080fd5b5035610288565b6100e66102f0565b6101606004803603604081101561014057600080fd5b5080356001600160a01b031690602001356001600160e01b0319166102fc565b604080519115158252519081900360200190f35b6100e66004803603602081101561018a57600080fd5b50356001600160a01b0316610311565b60025481565b6000546001600160a01b031681565b60015481565b6101cb336000356001600160e01b0319166102fc565b610218576040805162461bcd60e51b8152602060048201526019602482015278185d5d1a0b58da1958dad95c8b5d5b985d5d1a1bdc9a5e9959603a1b604482015290519081900360640190fd5b600254600155565b610236336000356001600160e01b0319166102fc565b610283576040805162461bcd60e51b8152602060048201526019602482015278185d5d1a0b58da1958dad95c8b5d5b985d5d1a1bdc9a5e9959603a1b604482015290519081900360640190fd5b600155565b61029e336000356001600160e01b0319166102fc565b6102eb576040805162461bcd60e51b8152602060048201526019602482015278185d5d1a0b58da1958dad95c8b5d5b985d5d1a1bdc9a5e9959603a1b604482015290519081900360640190fd5b600255565b60006001819055600255565b60006103088383610380565b90505b92915050565b610327336000356001600160e01b0319166102fc565b610374576040805162461bcd60e51b8152602060048201526019602482015278185d5d1a0b58da1958dad95c8b5d5b985d5d1a1bdc9a5e9959603a1b604482015290519081900360640190fd5b61037d8161042f565b50565b600080546001600160a01b03166103995750600061030b565b6000546040805163b700961360e01b81526001600160a01b0386811660048301523060248301526001600160e01b0319861660448301529151919092169163b7009613916064808301926020929190829003018186803b1580156103fc57600080fd5b505afa158015610410573d6000803e3d6000fd5b505050506040513d602081101561042657600080fd5b50519392505050565b600080546001600160a01b0319166001600160a01b0383169081178255604051909133917fa1a6a6164848fdba82d01d50ad73927295d9d4ccfba42020625dd3d7320673909190a35056fea265627a7a7230582020a5ffc1aa6fa634ec634dc9742d446c8f686fbcdfbfa98d6d503e79f849225464736f6c634300050a0032",
  "source": "pragma solidity ^0.5.10;\n\nimport \"../permissions/AuthChecker.sol\";\n\ncontract AuthTestMock is AuthChecker {\n\n    uint256 public valOne;\n    uint256 public valTwo;\n\n    // solhint-disable-next-line no-empty-blocks\n    constructor(address guard) public AuthChecker(guard) {}\n\n    function authOne(uint256 _valOne)\n        public\n        onlyAuthorized\n    {\n        valOne = _valOne;\n    }\n\n    function authTwo(uint256 _valTwo)\n        public\n        onlyAuthorized\n    {\n        valTwo = _valTwo;\n    }\n\n    function authAny()\n        public\n        onlyAuthorized\n    {\n        valOne = valTwo;\n    }\n\n    function reset() public {\n        valOne = 0;\n        valTwo = 0;\n    }\n\n}\n",
  "sourcePath": "/home/ohm/dev/dsb/smart-contracts/contracts/mocks/AuthTestMock.sol",
  "compiler": {
    "name": "solc",
    "version": "0.5.10+commit.5a6ea5b1.Emscripten.clang"
  },
  "schemaVersion": "3.0.11",
  "updatedAt": "2019-08-24T21:48:18.552Z",
  "devdoc": {
    "methods": {
      "isAuthorized(address,bytes4)": {
        "details": "The check performed by calling `canCall` on the Guard instance. If no Guard instance is configured, function returns false (as a failsafe).",
        "params": {
          "_sig": "The function selector of the function being called.",
          "_src": "The address of the caller."
        },
        "return": "True, if the caller is authorized to make the call."
      },
      "setGuard(address)": {
        "params": {
          "_guard": "The address of the new Guard instance."
        }
      }
    }
  },
  "userdoc": {
    "methods": {
      "isAuthorized(address,bytes4)": {
        "notice": "isAuthorized will return `true` if `_src` address can call the function with the `_sig` function selector in the current context (in this contract)."
      },
      "setGuard(address)": {
        "notice": "setGuard will set the new Guard instance. The caller must have permissions to call this function in the current Guard instance."
      }
    }
  }
}