{
  "contractName": "AuthChecker",
  "abi": [
    {
      "constant": true,
      "inputs": [],
      "name": "guard",
      "outputs": [
        {
          "name": "",
          "type": "address"
        }
      ],
      "payable": false,
      "stateMutability": "view",
      "type": "function"
    },
    {
      "inputs": [
        {
          "name": "_guard",
          "type": "address"
        }
      ],
      "payable": false,
      "stateMutability": "nonpayable",
      "type": "constructor"
    },
    {
      "anonymous": false,
      "inputs": [
        {
          "indexed": true,
          "name": "setBy",
          "type": "address"
        },
        {
          "indexed": true,
          "name": "guard",
          "type": "address"
        }
      ],
      "name": "SetGuard",
      "type": "event"
    },
    {
      "constant": false,
      "inputs": [
        {
          "name": "_guard",
          "type": "address"
        }
      ],
      "name": "setGuard",
      "outputs": [],
      "payable": false,
      "stateMutability": "nonpayable",
      "type": "function"
    },
    {
      "constant": true,
      "inputs": [
        {
          "name": "_src",
          "type": "address"
        },
        {
          "name": "_sig",
          "type": "bytes4"
        }
      ],
      "name": "isAuthorized",
      "outputs": [
        {
          "name": "",
          "type": "bool"
        }
      ],
      "payable": false,
      "stateMutability": "view",
      "type": "function"
    }
  ],
  "bytecode": "0x608060405234801561001057600080fd5b506040516103493803806103498339818101604052602081101561003357600080fd5b5051610047816001600160e01b0361004d16565b50610098565b600080546001600160a01b0319166001600160a01b0383169081178255604051909133917fa1a6a6164848fdba82d01d50ad73927295d9d4ccfba42020625dd3d7320673909190a350565b6102a2806100a76000396000f3fe608060405234801561001057600080fd5b50600436106100415760003560e01c80637ceab3b114610046578063d9972b961461006a578063e19a9dd9146100b4575b600080fd5b61004e6100dc565b604080516001600160a01b039092168252519081900360200190f35b6100a06004803603604081101561008057600080fd5b5080356001600160a01b031690602001356001600160e01b0319166100eb565b604080519115158252519081900360200190f35b6100da600480360360208110156100ca57600080fd5b50356001600160a01b0316610100565b005b6000546001600160a01b031681565b60006100f78383610173565b90505b92915050565b610116336000356001600160e01b0319166100eb565b610167576040805162461bcd60e51b815260206004820152601960248201527f617574682d636865636b65722d756e617574686f72697a656400000000000000604482015290519081900360640190fd5b61017081610222565b50565b600080546001600160a01b031661018c575060006100fa565b6000546040805163b700961360e01b81526001600160a01b0386811660048301523060248301526001600160e01b0319861660448301529151919092169163b7009613916064808301926020929190829003018186803b1580156101ef57600080fd5b505afa158015610203573d6000803e3d6000fd5b505050506040513d602081101561021957600080fd5b50519392505050565b600080546001600160a01b0319166001600160a01b0383169081178255604051909133917fa1a6a6164848fdba82d01d50ad73927295d9d4ccfba42020625dd3d7320673909190a35056fea265627a7a72305820695833c6b7e78471a89879a0ead2a688ba48a485646f4902f13a2398fbafd4a364736f6c634300050a0032",
  "source": "pragma solidity ^0.5.10;\n\nimport \"../interfaces/IGuard.sol\";\n\n/**\n * @notice AuthChecker performs authorization checks on function calls. Authorization checks are\n * returned as the result of `canCall` of the configured Guard implementation.\n */\ncontract AuthChecker {\n\n    /////\n    // Storage:\n    /////\n\n    /**\n     * @dev Authorization checks are performed against this guard contract instance.\n     */\n    IGuard public guard;\n\n    /////\n    // Events:\n    /////\n\n    /**\n     * @notice Emit SetGuard when the Guard instance is changed.\n     * @param setBy Address that set the new Guard instance.\n     * @param guard Address of the new Guard instance.\n     */\n    event SetGuard(address indexed setBy, address indexed guard);\n\n    /////\n    // Modifiers:\n    /////\n\n    /**\n     * @dev Modify the function so that it will revert if the caller is not auhorized to call the\n     * function in the current context (this contract).\n     */\n    modifier onlyAuthorized {\n        require(isAuthorized(msg.sender, msg.sig), \"auth-checker-unauthorized\");\n        _;\n    }\n\n    /////\n    // Constructor:\n    /////\n\n    /**\n     * @dev Constructor should be provided with an address of a guard implementaion. If null, the\n     * ACL denies all permissions to callers outside the contract.\n     * @param _guard - An address of an IGuard implementation.\n     */\n    constructor(address _guard) public {\n        _setGuard(_guard);\n    }\n\n    /////\n    // External Functions:\n    /////\n\n    /**\n     * @notice setGuard will set the new Guard instance. The caller must have permissions to call\n     * this function in the current Guard instance.\n     * @param _guard The address of the new Guard instance.\n     */\n    function setGuard(address _guard)\n        public\n        onlyAuthorized\n    {\n        _setGuard(_guard);\n    }\n\n    /////\n    // External view Functions:\n    /////\n\n    /**\n     * @notice isAuthorized will return `true` if `_src` address can call the function with the\n     * `_sig` function selector in the current context (in this contract).\n     * @dev The check performed by calling `canCall` on the Guard instance. If no Guard instance is\n     * configured, function returns false (as a failsafe).\n     * @param _src The address of the caller.\n     * @param _sig The function selector of the function being called.\n     * @return True, if the caller is authorized to make the call.\n     */\n    function isAuthorized(address _src, bytes4 _sig)\n        public\n        view\n        returns (bool)\n    {\n        return _isAuthorized(_src, _sig);\n    }\n\n    /////\n    // Internal functions:\n    /////\n\n    function _setGuard(address _guard)\n        internal\n    {\n        guard = IGuard(_guard);\n        emit SetGuard(msg.sender, _guard);\n    }\n\n    function _isAuthorized(address _src, bytes4 _sig)\n        internal\n        view\n        returns (bool)\n    {\n        if (IGuard(0) == guard) {\n            return false;  // If the guard is not set, do not authorize any other callers.\n        }\n        return guard.canCall(_src, address(this), _sig);\n    }\n\n}\n",
  "sourcePath": "/home/ohm/dev/dsb/smart-contracts/contracts/permissions/AuthChecker.sol",
  "compiler": {
    "name": "solc",
    "version": "0.5.10+commit.5a6ea5b1.Emscripten.clang"
  },
  "schemaVersion": "3.0.11",
  "updatedAt": "2019-08-17T01:13:52.717Z",
  "devdoc": {
    "methods": {
      "constructor": {
        "details": "Constructor should be provided with an address of a guard implementaion. If null, the ACL denies all permissions to callers outside the contract.",
        "params": {
          "_guard": "- An address of an IGuard implementation."
        }
      },
      "isAuthorized(address,bytes4)": {
        "details": "The check performed by calling `canCall` on the Guard instance. If no Guard instance is configured, function returns false (as a failsafe).",
        "params": {
          "_sig": "The function selector of the function being called.",
          "_src": "The address of the caller."
        },
        "return": "True, if the caller is authorized to make the call."
      },
      "setGuard(address)": {
        "params": {
          "_guard": "The address of the new Guard instance."
        }
      }
    }
  },
  "userdoc": {
    "methods": {
      "isAuthorized(address,bytes4)": {
        "notice": "isAuthorized will return `true` if `_src` address can call the function with the `_sig` function selector in the current context (in this contract)."
      },
      "setGuard(address)": {
        "notice": "setGuard will set the new Guard instance. The caller must have permissions to call this function in the current Guard instance."
      }
    },
    "notice": "AuthChecker performs authorization checks on function calls. Authorization checks are returned as the result of `canCall` of the configured Guard implementation."
  }
}