{
  "contractName": "BaseGuard",
  "abi": [
    {
      "constant": true,
      "inputs": [],
      "name": "allowed",
      "outputs": [
        {
          "name": "",
          "type": "address"
        }
      ],
      "payable": false,
      "stateMutability": "view",
      "type": "function"
    },
    {
      "inputs": [
        {
          "name": "_allowed",
          "type": "address"
        }
      ],
      "payable": false,
      "stateMutability": "nonpayable",
      "type": "constructor"
    },
    {
      "anonymous": false,
      "inputs": [
        {
          "indexed": true,
          "name": "setBy",
          "type": "address"
        },
        {
          "indexed": true,
          "name": "newAllowed",
          "type": "address"
        }
      ],
      "name": "SetAllowed",
      "type": "event"
    },
    {
      "constant": false,
      "inputs": [
        {
          "name": "_allowed",
          "type": "address"
        }
      ],
      "name": "setAllowed",
      "outputs": [],
      "payable": false,
      "stateMutability": "nonpayable",
      "type": "function"
    },
    {
      "constant": true,
      "inputs": [
        {
          "name": "_src",
          "type": "address"
        },
        {
          "name": "",
          "type": "address"
        },
        {
          "name": "",
          "type": "bytes4"
        }
      ],
      "name": "canCall",
      "outputs": [
        {
          "name": "",
          "type": "bool"
        }
      ],
      "payable": false,
      "stateMutability": "view",
      "type": "function"
    }
  ],
  "bytecode": "0x608060405234801561001057600080fd5b506040516102a83803806102a88339818101604052602081101561003357600080fd5b5051610047816001600160e01b0361004d16565b50610098565b600080546001600160a01b0319166001600160a01b0383169081178255604051909133917ff26e76c8f5251b18681f9229de75af70a4f0016aeb9376c95f0d832dc1ad55b99190a350565b610201806100a76000396000f3fe608060405234801561001057600080fd5b50600436106100415760003560e01c806319e1fca414610046578063b70096131461006a578063c0e79a11146100bf575b600080fd5b61004e6100e7565b604080516001600160a01b039092168252519081900360200190f35b6100ab6004803603606081101561008057600080fd5b5080356001600160a01b0390811691602081013590911690604001356001600160e01b0319166100f6565b604080519115158252519081900360200190f35b6100e5600480360360208110156100d557600080fd5b50356001600160a01b0316610109565b005b6000546001600160a01b031681565b60006101018461016d565b949350505050565b6000546001600160a01b03163314610161576040805162461bcd60e51b815260206004820152601660248201527518985cd94b59dd585c990b5b9bdd0b585b1b1bddd95960521b604482015290519081900360640190fd5b61016a81610181565b50565b6000546001600160a01b0390811691161490565b600080546001600160a01b0319166001600160a01b0383169081178255604051909133917ff26e76c8f5251b18681f9229de75af70a4f0016aeb9376c95f0d832dc1ad55b99190a35056fea265627a7a72305820fd131a55250fed6405d59fc219149ffc6e90572e42324e1af160470dba46e6df64736f6c634300050a0032",
  "source": "pragma solidity ^0.5.10;\n\nimport \"../interfaces/IGuard.sol\";\n\n/**\n * @notice BaseGuard is a guard implementation that performs a basic check\n * for all permissions against a single allowed address.\n */\ncontract BaseGuard {\n\n    /////\n    // Storage:\n    /////\n\n    /**\n     * @dev The address that is allowed to perform all calls.\n     */\n    address public allowed;\n\n    /////\n    // Events:\n    /////\n\n    /**\n     * @dev Emit SetAllowed when the allowed address is changed.\n     * @param setBy The address that has changed the allowed address.\n     * @param newAllowed The new allowed address\n     */\n    event SetAllowed(address indexed setBy, address indexed newAllowed);\n\n    /////\n    // Modifiers:\n    /////\n\n    /**\n     * @notice onlyAllowed modifies the function so that it is required\n     * to be called by the `allowed` address.\n     */\n    modifier onlyAllowed() {\n        require(msg.sender == allowed, \"base-guard-not-allowed\");\n        _;\n    }\n\n    /////\n    // Constructor:\n    /////\n\n    /**\n     * @dev During construction, msg.sender becomes `allowed`.\n     */\n    constructor(address _allowed) public {\n        _setAllowed(_allowed);\n    }\n\n    /////\n    // External functions:\n    /////\n\n    /**\n     * @notice Changes the allowed addres to `_allowed`. Must be called by current `_allowed`\n     * address.\n     * @param _allowed The new address to be allowed permissions.\n     */\n    function setAllowed(address _allowed)\n        external\n        onlyAllowed\n    {\n        _setAllowed(_allowed);\n    }\n\n    /////\n    // External view functions:\n    /////\n\n    /**\n     * @notice Returns true only if _src is the boss of this contract\n     * @param _src The address that is being checked.\n     */\n    function canCall(address _src, address, bytes4)\n        external\n        view\n        returns (bool)\n    {\n        return _isAllowed(_src);\n    }\n\n    /////\n    // Internal functions:\n    /////\n\n    function _setAllowed(address _allowed)\n        internal\n    {\n        allowed = _allowed;\n        emit SetAllowed(msg.sender, _allowed);\n    }\n\n    function _isAllowed(address _adr)\n        internal\n        view\n        returns (bool)\n    {\n        return _adr == allowed;\n    }\n}\n",
  "sourcePath": "/home/ohm/dev/dsb/smart-contracts/contracts/permissions/BaseGuard.sol",
  "compiler": {
    "name": "solc",
    "version": "0.5.10+commit.5a6ea5b1.Emscripten.clang"
  },
  "schemaVersion": "3.0.11",
  "updatedAt": "2019-08-24T22:06:59.781Z",
  "devdoc": {
    "methods": {
      "canCall(address,address,bytes4)": {
        "params": {
          "_src": "The address that is being checked."
        }
      },
      "constructor": {
        "details": "During construction, msg.sender becomes `allowed`."
      },
      "setAllowed(address)": {
        "params": {
          "_allowed": "The new address to be allowed permissions."
        }
      }
    }
  },
  "userdoc": {
    "methods": {
      "canCall(address,address,bytes4)": {
        "notice": "Returns true only if _src is the boss of this contract"
      },
      "setAllowed(address)": {
        "notice": "Changes the allowed addres to `_allowed`. Must be called by current `_allowed` address."
      }
    },
    "notice": "BaseGuard is a guard implementation that performs a basic check for all permissions against a single allowed address."
  }
}