{
  "contractName": "BootstrapperMock",
  "abi": [
    {
      "constant": true,
      "inputs": [],
      "name": "bootstrap",
      "outputs": [
        {
          "name": "",
          "type": "bytes"
        }
      ],
      "payable": false,
      "stateMutability": "pure",
      "type": "function"
    }
  ],
  "bytecode": "0x608060405234801561001057600080fd5b50610181806100206000396000f3fe608060405234801561001057600080fd5b506004361061002b5760003560e01c8063fb969b0a14610030575b600080fd5b6100386100ad565b6040805160208082528351818301528351919283929083019185019080838360005b8381101561007257818101518382015260200161005a565b50505050905090810190601f16801561009f5780820380516001836020036101000a031916815260200191505b509250505060405180910390f35b60606040518060a00160405280607f81526020016100ce607f913990509056fe6080604052348015600f57600080fd5b506004361060285760003560e01c8063c6af390914602d575b600080fd5b60336045565b60408051918252519081900360200190f35b600d8156fea265627a7a72305820a6741b75bf9de191c19fa3b4b4e9f88e47870e81c71c0adb75cf2a7af947ce6d64736f6c634300050a0032a265627a7a7230582059f051b5e2e4e1711f7338f77ecf43abe0d5957dc22113c90f6eeb16807fb9d464736f6c634300050a0032",
  "source": "pragma solidity ^0.5.10;\n\n/**\n * @title BootstrapperMock\n * @author Disberse LTD\n * @notice Returns an arbitrary constant bytes value to supply runtime code for an\n * indeterminate CREATE2 contract.\n * @dev RUNTIME_CODE shold be set to the desired runtime code before compiling. This\n * makes each call to bootstrap() significantly cheaper.\n*/\ncontract BootstrapperMock {\n\n    // The actual **runtime** bytecode (from `RuntimeMock.sol`).\n    bytes constant private RUNTIME_CODE = hex'6080604052348015600f57600080fd5b506004361060285760003560e01c8063c6af390914602d575b600080fd5b60336045565b60408051918252519081900360200190f35b600d8156fea265627a7a72305820a6741b75bf9de191c19fa3b4b4e9f88e47870e81c71c0adb75cf2a7af947ce6d64736f6c634300050a0032';\n\n    /**\n    * @dev Returns the bootstrapCode\n    * @return The hard-coded bytes array\n    */\n    function bootstrap()\n        public\n        pure\n        returns (bytes memory)\n    {\n        return RUNTIME_CODE;\n    }\n\n}\n",
  "sourcePath": "/home/ohm/dev/dsb/smart-contracts/contracts/mocks/BootstrapperMock.sol",
  "compiler": {
    "name": "solc",
    "version": "0.5.10+commit.5a6ea5b1.Emscripten.clang"
  },
  "schemaVersion": "3.0.11",
  "updatedAt": "2019-08-17T01:13:52.687Z",
  "devdoc": {
    "author": "Disberse LTD",
    "details": "RUNTIME_CODE shold be set to the desired runtime code before compiling. This makes each call to bootstrap() significantly cheaper.",
    "methods": {
      "bootstrap()": {
        "details": "Returns the bootstrapCode",
        "return": "The hard-coded bytes array"
      }
    },
    "title": "BootstrapperMock"
  },
  "userdoc": {
    "methods": {},
    "notice": "Returns an arbitrary constant bytes value to supply runtime code for an indeterminate CREATE2 contract."
  }
}