{
  "contractName": "Bootstrapper",
  "abi": [
    {
      "inputs": [
        {
          "name": "_runtimeCode",
          "type": "bytes"
        }
      ],
      "payable": false,
      "stateMutability": "nonpayable",
      "type": "constructor"
    },
    {
      "constant": true,
      "inputs": [],
      "name": "bootstrap",
      "outputs": [
        {
          "name": "",
          "type": "bytes"
        }
      ],
      "payable": false,
      "stateMutability": "view",
      "type": "function"
    }
  ],
  "bytecode": "0x608060405234801561001057600080fd5b506040516102bb3803806102bb8339818101604052602081101561003357600080fd5b81019080805164010000000081111561004b57600080fd5b8201602081018481111561005e57600080fd5b815164010000000081118282018710171561007857600080fd5b505080519093506100929250600091506020840190610099565b5050610134565b828054600181600116156101000203166002900490600052602060002090601f016020900481019282601f106100da57805160ff1916838001178555610107565b82800160010185558215610107579182015b828111156101075782518255916020019190600101906100ec565b50610113929150610117565b5090565b61013191905b80821115610113576000815560010161011d565b90565b610178806101436000396000f3fe608060405234801561001057600080fd5b506004361061002b5760003560e01c8063fb969b0a14610030575b600080fd5b6100386100ad565b6040805160208082528351818301528351919283929083019185019080838360005b8381101561007257818101518382015260200161005a565b50505050905090810190601f16801561009f5780820380516001836020036101000a031916815260200191505b509250505060405180910390f35b60008054604080516020601f60026000196101006001881615020190951694909404938401819004810282018101909252828152606093909290918301828280156101395780601f1061010e57610100808354040283529160200191610139565b820191906000526020600020905b81548152906001019060200180831161011c57829003601f168201915b505050505090509056fea265627a7a723058204acd782390c6a538bff078d36965a5a9ff5c33079c7b24f143a0109196d384f964736f6c634300050a0032",
  "source": "pragma solidity ^0.5.10;\n\n/**\n * @title Bootstrapper\n * @author Disberse LTD\n * @notice Returns an arbitrary bytes value to supply runtime code for an indeterminate\n * CREATE2 contract.\n * @dev runtimeCode shold be the desired runtime code. It is cheaper to make\n * this a `constant` value (see `Bootstrap.sol`), but using storage is more\n * convenient for deployment and testing.\n*/\ncontract Bootstrapper {\n\n    /**\n     * @dev The **runtime**  code to return from `bootstrap`\n     */\n    bytes internal runtimeCode;\n\n    constructor(bytes memory _runtimeCode)\n        public\n    {\n        runtimeCode = _runtimeCode;\n    }\n\n    /**\n     * @dev Returns the runtimeCode\n     * @return The runtimeCode byte array\n    */\n    function bootstrap()\n        public\n        view\n        returns (bytes memory)\n    {\n        return runtimeCode;\n    }\n\n}\n",
  "sourcePath": "/home/ohm/dev/dsb/smart-contracts/contracts/factory/Bootstrapper.sol",
  "compiler": {
    "name": "solc",
    "version": "0.5.10+commit.5a6ea5b1.Emscripten.clang"
  },
  "schemaVersion": "3.0.11",
  "updatedAt": "2019-08-24T22:06:59.792Z",
  "devdoc": {
    "author": "Disberse LTD",
    "details": "runtimeCode shold be the desired runtime code. It is cheaper to make this a `constant` value (see `Bootstrap.sol`), but using storage is more convenient for deployment and testing.",
    "methods": {
      "bootstrap()": {
        "details": "Returns the runtimeCode",
        "return": "The runtimeCode byte array"
      }
    },
    "title": "Bootstrapper"
  },
  "userdoc": {
    "methods": {},
    "notice": "Returns an arbitrary bytes value to supply runtime code for an indeterminate CREATE2 contract."
  }
}