{
  "contractName": "DisberseToken",
  "abi": [
    {
      "constant": true,
      "inputs": [],
      "name": "name",
      "outputs": [
        {
          "name": "",
          "type": "string"
        }
      ],
      "payable": false,
      "stateMutability": "view",
      "type": "function"
    },
    {
      "constant": true,
      "inputs": [],
      "name": "totalSupply",
      "outputs": [
        {
          "name": "",
          "type": "uint256"
        }
      ],
      "payable": false,
      "stateMutability": "view",
      "type": "function"
    },
    {
      "constant": true,
      "inputs": [],
      "name": "DECIMALS",
      "outputs": [
        {
          "name": "",
          "type": "uint8"
        }
      ],
      "payable": false,
      "stateMutability": "view",
      "type": "function"
    },
    {
      "constant": true,
      "inputs": [],
      "name": "OP_BIN",
      "outputs": [
        {
          "name": "",
          "type": "bytes32"
        }
      ],
      "payable": false,
      "stateMutability": "view",
      "type": "function"
    },
    {
      "constant": false,
      "inputs": [],
      "name": "renounceOwnership",
      "outputs": [],
      "payable": false,
      "stateMutability": "nonpayable",
      "type": "function"
    },
    {
      "constant": true,
      "inputs": [],
      "name": "owner",
      "outputs": [
        {
          "name": "",
          "type": "address"
        }
      ],
      "payable": false,
      "stateMutability": "view",
      "type": "function"
    },
    {
      "constant": true,
      "inputs": [],
      "name": "isOwner",
      "outputs": [
        {
          "name": "",
          "type": "bool"
        }
      ],
      "payable": false,
      "stateMutability": "view",
      "type": "function"
    },
    {
      "constant": true,
      "inputs": [],
      "name": "symbol",
      "outputs": [
        {
          "name": "",
          "type": "string"
        }
      ],
      "payable": false,
      "stateMutability": "view",
      "type": "function"
    },
    {
      "constant": false,
      "inputs": [
        {
          "name": "newOwner",
          "type": "address"
        }
      ],
      "name": "transferOwnership",
      "outputs": [],
      "payable": false,
      "stateMutability": "nonpayable",
      "type": "function"
    },
    {
      "inputs": [
        {
          "name": "_name",
          "type": "string"
        },
        {
          "name": "_symbol",
          "type": "string"
        }
      ],
      "payable": false,
      "stateMutability": "nonpayable",
      "type": "constructor"
    },
    {
      "anonymous": false,
      "inputs": [
        {
          "indexed": true,
          "name": "src",
          "type": "address"
        },
        {
          "indexed": true,
          "name": "dst",
          "type": "address"
        },
        {
          "indexed": true,
          "name": "bin",
          "type": "bytes32"
        },
        {
          "indexed": false,
          "name": "amt",
          "type": "uint256"
        }
      ],
      "name": "Transfer",
      "type": "event"
    },
    {
      "anonymous": false,
      "inputs": [
        {
          "indexed": true,
          "name": "src",
          "type": "address"
        },
        {
          "indexed": true,
          "name": "dst",
          "type": "address"
        },
        {
          "indexed": true,
          "name": "bin",
          "type": "bytes32"
        },
        {
          "indexed": false,
          "name": "amt",
          "type": "uint256"
        }
      ],
      "name": "Approval",
      "type": "event"
    },
    {
      "anonymous": false,
      "inputs": [
        {
          "indexed": true,
          "name": "src",
          "type": "address"
        },
        {
          "indexed": true,
          "name": "dst",
          "type": "address"
        },
        {
          "indexed": true,
          "name": "bin",
          "type": "bytes32"
        },
        {
          "indexed": false,
          "name": "amt",
          "type": "uint256"
        }
      ],
      "name": "Mint",
      "type": "event"
    },
    {
      "anonymous": false,
      "inputs": [
        {
          "indexed": true,
          "name": "src",
          "type": "address"
        },
        {
          "indexed": true,
          "name": "bin",
          "type": "bytes32"
        },
        {
          "indexed": false,
          "name": "amt",
          "type": "uint256"
        }
      ],
      "name": "Burn",
      "type": "event"
    },
    {
      "anonymous": false,
      "inputs": [
        {
          "indexed": true,
          "name": "gal",
          "type": "address"
        },
        {
          "indexed": true,
          "name": "src",
          "type": "bytes32"
        },
        {
          "indexed": true,
          "name": "dst",
          "type": "bytes32"
        },
        {
          "indexed": false,
          "name": "amt",
          "type": "uint256"
        }
      ],
      "name": "Allocate",
      "type": "event"
    },
    {
      "anonymous": false,
      "inputs": [
        {
          "indexed": true,
          "name": "previousOwner",
          "type": "address"
        },
        {
          "indexed": true,
          "name": "newOwner",
          "type": "address"
        }
      ],
      "name": "OwnershipTransferred",
      "type": "event"
    },
    {
      "constant": false,
      "inputs": [
        {
          "name": "_dst",
          "type": "address"
        },
        {
          "name": "_amt",
          "type": "uint256"
        }
      ],
      "name": "transfer",
      "outputs": [
        {
          "name": "",
          "type": "bool"
        }
      ],
      "payable": false,
      "stateMutability": "nonpayable",
      "type": "function"
    },
    {
      "constant": false,
      "inputs": [
        {
          "name": "_dst",
          "type": "address"
        },
        {
          "name": "_amt",
          "type": "uint256"
        },
        {
          "name": "_bin",
          "type": "bytes32"
        }
      ],
      "name": "transfer",
      "outputs": [
        {
          "name": "",
          "type": "bool"
        }
      ],
      "payable": false,
      "stateMutability": "nonpayable",
      "type": "function"
    },
    {
      "constant": false,
      "inputs": [
        {
          "name": "_gal",
          "type": "address"
        },
        {
          "name": "_amt",
          "type": "uint256"
        }
      ],
      "name": "approve",
      "outputs": [
        {
          "name": "",
          "type": "bool"
        }
      ],
      "payable": false,
      "stateMutability": "nonpayable",
      "type": "function"
    },
    {
      "constant": false,
      "inputs": [
        {
          "name": "_gal",
          "type": "address"
        },
        {
          "name": "_amt",
          "type": "uint256"
        },
        {
          "name": "_bin",
          "type": "bytes32"
        }
      ],
      "name": "approve",
      "outputs": [
        {
          "name": "",
          "type": "bool"
        }
      ],
      "payable": false,
      "stateMutability": "nonpayable",
      "type": "function"
    },
    {
      "constant": false,
      "inputs": [
        {
          "name": "_src",
          "type": "address"
        },
        {
          "name": "_dst",
          "type": "address"
        },
        {
          "name": "_amt",
          "type": "uint256"
        }
      ],
      "name": "transferFrom",
      "outputs": [
        {
          "name": "",
          "type": "bool"
        }
      ],
      "payable": false,
      "stateMutability": "nonpayable",
      "type": "function"
    },
    {
      "constant": false,
      "inputs": [
        {
          "name": "_src",
          "type": "address"
        },
        {
          "name": "_dst",
          "type": "address"
        },
        {
          "name": "_amt",
          "type": "uint256"
        },
        {
          "name": "_bin",
          "type": "bytes32"
        }
      ],
      "name": "transferFrom",
      "outputs": [
        {
          "name": "",
          "type": "bool"
        }
      ],
      "payable": false,
      "stateMutability": "nonpayable",
      "type": "function"
    },
    {
      "constant": false,
      "inputs": [
        {
          "name": "_amt",
          "type": "uint256"
        },
        {
          "name": "_srcBin",
          "type": "bytes32"
        },
        {
          "name": "_dstBin",
          "type": "bytes32"
        }
      ],
      "name": "allocate",
      "outputs": [
        {
          "name": "",
          "type": "bool"
        }
      ],
      "payable": false,
      "stateMutability": "nonpayable",
      "type": "function"
    },
    {
      "constant": false,
      "inputs": [
        {
          "name": "_gal",
          "type": "address"
        },
        {
          "name": "_amt",
          "type": "uint256"
        }
      ],
      "name": "mint",
      "outputs": [],
      "payable": false,
      "stateMutability": "nonpayable",
      "type": "function"
    },
    {
      "constant": false,
      "inputs": [
        {
          "name": "_gal",
          "type": "address"
        },
        {
          "name": "_amt",
          "type": "uint256"
        },
        {
          "name": "_bin",
          "type": "bytes32"
        }
      ],
      "name": "mint",
      "outputs": [],
      "payable": false,
      "stateMutability": "nonpayable",
      "type": "function"
    },
    {
      "constant": false,
      "inputs": [
        {
          "name": "_gal",
          "type": "address"
        },
        {
          "name": "_amt",
          "type": "uint256"
        },
        {
          "name": "_bin",
          "type": "bytes32"
        }
      ],
      "name": "burn",
      "outputs": [],
      "payable": false,
      "stateMutability": "nonpayable",
      "type": "function"
    },
    {
      "constant": false,
      "inputs": [
        {
          "name": "_gal",
          "type": "address"
        },
        {
          "name": "_amt",
          "type": "uint256"
        }
      ],
      "name": "burn",
      "outputs": [],
      "payable": false,
      "stateMutability": "nonpayable",
      "type": "function"
    },
    {
      "constant": true,
      "inputs": [
        {
          "name": "_gal",
          "type": "address"
        },
        {
          "name": "_bin",
          "type": "bytes32"
        }
      ],
      "name": "balanceOf",
      "outputs": [
        {
          "name": "",
          "type": "uint256"
        }
      ],
      "payable": false,
      "stateMutability": "view",
      "type": "function"
    },
    {
      "constant": true,
      "inputs": [
        {
          "name": "_gal",
          "type": "address"
        }
      ],
      "name": "balanceOf",
      "outputs": [
        {
          "name": "",
          "type": "uint256"
        }
      ],
      "payable": false,
      "stateMutability": "view",
      "type": "function"
    },
    {
      "constant": true,
      "inputs": [
        {
          "name": "_src",
          "type": "address"
        },
        {
          "name": "_dst",
          "type": "address"
        },
        {
          "name": "_bin",
          "type": "bytes32"
        }
      ],
      "name": "allowance",
      "outputs": [
        {
          "name": "",
          "type": "uint256"
        }
      ],
      "payable": false,
      "stateMutability": "view",
      "type": "function"
    },
    {
      "constant": true,
      "inputs": [
        {
          "name": "_src",
          "type": "address"
        },
        {
          "name": "_dst",
          "type": "address"
        }
      ],
      "name": "allowance",
      "outputs": [
        {
          "name": "",
          "type": "uint256"
        }
      ],
      "payable": false,
      "stateMutability": "view",
      "type": "function"
    }
  ],
  "bytecode": "0x60806040523480156200001157600080fd5b506040516200117c3803806200117c833981810160405260408110156200003757600080fd5b8101908080516401000000008111156200005057600080fd5b820160208101848111156200006457600080fd5b81516401000000008111828201871017156200007f57600080fd5b505092919060200180516401000000008111156200009c57600080fd5b82016020810184811115620000b057600080fd5b8151640100000000811182820187101715620000cb57600080fd5b5050600080546001600160a01b03191633178082556040519295506001600160a01b0316935091507f8be0079c531659141344cd1fd0a4f28419497f9722a3daafe3b4186f6b6457e0908290a381516200012d9060029060208501906200014c565b508051620001439060039060208401906200014c565b505050620001f1565b828054600181600116156101000203166002900490600052602060002090601f016020900481019282601f106200018f57805160ff1916838001178555620001bf565b82800160010185558215620001bf579182015b82811115620001bf578251825591602001919060010190620001a2565b50620001cd929150620001d1565b5090565b620001ee91905b80821115620001cd5760008155600101620001d8565b90565b610f7b80620002016000396000f3fe608060405234801561001057600080fd5b50600436106101585760003560e01c806357cfeeee116100c35780638f32d59b1161007c5780638f32d59b1461049f57806395d89b41146104a75780639dc29fac146104af578063a9059cbb146104db578063dd62ed3e14610507578063f2fde38b1461053557610158565b806357cfeeee146103c05780635bb7f6e5146103f257806370a082311461041b578063715018a6146104415780638180f2fc146104495780638da5cb5b1461047b57610158565b806323b872dd1161011557806323b872dd146102d05780632e0f262514610306578063401e33671461032457806340c10f19146103605780634d30b6be1461038c57806357274ae6146103b857610158565b806306fdde031461015d578063095ea7b3146101da578063158a1cc31461021a57806318160ddd1461024e5780631c8d5d38146102685780631e458bee1461029e575b600080fd5b61016561055b565b6040805160208082528351818301528351919283929083019185019080838360005b8381101561019f578181015183820152602001610187565b50505050905090810190601f1680156101cc5780820380516001836020036101000a031916815260200191505b509250505060405180910390f35b610206600480360360408110156101f057600080fd5b506001600160a01b0381351690602001356105e6565b604080519115158252519081900360200190f35b61024c6004803603606081101561023057600080fd5b506001600160a01b0381351690602081013590604001356105fa565b005b610256610651565b60408051918252519081900360200190f35b6102566004803603606081101561027e57600080fd5b506001600160a01b03813581169160208101359091169060400135610657565b61024c600480360360608110156102b457600080fd5b506001600160a01b038135169060208101359060400135610689565b610206600480360360608110156102e657600080fd5b506001600160a01b038135811691602081013590911690604001356106db565b61030e6106f1565b6040805160ff9092168252519081900360200190f35b6102066004803603608081101561033a57600080fd5b506001600160a01b038135811691602081013590911690604081013590606001356106f6565b61024c6004803603604081101561037657600080fd5b506001600160a01b03813516906020013561070d565b610256600480360360408110156103a257600080fd5b506001600160a01b038135169060200135610764565b61025661078c565b610206600480360360608110156103d657600080fd5b506001600160a01b038135169060208101359060400135610791565b6102066004803603606081101561040857600080fd5b508035906020810135906040013561079f565b6102566004803603602081101561043157600080fd5b50356001600160a01b03166107ad565b61024c6107bf565b6102066004803603606081101561045f57600080fd5b506001600160a01b038135169060208101359060400135610850565b61048361085d565b604080516001600160a01b039092168252519081900360200190f35b61020661086c565b61016561087d565b61024c600480360360408110156104c557600080fd5b506001600160a01b0381351690602001356108d8565b610206600480360360408110156104f157600080fd5b506001600160a01b03813516906020013561092b565b6102566004803603604081101561051d57600080fd5b506001600160a01b0381358116916020013516610939565b61024c6004803603602081101561054b57600080fd5b50356001600160a01b0316610946565b6002805460408051602060018416156101000260001901909316849004601f810184900484028201840190925281815292918301828280156105de5780601f106105b3576101008083540402835291602001916105de565b820191906000526020600020905b8154815290600101906020018083116105c157829003601f168201915b505050505081565b60006105f3838383610999565b9392505050565b61060261086c565b610641576040805162461bcd60e51b81526020600482018190526024820152600080516020610f27833981519152604482015290519081900360640190fd5b61064c838383610a0d565b505050565b60015481565b6001600160a01b0392831660009081526005602090815260408083209490951682529283528381209181529152205490565b61069161086c565b6106d0576040805162461bcd60e51b81526020600482018190526024820152600080516020610f27833981519152604482015290519081900360640190fd5b61064c838383610ac0565b60006106e984848484610b76565b949350505050565b601281565b600061070485858585610b76565b95945050505050565b61071561086c565b610754576040805162461bcd60e51b81526020600482018190526024820152600080516020610f27833981519152604482015290519081900360640190fd5b61076082826000610ac0565b5050565b6001600160a01b03919091166000908152600460209081526040808320938352929052205490565b600081565b60006106e933858585610bec565b60006106e933858585610cd4565b60006107b98282610764565b92915050565b6107c761086c565b610806576040805162461bcd60e51b81526020600482018190526024820152600080516020610f27833981519152604482015290519081900360640190fd5b600080546040516001600160a01b03909116907f8be0079c531659141344cd1fd0a4f28419497f9722a3daafe3b4186f6b6457e0908390a3600080546001600160a01b0319169055565b60006106e9848484610999565b6000546001600160a01b031690565b6000546001600160a01b0316331490565b6003805460408051602060026001851615610100026000190190941693909304601f810184900484028201840190925281815292918301828280156105de5780601f106105b3576101008083540402835291602001916105de565b6108e061086c565b61091f576040805162461bcd60e51b81526020600482018190526024820152600080516020610f27833981519152604482015290519081900360640190fd5b61076082826000610a0d565b60006105f333848484610bec565b60006105f3838383610657565b61094e61086c565b61098d576040805162461bcd60e51b81526020600482018190526024820152600080516020610f27833981519152604482015290519081900360640190fd5b61099681610da9565b50565b3360008181526005602090815260408083206001600160a01b03881680855290835281842086855283528184208790558151878152915193948694919390927fa1376f00ce38a02643af0ff97dce59c2c81b4c8ad34c717ce9a44ed623e0718d929081900390910190a45060019392505050565b6001600160a01b0383166000908152600460209081526040808320848452909152902054610a41908363ffffffff610e4916565b6001600160a01b0384166000908152600460209081526040808320858452909152902055600154610a78908363ffffffff610e4916565b60015560408051838152905182916001600160a01b038616917fc3599666213715dfabdf658c56a97b9adfad2cd9689690c70c79b20bc61940c99181900360200190a3505050565b6001600160a01b0383166000908152600460209081526040808320848452909152902054610af4908363ffffffff610ea616565b6001600160a01b0384166000908152600460209081526040808320858452909152902055600154610b2b908363ffffffff610ea616565b60015560408051838152905182916001600160a01b0386169133917f36a861cdc16f4ac3ff0e627a0cb18de0b28bb37c4236dcc686ff9b6cbe99387d919081900360200190a4505050565b6001600160a01b0380851660009081526005602090815260408083209387168352928152828220848352905290812054610bb6908463ffffffff610e4916565b6001600160a01b038087166000908152600560209081526040808320938916835292815282822086835290522055610704858585855b6001600160a01b0384166000908152600460209081526040808320848452909152812054610c20908463ffffffff610e4916565b6001600160a01b038087166000908152600460208181526040808420888552825280842095909555928816825282528281208582529091522054610c6a908463ffffffff610ea616565b6001600160a01b0380861660008181526004602090815260408083208884528252918290209490945580518781529051869492938a16927f30b1b5fbdedaf2927859653636cb63ab6abd50b621af19a175f1490cb85118a3928290030190a4506001949350505050565b6001600160a01b0384166000908152600460209081526040808320858452909152812054610d08908563ffffffff610e4916565b6001600160a01b0386166000908152600460209081526040808320878452909152808220929092558381522054610d3f9085610ea6565b6001600160a01b0386166000818152600460209081526040808320878452825291829020939093558051878152905185938793927f651870fee7ac85c00fb6def31e949d6e0c85929a209cb78a590c86675a339485929081900390910190a4506001949350505050565b6001600160a01b038116610dee5760405162461bcd60e51b8152600401808060200182810382526026815260200180610f016026913960400191505060405180910390fd5b600080546040516001600160a01b03808516939216917f8be0079c531659141344cd1fd0a4f28419497f9722a3daafe3b4186f6b6457e091a3600080546001600160a01b0319166001600160a01b0392909216919091179055565b600082821115610ea0576040805162461bcd60e51b815260206004820152601e60248201527f536166654d6174683a207375627472616374696f6e206f766572666c6f770000604482015290519081900360640190fd5b50900390565b6000828201838110156105f3576040805162461bcd60e51b815260206004820152601b60248201527f536166654d6174683a206164646974696f6e206f766572666c6f770000000000604482015290519081900360640190fdfe4f776e61626c653a206e6577206f776e657220697320746865207a65726f20616464726573734f776e61626c653a2063616c6c6572206973206e6f7420746865206f776e6572a265627a7a72305820f6090037d4df78fc0980730884b12b422f5af6edecea6664aa414b5490256e3d64736f6c634300050a0032",
  "source": "pragma solidity ^0.5.10;\n\n// Interfaces:\nimport \"./libraries/Ownable.sol\";\nimport \"./libraries/SafeMath.sol\";\n\n/**\n * @title DisberseToken\n * @author Disberse LTD\n * @notice An ERC20 compatible token contract with one addition:\n * - Provides `bins` to subdivide funds within an address\n*/\ncontract DisberseToken is Ownable {\n\n    using SafeMath for uint256;\n\n    /////\n    // Constants:\n    /////\n\n    uint8 public constant DECIMALS = 18;\n\n    // The default bin that assumes no specific allocation of tokens. Also used to provide backwards\n    // compatibility with ERC-20 tokens.\n    bytes32 public constant OP_BIN = bytes32(0);\n\n    /////\n    // Storage:\n    /////\n\n    uint256 public totalSupply;\n    string public name;\n    string public symbol;\n\n    // Map: user => bin => amount.\n    mapping (address => mapping (bytes32 => uint)) internal _balances;\n\n    // Map: approver => spender => bin => amount.\n    mapping (address => mapping (address => mapping (bytes32 => uint))) internal _allowances;\n\n    /////\n    // Events:\n    /////\n\n    event Transfer(address indexed src, address indexed dst, bytes32 indexed bin, uint256 amt);\n    event Approval(address indexed src, address indexed dst, bytes32 indexed bin, uint256 amt);\n    event Mint(address indexed src, address indexed dst, bytes32 indexed bin, uint256 amt);\n    event Burn(address indexed src, bytes32 indexed bin, uint256 amt);\n    event Allocate(address indexed gal, bytes32 indexed src, bytes32 indexed dst, uint256 amt);\n\n    /////\n    // Constructor:\n    /////\n\n    /**\n     * @dev Constructor\n     * @param _name Token name.\n     * @param _symbol Token symbol.\n    */\n    constructor(string memory _name, string memory _symbol)\n        public\n    {\n        name = _name;\n        symbol = _symbol;\n    }\n\n    /////\n    // Public functions\n    /////\n\n    /**\n     * @dev Transfers `_amt` of tokens from `msg.sender`'s `_bin` to `_dst`'s `_bin`.\n     * @param _dst The recipient of the tokens.\n     * @param _amt The amount of tokens to transfer.\n     * @param _bin The bin in which the transfer is executed.\n    */\n    function transfer(\n        address _dst,\n        uint _amt,\n        bytes32 _bin\n    )\n        public\n        returns (bool)\n    {\n        return _transfer(msg.sender, _dst, _amt, _bin);\n    }\n\n    /**\n     * @dev Transfers `_amt` of tokens from msg.sender's OP_BIN to `_dst`'s OP_BIN.\n     * @param _dst The recipient of the tokens.\n     * @param _amt The amount of tokens to transfer.\n    */\n    function transfer(\n        address _dst,\n        uint _amt\n    )\n        public\n        returns (bool)\n    {\n        return _transfer(msg.sender, _dst, _amt, OP_BIN);\n    }\n\n    /**\n     * @dev Approves `_gal` to transfer `_amt` of tokens from `msg.sender`'s `_bin`.\n     * @param _gal The address that is approved to transfer the tokens.\n     * @param _amt The amount of tokens being approved for transfer.\n     * @param _bin The bin in which the tokens are approved to be transferred.\n    */\n    function approve(\n        address _gal,\n        uint256 _amt,\n        bytes32 _bin\n    )\n        public\n        returns (bool)\n    {\n        return _approve(_gal, _amt, _bin);\n    }\n\n    /**\n     * @dev Approves `_gal` to transfer `_amt` of tokens from `msg.sender`'s OP_BIN.\n     * @param _gal The address that is approved to transfer the tokens\n     * @param _amt The amount of tokens being approved for transfer\n    */\n    function approve(\n        address _gal,\n        uint _amt\n    )\n        public\n        returns (bool)\n    {\n        return _approve(_gal, _amt, OP_BIN);\n    }\n\n    /**\n     * @dev Transfers `amt` tokens from `src`s `bin` to `_dst`'s bin.\n     * @param _src The address to transfer tokens from.\n     * @param _dst The address to transfer tokens to.\n     * @param _amt The amount of tokens to transfer.\n     * @param _bin The bin in which the transfer is executed.\n    */\n    function transferFrom(\n        address _src,\n        address _dst,\n        uint256 _amt,\n        bytes32 _bin\n    )\n        public\n        returns (bool)\n    {\n        return _transferFrom(_src, _dst, _amt, _bin);\n    }\n\n    /**\n     * @dev Transfers _amt of tokens from _src's OP_BIN to _dst\n     * @param _src The address to transfer tokens from\n     * @param _dst The address to transfer tokens to\n     * @param _amt The amount of tokens to transfer\n    */\n    function transferFrom(\n        address _src,\n        address _dst,\n        uint256 _amt\n    )\n        public\n        returns (bool)\n    {\n        return _transferFrom(_src, _dst, _amt, OP_BIN);\n    }\n\n    /**\n     * @dev Allocates _amt of tokens from _srcBin to _dstBin\n     * @param _amt The amount of tokens to allocate\n     * @param _srcBin The bin to allocate tokens from\n     * @param _dstBin The bin to allocate tokens to\n    */\n    function allocate(uint _amt, bytes32 _srcBin, bytes32 _dstBin)\n        public\n        returns (bool)\n    {\n        return _allocate(msg.sender, _amt, _srcBin, _dstBin);\n    }\n\n    /////\n    // Public Auth functions\n    /////\n\n    /**\n     * @dev Generates `_amt` new tokens in `_gal`'s `_bin`.\n     * @param _gal Address to mint new tokens to.\n     * @param _amt Amount of tokens to mint.\n     * @param _bin Bin in which to mint tokens.\n    */\n    function mint(\n        address _gal,\n        uint256 _amt,\n        bytes32 _bin\n    )\n        external\n        onlyOwner\n    {\n        _mint(_gal, _amt, _bin);\n    }\n\n    /**\n     * @dev Generates `_amt` new tokens in `_gal`'s OP_BIN.\n     * @param _gal Address to mint new tokens to.\n     * @param _amt Amount of tokens to mint.\n    */\n    function mint(\n        address _gal,\n        uint256 _amt\n    )\n        external\n        onlyOwner\n    {\n        _mint(_gal, _amt, OP_BIN);\n    }\n\n    /**\n     * @dev Destroys `_amt` tokens in `_gal`'s `_bin`.\n     * @param _gal Addres to burn tokens from.\n    * @param _amt Amount of tokens to burn.\n    * @param _bin Bin to burn tokens from.\n    */\n    function burn(\n        address _gal,\n        uint256 _amt,\n        bytes32 _bin\n    )\n        external\n        onlyOwner\n    {\n        _burn(_gal, _amt, _bin);\n    }\n\n    /**\n     * @dev Removes `_amt` of tokens from `_gal`'s OP_BIN.\n     * @param _gal Addres to burn tokens from.\n     * @param _amt Amount of tokens to burn.\n    */\n    function burn(\n        address _gal,\n        uint256 _amt\n    )\n        external\n        onlyOwner\n    {\n        _burn(_gal, _amt, OP_BIN);\n    }\n\n    /////\n    // Public view functions:\n    /////\n\n    /**\n     * @dev Queries the balance of tokens in `_gal`'s `_bin`.\n     * @param _gal The address to query the balance of.\n     * @param _bin The bin in which to query the balance.\n     * @return The balance of the requested address's `_bin`.\n    */\n    function balanceOf(\n        address _gal,\n        bytes32 _bin\n    )\n        public\n        view\n        returns (uint256)\n    {\n        return _balances[_gal][_bin];\n    }\n\n    /**\n     * @dev Queries the balance of tokens in `_gal`'s OP_BIN.\n     * @param _gal The address to query the balance of.\n     * @return The balance of the requested address's OP_BIN.\n    */\n    function balanceOf(address _gal)\n        public\n        view\n        returns (uint256)\n    {\n        return balanceOf(_gal, OP_BIN);\n    }\n\n    /**\n     * @dev Queries the amount of tokens that `_dst` is currently allowed to transfer from `_src`'s\n     * `_bin`.\n     * @param _src The address that holds the tokens.\n     * @param _dst The address that is allowed to transfer the tokens.\n     * @param _bin The bin in which the tokens are held.\n     * @return The amount of tokens that `_dst` can transfer from `_src`'s `_bin`.\n    */\n    function allowance(\n        address _src,\n        address _dst,\n        bytes32 _bin\n    )\n        public\n        view\n        returns (uint256)\n    {\n        return _allowances[_src][_dst][_bin];\n    }\n\n    /**\n     * @dev Queries the amount of tokens that `_dst` is currently allowed to transfer from `_src`'s\n     * OP_BIN.\n     * @param _src The address that holds the tokens.\n     * @param _dst The address that is allowed to transfer the tokens.\n     * @return The amount of tokens that _dst can transfer from _src's OP_BIN.\n    */\n    function allowance(\n        address _src,\n        address _dst\n    )\n        public\n        view\n        returns (uint256)\n    {\n        return allowance(_src, _dst, OP_BIN);\n    }\n\n    /////\n    // Internal functions:\n    /////\n\n    /**\n     * @dev Generates `_amt` of new tokens in `_gal`'s `_bin`.\n     * @param _gal Address to mint tokens to\n     * @param _amt Amount of tokens to mint\n     * @param _bin Bin to mint tokens to\n    */\n    function _mint(\n        address _gal,\n        uint256 _amt,\n        bytes32 _bin\n    )\n        internal\n    {\n        _balances[_gal][_bin] = _balances[_gal][_bin].add(_amt);\n        totalSupply = totalSupply.add(_amt);\n        emit Mint(msg.sender, _gal, _bin, _amt);\n    }\n\n    /**\n     * @dev Removes `_amt` of tokens from `_gal`'s `_bin`.\n     * @param _gal Addres to burn tokens from\n     * @param _amt Amount of tokens to burn\n     * @param _bin Bin to burn tokens from\n    */\n    function _burn(\n        address _gal,\n        uint256 _amt,\n        bytes32 _bin\n    )\n        internal\n    {\n        _balances[_gal][_bin] = _balances[_gal][_bin].sub(_amt);\n        totalSupply = totalSupply.sub(_amt);\n        emit Burn(_gal, _bin, _amt);\n    }\n\n    /**\n     * @dev Transfers `_amt` of tokens from `_src`'s _bin to `_dst`.\n     * @param _src The address to transfer tokens from.\n     * @param _dst The address to transfer tokens to.\n     * @param _amt The amount of tokens to transfer.\n     * @param _bin The bin in which the transfer is executed.\n    */\n    function _transferFrom(\n        address _src,\n        address _dst,\n        uint256 _amt,\n        bytes32 _bin\n    )\n        internal\n        returns (bool)\n    {\n        _allowances[_src][_dst][_bin] = _allowances[_src][_dst][_bin].sub(_amt);\n        return _transfer(_src, _dst, _amt, _bin);\n    }\n\n    /**\n     * @dev Approves `_gal` to transfer `_amt` of tokens from msg.sender's `_bin`.\n     * @param _gal The address that is approved to transfer the tokens.\n     * @param _amt The amount of tokens being approved for transfer.\n     * @param _bin The bin in which the transfer will be executed.\n    */\n    function _approve(\n        address _gal,\n        uint256 _amt,\n        bytes32 _bin\n    )\n        internal\n        returns (bool)\n    {\n        _allowances[msg.sender][_gal][_bin] = _amt;\n        emit Approval(msg.sender, _gal, _bin, _amt);\n        return true;\n    }\n\n    /**\n     * @dev Allocates `_amt` of tokens from `_srcBin` to `_dstBin`.\n     * @param _amt The amount of tokens to allocate.\n     * @param _srcBin The bin to allocate tokens from.\n     * @param _dstBin The bin to allocate tokens to,\n    */\n    function _allocate(\n        address _gal,\n        uint256 _amt,\n        bytes32 _srcBin,\n        bytes32 _dstBin\n    )\n        internal\n        returns (bool)\n    {\n        // Also check that balance > amt to transfer via underflow check.\n        _balances[_gal][_srcBin] = _balances[_gal][_srcBin].sub(_amt);\n        _balances[_gal][_dstBin] = _balances[_gal][_dstBin].add(_amt);\n\n        emit Allocate(_gal, _srcBin, _dstBin, _amt);\n        return true;\n    }\n\n    /**\n     * @dev Transfers `_amt` of tokens from msg.sender's `_bin` to `_dst`'s `_bin`.\n     * @param _dst The recipient of the tokens.\n     * @param _amt The amount of tokens to transfer.\n     * @param _bin The bin in which the transfer is executed.\n    */\n    function _transfer(\n        address _src,\n        address _dst,\n        uint256 _amt,\n        bytes32 _bin\n    )\n        internal\n        returns (bool)\n    {\n        // Also check that balance > amt to transfer via underflow check.\n        _balances[_src][_bin] = _balances[_src][_bin].sub(_amt);\n        _balances[_dst][_bin] = _balances[_dst][_bin].add(_amt);\n\n        emit Transfer(_src, _dst, _bin, _amt);\n        return true;\n    }\n\n}\n",
  "sourcePath": "/home/ohm/dev/dsb/121-smart-contracts/contracts/DisberseToken.sol",
  "compiler": {
    "name": "solc",
    "version": "0.5.10+commit.5a6ea5b1.Emscripten.clang"
  },
  "schemaVersion": "3.0.11",
  "updatedAt": "2019-08-25T19:51:02.216Z",
  "devdoc": {
    "author": "Disberse LTD",
    "methods": {
      "allocate(uint256,bytes32,bytes32)": {
        "details": "Allocates _amt of tokens from _srcBin to _dstBin",
        "params": {
          "_amt": "The amount of tokens to allocate",
          "_dstBin": "The bin to allocate tokens to",
          "_srcBin": "The bin to allocate tokens from"
        }
      },
      "allowance(address,address)": {
        "details": "Queries the amount of tokens that `_dst` is currently allowed to transfer from `_src`'s OP_BIN.",
        "params": {
          "_dst": "The address that is allowed to transfer the tokens.",
          "_src": "The address that holds the tokens."
        },
        "return": "The amount of tokens that _dst can transfer from _src's OP_BIN."
      },
      "allowance(address,address,bytes32)": {
        "details": "Queries the amount of tokens that `_dst` is currently allowed to transfer from `_src`'s `_bin`.",
        "params": {
          "_bin": "The bin in which the tokens are held.",
          "_dst": "The address that is allowed to transfer the tokens.",
          "_src": "The address that holds the tokens."
        },
        "return": "The amount of tokens that `_dst` can transfer from `_src`'s `_bin`."
      },
      "approve(address,uint256)": {
        "details": "Approves `_gal` to transfer `_amt` of tokens from `msg.sender`'s OP_BIN.",
        "params": {
          "_amt": "The amount of tokens being approved for transfer",
          "_gal": "The address that is approved to transfer the tokens"
        }
      },
      "approve(address,uint256,bytes32)": {
        "details": "Approves `_gal` to transfer `_amt` of tokens from `msg.sender`'s `_bin`.",
        "params": {
          "_amt": "The amount of tokens being approved for transfer.",
          "_bin": "The bin in which the tokens are approved to be transferred.",
          "_gal": "The address that is approved to transfer the tokens."
        }
      },
      "balanceOf(address)": {
        "details": "Queries the balance of tokens in `_gal`'s OP_BIN.",
        "params": {
          "_gal": "The address to query the balance of."
        },
        "return": "The balance of the requested address's OP_BIN."
      },
      "balanceOf(address,bytes32)": {
        "details": "Queries the balance of tokens in `_gal`'s `_bin`.",
        "params": {
          "_bin": "The bin in which to query the balance.",
          "_gal": "The address to query the balance of."
        },
        "return": "The balance of the requested address's `_bin`."
      },
      "burn(address,uint256)": {
        "details": "Removes `_amt` of tokens from `_gal`'s OP_BIN.",
        "params": {
          "_amt": "Amount of tokens to burn.",
          "_gal": "Addres to burn tokens from."
        }
      },
      "burn(address,uint256,bytes32)": {
        "details": "Destroys `_amt` tokens in `_gal`'s `_bin`.",
        "params": {
          "_amt": "Amount of tokens to burn.",
          "_bin": "Bin to burn tokens from.",
          "_gal": "Addres to burn tokens from."
        }
      },
      "constructor": {
        "details": "Constructor",
        "params": {
          "_name": "Token name.",
          "_symbol": "Token symbol."
        }
      },
      "isOwner()": {
        "details": "Returns true if the caller is the current owner."
      },
      "mint(address,uint256)": {
        "details": "Generates `_amt` new tokens in `_gal`'s OP_BIN.",
        "params": {
          "_amt": "Amount of tokens to mint.",
          "_gal": "Address to mint new tokens to."
        }
      },
      "mint(address,uint256,bytes32)": {
        "details": "Generates `_amt` new tokens in `_gal`'s `_bin`.",
        "params": {
          "_amt": "Amount of tokens to mint.",
          "_bin": "Bin in which to mint tokens.",
          "_gal": "Address to mint new tokens to."
        }
      },
      "owner()": {
        "details": "Returns the address of the current owner."
      },
      "renounceOwnership()": {
        "details": "Leaves the contract without owner. It will not be possible to call `onlyOwner` functions anymore. Can only be called by the current owner.     * NOTE: Renouncing ownership will leave the contract without an owner, thereby removing any functionality that is only available to the owner."
      },
      "transfer(address,uint256)": {
        "details": "Transfers `_amt` of tokens from msg.sender's OP_BIN to `_dst`'s OP_BIN.",
        "params": {
          "_amt": "The amount of tokens to transfer.",
          "_dst": "The recipient of the tokens."
        }
      },
      "transfer(address,uint256,bytes32)": {
        "details": "Transfers `_amt` of tokens from `msg.sender`'s `_bin` to `_dst`'s `_bin`.",
        "params": {
          "_amt": "The amount of tokens to transfer.",
          "_bin": "The bin in which the transfer is executed.",
          "_dst": "The recipient of the tokens."
        }
      },
      "transferFrom(address,address,uint256)": {
        "details": "Transfers _amt of tokens from _src's OP_BIN to _dst",
        "params": {
          "_amt": "The amount of tokens to transfer",
          "_dst": "The address to transfer tokens to",
          "_src": "The address to transfer tokens from"
        }
      },
      "transferFrom(address,address,uint256,bytes32)": {
        "details": "Transfers `amt` tokens from `src`s `bin` to `_dst`'s bin.",
        "params": {
          "_amt": "The amount of tokens to transfer.",
          "_bin": "The bin in which the transfer is executed.",
          "_dst": "The address to transfer tokens to.",
          "_src": "The address to transfer tokens from."
        }
      },
      "transferOwnership(address)": {
        "details": "Transfers ownership of the contract to a new account (`newOwner`). Can only be called by the current owner."
      }
    },
    "title": "DisberseToken"
  },
  "userdoc": {
    "methods": {},
    "notice": "An ERC20 compatible token contract with one addition: - Provides `bins` to subdivide funds within an address"
  }
}