{
  "contractName": "ExchangeLogger",
  "abi": [
    {
      "constant": false,
      "inputs": [],
      "name": "renounceOwnership",
      "outputs": [],
      "payable": false,
      "stateMutability": "nonpayable",
      "type": "function"
    },
    {
      "constant": true,
      "inputs": [],
      "name": "owner",
      "outputs": [
        {
          "name": "",
          "type": "address"
        }
      ],
      "payable": false,
      "stateMutability": "view",
      "type": "function"
    },
    {
      "constant": true,
      "inputs": [],
      "name": "isOwner",
      "outputs": [
        {
          "name": "",
          "type": "bool"
        }
      ],
      "payable": false,
      "stateMutability": "view",
      "type": "function"
    },
    {
      "constant": false,
      "inputs": [
        {
          "name": "newOwner",
          "type": "address"
        }
      ],
      "name": "transferOwnership",
      "outputs": [],
      "payable": false,
      "stateMutability": "nonpayable",
      "type": "function"
    },
    {
      "anonymous": false,
      "inputs": [
        {
          "indexed": true,
          "name": "burnHash",
          "type": "bytes32"
        },
        {
          "indexed": true,
          "name": "dstCurrency",
          "type": "bytes32"
        },
        {
          "indexed": true,
          "name": "dstValue",
          "type": "uint256"
        }
      ],
      "name": "LogExchange",
      "type": "event"
    },
    {
      "anonymous": false,
      "inputs": [
        {
          "indexed": true,
          "name": "previousOwner",
          "type": "address"
        },
        {
          "indexed": true,
          "name": "newOwner",
          "type": "address"
        }
      ],
      "name": "OwnershipTransferred",
      "type": "event"
    },
    {
      "constant": false,
      "inputs": [
        {
          "name": "_burnHash",
          "type": "bytes32"
        },
        {
          "name": "_dstCurrency",
          "type": "bytes32"
        },
        {
          "name": "_dstValue",
          "type": "uint256"
        }
      ],
      "name": "logExchange",
      "outputs": [],
      "payable": false,
      "stateMutability": "nonpayable",
      "type": "function"
    }
  ],
  "bytecode": "0x60806040819052600080546001600160a01b03191633178082556001600160a01b0316917f8be0079c531659141344cd1fd0a4f28419497f9722a3daafe3b4186f6b6457e0908290a36103a5806100576000396000f3fe608060405234801561001057600080fd5b50600436106100575760003560e01c8063715018a61461005c5780638da5cb5b146100665780638f32d59b1461008a578063f2fde38b146100a6578063f80a1a9b146100cc575b600080fd5b6100646100f5565b005b61006e610198565b604080516001600160a01b039092168252519081900360200190f35b6100926101a7565b604080519115158252519081900360200190f35b610064600480360360208110156100bc57600080fd5b50356001600160a01b03166101b8565b610064600480360360608110156100e257600080fd5b508035906020810135906040013561021d565b6100fd6101a7565b61014e576040805162461bcd60e51b815260206004820181905260248201527f4f776e61626c653a2063616c6c6572206973206e6f7420746865206f776e6572604482015290519081900360640190fd5b600080546040516001600160a01b03909116907f8be0079c531659141344cd1fd0a4f28419497f9722a3daafe3b4186f6b6457e0908390a3600080546001600160a01b0319169055565b6000546001600160a01b031690565b6000546001600160a01b0316331490565b6101c06101a7565b610211576040805162461bcd60e51b815260206004820181905260248201527f4f776e61626c653a2063616c6c6572206973206e6f7420746865206f776e6572604482015290519081900360640190fd5b61021a816102aa565b50565b6102256101a7565b610276576040805162461bcd60e51b815260206004820181905260248201527f4f776e61626c653a2063616c6c6572206973206e6f7420746865206f776e6572604482015290519081900360640190fd5b8082847f8a684cc1c558b9261ab82980e5c78c4a021955b74d79421d7aa32a00ab6583f860405160405180910390a4505050565b6001600160a01b0381166102ef5760405162461bcd60e51b815260040180806020018281038252602681526020018061034b6026913960400191505060405180910390fd5b600080546040516001600160a01b03808516939216917f8be0079c531659141344cd1fd0a4f28419497f9722a3daafe3b4186f6b6457e091a3600080546001600160a01b0319166001600160a01b039290921691909117905556fe4f776e61626c653a206e6577206f776e657220697320746865207a65726f2061646472657373a265627a7a72305820c1cd0c49f34e8628ea455385f2be292a7ec2147c780a64bc080e6c75e81d9dec64736f6c634300050a0032",
  "source": "pragma solidity ^0.5.10;\n\nimport \"./libraries/Ownable.sol\";\n/**\n * @title ExchangeLogger\n * @author Disberse LTD\n * @notice Contract for logging exchange rates for particular burn events\n * asynchronously\n */\ncontract ExchangeLogger is Ownable {\n\n    event LogExchange(\n        bytes32 indexed burnHash,\n        bytes32 indexed dstCurrency,\n        uint256 indexed dstValue\n    );\n\n    /**\n     * @dev Logs data related to an external currency conversion after a redeem\n     * @param _burnHash The identifier of the specific burn event correlated\n     * with the currency conversion\n     * @param _dstCurrency The currency that the funds were converted into\n     * @param _dstValue The value of the transferred funds, denominated in dstCurrency\n     */\n    function logExchange(\n        bytes32 _burnHash,\n        bytes32 _dstCurrency,\n        uint256 _dstValue\n    )\n        external\n        onlyOwner\n    {\n        emit LogExchange(_burnHash, _dstCurrency, _dstValue);\n    }\n}\n",
  "sourcePath": "/home/ohm/dev/dsb/121-smart-contracts/contracts/ExchangeLogger.sol",
  "compiler": {
    "name": "solc",
    "version": "0.5.10+commit.5a6ea5b1.Emscripten.clang"
  },
  "schemaVersion": "3.0.11",
  "updatedAt": "2019-08-25T19:51:02.223Z",
  "devdoc": {
    "author": "Disberse LTD",
    "methods": {
      "isOwner()": {
        "details": "Returns true if the caller is the current owner."
      },
      "logExchange(bytes32,bytes32,uint256)": {
        "details": "Logs data related to an external currency conversion after a redeem",
        "params": {
          "_burnHash": "The identifier of the specific burn event correlated with the currency conversion",
          "_dstCurrency": "The currency that the funds were converted into",
          "_dstValue": "The value of the transferred funds, denominated in dstCurrency"
        }
      },
      "owner()": {
        "details": "Returns the address of the current owner."
      },
      "renounceOwnership()": {
        "details": "Leaves the contract without owner. It will not be possible to call `onlyOwner` functions anymore. Can only be called by the current owner.     * NOTE: Renouncing ownership will leave the contract without an owner, thereby removing any functionality that is only available to the owner."
      },
      "transferOwnership(address)": {
        "details": "Transfers ownership of the contract to a new account (`newOwner`). Can only be called by the current owner."
      }
    },
    "title": "ExchangeLogger"
  },
  "userdoc": {
    "methods": {},
    "notice": "Contract for logging exchange rates for particular burn events asynchronously"
  }
}