{
  "contractName": "Factory",
  "abi": [
    {
      "constant": true,
      "inputs": [],
      "name": "guard",
      "outputs": [
        {
          "name": "",
          "type": "address"
        }
      ],
      "payable": false,
      "stateMutability": "view",
      "type": "function"
    },
    {
      "constant": true,
      "inputs": [],
      "name": "initCode",
      "outputs": [
        {
          "name": "",
          "type": "bytes"
        }
      ],
      "payable": false,
      "stateMutability": "view",
      "type": "function"
    },
    {
      "constant": true,
      "inputs": [],
      "name": "bootstrapperAddr",
      "outputs": [
        {
          "name": "",
          "type": "address"
        }
      ],
      "payable": false,
      "stateMutability": "view",
      "type": "function"
    },
    {
      "constant": true,
      "inputs": [
        {
          "name": "_src",
          "type": "address"
        },
        {
          "name": "_sig",
          "type": "bytes4"
        }
      ],
      "name": "isAuthorized",
      "outputs": [
        {
          "name": "",
          "type": "bool"
        }
      ],
      "payable": false,
      "stateMutability": "view",
      "type": "function"
    },
    {
      "constant": false,
      "inputs": [
        {
          "name": "_guard",
          "type": "address"
        }
      ],
      "name": "setGuard",
      "outputs": [],
      "payable": false,
      "stateMutability": "nonpayable",
      "type": "function"
    },
    {
      "inputs": [
        {
          "name": "_guard",
          "type": "address"
        },
        {
          "name": "_bootstrapperAddr",
          "type": "address"
        },
        {
          "name": "_initCode",
          "type": "bytes"
        }
      ],
      "payable": false,
      "stateMutability": "nonpayable",
      "type": "constructor"
    },
    {
      "anonymous": false,
      "inputs": [
        {
          "indexed": true,
          "name": "src",
          "type": "address"
        },
        {
          "indexed": true,
          "name": "dst",
          "type": "address"
        },
        {
          "indexed": true,
          "name": "salt",
          "type": "bytes32"
        }
      ],
      "name": "Deploy",
      "type": "event"
    },
    {
      "anonymous": false,
      "inputs": [
        {
          "indexed": true,
          "name": "setBy",
          "type": "address"
        },
        {
          "indexed": true,
          "name": "guard",
          "type": "address"
        }
      ],
      "name": "SetGuard",
      "type": "event"
    },
    {
      "constant": false,
      "inputs": [
        {
          "name": "_salt",
          "type": "bytes32"
        }
      ],
      "name": "deploy",
      "outputs": [
        {
          "name": "dst",
          "type": "address"
        }
      ],
      "payable": false,
      "stateMutability": "nonpayable",
      "type": "function"
    },
    {
      "constant": false,
      "inputs": [
        {
          "name": "_bootstrapperAddr",
          "type": "address"
        }
      ],
      "name": "setBootstrapper",
      "outputs": [],
      "payable": false,
      "stateMutability": "nonpayable",
      "type": "function"
    },
    {
      "constant": true,
      "inputs": [],
      "name": "findBootstrapper",
      "outputs": [
        {
          "name": "",
          "type": "address"
        }
      ],
      "payable": false,
      "stateMutability": "view",
      "type": "function"
    }
  ],
  "bytecode": "0x608060405234801561001057600080fd5b506040516109363803806109368339818101604052606081101561003357600080fd5b815160208301516040840180519294919382019264010000000081111561005957600080fd5b8201602081018481111561006c57600080fd5b815164010000000081118282018710171561008657600080fd5b50509291905050508261009e816100d660201b60201c565b50600180546001600160a01b0319166001600160a01b03841617905580516100cd906002906020840190610121565b505050506101bc565b600080546001600160a01b0319166001600160a01b0383169081178255604051909133917fa1a6a6164848fdba82d01d50ad73927295d9d4ccfba42020625dd3d7320673909190a350565b828054600181600116156101000203166002900490600052602060002090601f016020900481019282601f1061016257805160ff191683800117855561018f565b8280016001018555821561018f579182015b8281111561018f578251825591602001919060010190610174565b5061019b92915061019f565b5090565b6101b991905b8082111561019b57600081556001016101a5565b90565b61076b806101cb6000396000f3fe608060405234801561001057600080fd5b50600436106100885760003560e01c8063a926e7c71161005b578063a926e7c7146100fe578063d6ddde511461017b578063d9972b9614610183578063e19a9dd9146101cd57610088565b80632b85ba381461008d5780636cd38bfa146100c65780637ceab3b1146100ee57806397f36828146100f6575b600080fd5b6100aa600480360360208110156100a357600080fd5b50356101f3565b604080516001600160a01b039092168252519081900360200190f35b6100ec600480360360208110156100dc57600080fd5b50356001600160a01b031661047b565b005b6100aa610500565b6100aa61050f565b61010661051e565b6040805160208082528351818301528351919283929083019185019080838360005b83811015610140578181015183820152602001610128565b50505050905090810190601f16801561016d5780820380516001836020036101000a031916815260200191505b509250505060405180910390f35b6100aa6105a9565b6101b96004803603604081101561019957600080fd5b5080356001600160a01b031690602001356001600160e01b0319166105b8565b604080519115158252519081900360200190f35b6100ec600480360360208110156101e357600080fd5b50356001600160a01b03166105cd565b600061020b336000356001600160e01b0319166105b8565b610258576040805162461bcd60e51b8152602060048201526019602482015278185d5d1a0b58da1958dad95c8b5d5b985d5d1a1bdc9a5e9959603a1b604482015290519081900360640190fd5b60028054604080516020601f60001961010060018716150201909416859004938401819004810282018101909252828152606093909290918301828280156102e15780601f106102b6576101008083540402835291602001916102e1565b820191906000526020600020905b8154815290600101906020018083116102c457829003601f168201915b505050505090506000838251602084016000f59250823b61030157600080fd5b823f90506000600160009054906101000a90046001600160a01b03166001600160a01b031663fb969b0a6040518163ffffffff1660e01b815260040160006040518083038186803b15801561035557600080fd5b505afa158015610369573d6000803e3d6000fd5b505050506040513d6000823e601f3d908101601f19168201604052602081101561039257600080fd5b8101908080516401000000008111156103aa57600080fd5b820160208101848111156103bd57600080fd5b81516401000000008111828201871017156103d757600080fd5b5050805160209091012093505050828214905061043b576040805162461bcd60e51b815260206004820152601960248201527f666163746f72792d6465706c6f796d656e742d6661696c656400000000000000604482015290519081900360640190fd5b60405185906001600160a01b0386169033907f471aeb5932cefaed8434be880579aff3b42a2e84f906d2230b24f2622b22f25290600090a4505050919050565b610491336000356001600160e01b0319166105b8565b6104de576040805162461bcd60e51b8152602060048201526019602482015278185d5d1a0b58da1958dad95c8b5d5b985d5d1a1bdc9a5e9959603a1b604482015290519081900360640190fd5b600180546001600160a01b0319166001600160a01b0392909216919091179055565b6000546001600160a01b031681565b6001546001600160a01b031690565b6002805460408051602060018416156101000260001901909316849004601f810184900484028201840190925281815292918301828280156105a15780601f10610576576101008083540402835291602001916105a1565b820191906000526020600020905b81548152906001019060200180831161058457829003601f168201915b505050505081565b6001546001600160a01b031681565b60006105c4838361063c565b90505b92915050565b6105e3336000356001600160e01b0319166105b8565b610630576040805162461bcd60e51b8152602060048201526019602482015278185d5d1a0b58da1958dad95c8b5d5b985d5d1a1bdc9a5e9959603a1b604482015290519081900360640190fd5b610639816106eb565b50565b600080546001600160a01b0316610655575060006105c7565b6000546040805163b700961360e01b81526001600160a01b0386811660048301523060248301526001600160e01b0319861660448301529151919092169163b7009613916064808301926020929190829003018186803b1580156106b857600080fd5b505afa1580156106cc573d6000803e3d6000fd5b505050506040513d60208110156106e257600080fd5b50519392505050565b600080546001600160a01b0319166001600160a01b0383169081178255604051909133917fa1a6a6164848fdba82d01d50ad73927295d9d4ccfba42020625dd3d7320673909190a35056fea265627a7a72305820cd593a7aa4d03f8e092b74bab14992892c8a1093ce64846c068693e116e8dce464736f6c634300050a0032",
  "source": "pragma solidity ^0.5.10;\n\nimport \"../permissions/AuthChecker.sol\";\n\nimport \"./Bootstrapper.sol\";\n\n/**\n* @title Factory\n* @author Disberse LTD\n* @notice A CREATE2 contract factory. Specifically intended to deploy contracts\n* with indeterminate init code. Deployment pattern based on ideas from\n* https://blog.ricmoo.com/wisps-the-magical-world-of-create2-5c2177027604\n*/\ncontract Factory is AuthChecker {\n\n    /////\n    // State data\n    /////\n\n    // the address that contains the runtimeCode. The initCode should call back\n    // into this contract with findBootstrapper(), then call bootstrap() on\n    // the returned address to get the runtime code that should be deployed\n    // at the create2 address\n    address public bootstrapperAddr;\n\n    // the init code to deploy\n    bytes public initCode;\n\n    /////\n    // Events\n    /////\n\n    event Deploy(\n        address indexed src,    // sender of the deploy tx\n        address indexed dst,    // new contract address\n        bytes32 indexed salt    // salt used to deploy contract\n    );\n\n    /////\n    // Constructor\n    /////\n\n    /**\n    * @dev Constructor\n    * @param _bootstrapperAddr Address of the bootstrapper contract that holds\n    * the desired runtime code for deployed contracts\n    * @param _initCode The code to deploy\n    */\n    constructor(\n        address _guard,\n        address _bootstrapperAddr,\n        bytes memory _initCode\n    )\n        public\n        AuthChecker(_guard)\n    {\n        bootstrapperAddr = _bootstrapperAddr;\n        initCode = _initCode;\n    }\n\n    /**\n    * @dev Deploys a contract with CREATE2 using initCode and the supplied salt.\n    * Can only be called by authorized entities\n    * @param _salt The salt that determines the deployed contract address\n    * @return The address of the deployed contract\n    */\n    function deploy(bytes32 _salt)\n        external\n        onlyAuthorized\n        returns (address payable dst)\n    {\n        // copy initcode into memory\n        bytes memory _initCode = initCode;\n        bytes32 deployedCodeHash;\n\n        // deploy contract via create2\n        assembly {\n            // create2(wei to send, initcode offset, initcode length, salt)\n            // init code data starts 32 (0x20) bytes after the _initCode\n            // pointer. Bytes [0, 31] after the pointer contains the length of\n            // the init code data,\n            dst := create2(0, add(_initCode, 0x20), mload(_initCode), _salt)\n\n            // check that code is deployed at the address (create2 succeeded)\n            if iszero(extcodesize(dst)) {\n                revert(0, 0)\n            }\n\n            // get the hash of the newly deployed code\n            deployedCodeHash := extcodehash(dst)\n        }\n\n        // confirm that the correct runtime code is deployed\n        bytes32 bootstrapCodeHash = keccak256(\n            Bootstrapper(bootstrapperAddr).bootstrap()\n        );\n        require(deployedCodeHash == bootstrapCodeHash, \"factory-deployment-failed\");\n\n        emit Deploy(msg.sender, dst, _salt);\n    }\n\n    /**\n    * @dev Changes the bootstrapper address. Only authorized addresses can call.\n    * @param _bootstrapperAddr The new bootstrapper address\n    */\n    function setBootstrapper(address _bootstrapperAddr)\n        external\n        onlyAuthorized\n    {\n        bootstrapperAddr = _bootstrapperAddr;\n    }\n\n    /**\n    * @dev Returns the bootstraper address. This function is redundant, but it's\n    * function signature is hardocded into the deployer bytecode, and it is\n    * kept to avoid bugs should the name of the bootstrapperAddr change.\n    * @return The address of the bootstrapper contract\n    */\n    function findBootstrapper()\n        public\n        view\n        returns (address)\n    {\n        return bootstrapperAddr;\n    }\n\n}\n",
  "sourcePath": "/home/ohm/dev/dsb/smart-contracts/contracts/factory/Factory.sol",
  "compiler": {
    "name": "solc",
    "version": "0.5.10+commit.5a6ea5b1.Emscripten.clang"
  },
  "schemaVersion": "3.0.11",
  "updatedAt": "2019-08-24T22:06:59.790Z",
  "devdoc": {
    "author": "Disberse LTD",
    "methods": {
      "constructor": {
        "details": "Constructor",
        "params": {
          "_bootstrapperAddr": "Address of the bootstrapper contract that holds the desired runtime code for deployed contracts",
          "_initCode": "The code to deploy"
        }
      },
      "deploy(bytes32)": {
        "details": "Deploys a contract with CREATE2 using initCode and the supplied salt. Can only be called by authorized entities",
        "params": {
          "_salt": "The salt that determines the deployed contract address"
        },
        "return": "The address of the deployed contract"
      },
      "findBootstrapper()": {
        "details": "Returns the bootstraper address. This function is redundant, but it's function signature is hardocded into the deployer bytecode, and it is kept to avoid bugs should the name of the bootstrapperAddr change.",
        "return": "The address of the bootstrapper contract"
      },
      "isAuthorized(address,bytes4)": {
        "details": "The check performed by calling `canCall` on the Guard instance. If no Guard instance is configured, function returns false (as a failsafe).",
        "params": {
          "_sig": "The function selector of the function being called.",
          "_src": "The address of the caller."
        },
        "return": "True, if the caller is authorized to make the call."
      },
      "setBootstrapper(address)": {
        "details": "Changes the bootstrapper address. Only authorized addresses can call.",
        "params": {
          "_bootstrapperAddr": "The new bootstrapper address"
        }
      },
      "setGuard(address)": {
        "params": {
          "_guard": "The address of the new Guard instance."
        }
      }
    },
    "title": "Factory"
  },
  "userdoc": {
    "methods": {
      "isAuthorized(address,bytes4)": {
        "notice": "isAuthorized will return `true` if `_src` address can call the function with the `_sig` function selector in the current context (in this contract)."
      },
      "setGuard(address)": {
        "notice": "setGuard will set the new Guard instance. The caller must have permissions to call this function in the current Guard instance."
      }
    },
    "notice": "A CREATE2 contract factory. Specifically intended to deploy contracts with indeterminate init code. Deployment pattern based on ideas from https://blog.ricmoo.com/wisps-the-magical-world-of-create2-5c2177027604"
  }
}