{
  "contractName": "FactoryWrapper",
  "abi": [
    {
      "constant": true,
      "inputs": [],
      "name": "defaultTarget",
      "outputs": [
        {
          "name": "",
          "type": "address"
        }
      ],
      "payable": false,
      "stateMutability": "view",
      "type": "function"
    },
    {
      "constant": true,
      "inputs": [],
      "name": "defaultGuard",
      "outputs": [
        {
          "name": "",
          "type": "address"
        }
      ],
      "payable": false,
      "stateMutability": "view",
      "type": "function"
    },
    {
      "constant": true,
      "inputs": [],
      "name": "defaultGrave",
      "outputs": [
        {
          "name": "",
          "type": "address"
        }
      ],
      "payable": false,
      "stateMutability": "view",
      "type": "function"
    },
    {
      "constant": true,
      "inputs": [],
      "name": "guard",
      "outputs": [
        {
          "name": "",
          "type": "address"
        }
      ],
      "payable": false,
      "stateMutability": "view",
      "type": "function"
    },
    {
      "constant": true,
      "inputs": [],
      "name": "CHAIN_ID",
      "outputs": [
        {
          "name": "",
          "type": "uint256"
        }
      ],
      "payable": false,
      "stateMutability": "view",
      "type": "function"
    },
    {
      "constant": true,
      "inputs": [],
      "name": "factory",
      "outputs": [
        {
          "name": "",
          "type": "address"
        }
      ],
      "payable": false,
      "stateMutability": "view",
      "type": "function"
    },
    {
      "constant": true,
      "inputs": [
        {
          "name": "_src",
          "type": "address"
        },
        {
          "name": "_sig",
          "type": "bytes4"
        }
      ],
      "name": "isAuthorized",
      "outputs": [
        {
          "name": "",
          "type": "bool"
        }
      ],
      "payable": false,
      "stateMutability": "view",
      "type": "function"
    },
    {
      "constant": false,
      "inputs": [
        {
          "name": "_guard",
          "type": "address"
        }
      ],
      "name": "setGuard",
      "outputs": [],
      "payable": false,
      "stateMutability": "nonpayable",
      "type": "function"
    },
    {
      "inputs": [
        {
          "name": "_guard",
          "type": "address"
        },
        {
          "name": "_factory",
          "type": "address"
        },
        {
          "name": "_defaultTarget",
          "type": "address"
        },
        {
          "name": "_defaultGuard",
          "type": "address"
        },
        {
          "name": "_defaultGrave",
          "type": "address"
        }
      ],
      "payable": false,
      "stateMutability": "nonpayable",
      "type": "constructor"
    },
    {
      "anonymous": false,
      "inputs": [
        {
          "indexed": true,
          "name": "sender",
          "type": "address"
        },
        {
          "indexed": true,
          "name": "deployedAddr",
          "type": "address"
        },
        {
          "indexed": true,
          "name": "salt",
          "type": "bytes32"
        }
      ],
      "name": "DeployProxy",
      "type": "event"
    },
    {
      "anonymous": false,
      "inputs": [
        {
          "indexed": true,
          "name": "setBy",
          "type": "address"
        },
        {
          "indexed": true,
          "name": "guard",
          "type": "address"
        }
      ],
      "name": "SetGuard",
      "type": "event"
    },
    {
      "constant": false,
      "inputs": [
        {
          "name": "_salt",
          "type": "bytes32"
        },
        {
          "name": "_threshold",
          "type": "uint256"
        },
        {
          "name": "_signers",
          "type": "address[]"
        }
      ],
      "name": "deployProxy",
      "outputs": [
        {
          "name": "",
          "type": "address"
        }
      ],
      "payable": false,
      "stateMutability": "nonpayable",
      "type": "function"
    },
    {
      "constant": false,
      "inputs": [
        {
          "name": "_defaultTarget",
          "type": "address"
        }
      ],
      "name": "setDefaultTarget",
      "outputs": [],
      "payable": false,
      "stateMutability": "nonpayable",
      "type": "function"
    },
    {
      "constant": false,
      "inputs": [
        {
          "name": "_defaultGuard",
          "type": "address"
        }
      ],
      "name": "setDefaultGuard",
      "outputs": [],
      "payable": false,
      "stateMutability": "nonpayable",
      "type": "function"
    },
    {
      "constant": false,
      "inputs": [
        {
          "name": "_defaultGrave",
          "type": "address"
        }
      ],
      "name": "setDefaultGrave",
      "outputs": [],
      "payable": false,
      "stateMutability": "nonpayable",
      "type": "function"
    }
  ],
  "bytecode": "0x608060405234801561001057600080fd5b50604051610b89380380610b89833981810160405260a081101561003357600080fd5b5080516020820151604083015160608401516080909401519293919290919084610065816001600160e01b036100ba16565b50600180546001600160a01b039586166001600160a01b031991821617909155600280549486169482169490941790935560038054928516928416929092179091556004805491909316911617905550610105565b600080546001600160a01b0319166001600160a01b0383169081178255604051909133917fa1a6a6164848fdba82d01d50ad73927295d9d4ccfba42020625dd3d7320673909190a350565b610a75806101146000396000f3fe608060405234801561001057600080fd5b50600436106100b45760003560e01c806394bf49f41161007157806394bf49f414610137578063b88bf7f41461015d578063c45a01551461020c578063d9972b9614610214578063e19a9dd91461025e578063ea72b87e14610284576100b4565b80630215c402146100b95780632a20521e146100dd578063404cb47f146100e5578063697cf322146100ed5780637ceab3b11461011557806385e1f4d01461011d575b600080fd5b6100c16102aa565b604080516001600160a01b039092168252519081900360200190f35b6100c16102b9565b6100c16102c8565b6101136004803603602081101561010357600080fd5b50356001600160a01b03166102d7565b005b6100c161034e565b61012561035d565b60408051918252519081900360200190f35b6101136004803603602081101561014d57600080fd5b50356001600160a01b0316610363565b6100c16004803603606081101561017357600080fd5b81359160208101359181019060608101604082013564010000000081111561019a57600080fd5b8201836020820111156101ac57600080fd5b803590602001918460208302840111640100000000831117156101ce57600080fd5b9190808060200260200160405190810160405280939291908181526020018383602002808284376000920191909152509295506103da945050505050565b6100c1610756565b61024a6004803603604081101561022a57600080fd5b5080356001600160a01b031690602001356001600160e01b031916610765565b604080519115158252519081900360200190f35b6101136004803603602081101561027457600080fd5b50356001600160a01b031661077a565b6101136004803603602081101561029a57600080fd5b50356001600160a01b03166107db565b6002546001600160a01b031681565b6003546001600160a01b031681565b6004546001600160a01b031681565b6102ed336000356001600160e01b031916610765565b61032c576040805162461bcd60e51b81526020600482015260196024820152600080516020610a21833981519152604482015290519081900360640190fd5b600280546001600160a01b0319166001600160a01b0392909216919091179055565b6000546001600160a01b031681565b61053981565b610379336000356001600160e01b031916610765565b6103b8576040805162461bcd60e51b81526020600482015260196024820152600080516020610a21833981519152604482015290519081900360640190fd5b600380546001600160a01b0319166001600160a01b0392909216919091179055565b60006103f2336000356001600160e01b031916610765565b610431576040805162461bcd60e51b81526020600482015260196024820152600080516020610a21833981519152604482015290519081900360640190fd5b60015460408051630570b74760e31b81526004810187905290516000926001600160a01b031691632b85ba3891602480830192602092919082900301818787803b15801561047e57600080fd5b505af1158015610492573d6000803e3d6000fd5b505050506040513d60208110156104a857600080fd5b505190508060606104b98686610852565b6002546040805163f52cf0f160e01b81526001600160a01b0392831660248201819052600482019283528451604483015284519495509286169363f52cf0f193869390929091829160640190602086019080838360005b83811015610528578181015183820152602001610510565b50505050905090810190601f1680156105555780820380516001836020036101000a031916815260200191505b509350505050600060405180830381600087803b15801561057557600080fd5b505af1158015610589573d6000803e3d6000fd5b505060025460408051636a5c1cc960e11b815290518794506001600160a01b0392831693509184169163d4b8399291600480820192602092909190829003018186803b1580156105d857600080fd5b505afa1580156105ec573d6000803e3d6000fd5b505050506040513d602081101561060257600080fd5b50516001600160a01b031614610656576040805162461bcd60e51b81526020600482015260146024820152731c1c9bde1e4b5d185c99d95d0b5b9bdd0b5cd95d60621b604482015290519081900360640190fd5b6000801b816001600160a01b031663f698da256040518163ffffffff1660e01b815260040160206040518083038186803b15801561069357600080fd5b505afa1580156106a7573d6000803e3d6000fd5b505050506040513d60208110156106bd57600080fd5b50511415610712576040805162461bcd60e51b815260206004820152601d60248201527f70726f78792d646f6d61696e536570617261746f722d6e6f742d736574000000604482015290519081900360640190fd5b60405188906001600160a01b0386169033907f0c7a60c2ba754c8367e3d68abf3167294d930acfcae56847590fd1362713f8dc90600090a450919695505050505050565b6001546001600160a01b031681565b60006107718383610926565b90505b92915050565b610790336000356001600160e01b031916610765565b6107cf576040805162461bcd60e51b81526020600482015260196024820152600080516020610a21833981519152604482015290519081900360640190fd5b6107d8816109d5565b50565b6107f1336000356001600160e01b031916610765565b610830576040805162461bcd60e51b81526020600482015260196024820152600080516020610a21833981519152604482015290519081900360640190fd5b600480546001600160a01b0319166001600160a01b0392909216919091179055565b60045460035460405160248101858152610539604483018190526001600160a01b03948516608484018190529390941660a4830181905260a060648401908152865160c48501528651606096632bfaaf6960e21b968a9691958a9591949193909260e401906020808801910280838360005b838110156108dc5781810151838201526020016108c4565b505050509050019650505050505050604051602081830303815290604052906001600160e01b0319166020820180516001600160e01b038381831617835250505050905092915050565b600080546001600160a01b031661093f57506000610774565b6000546040805163b700961360e01b81526001600160a01b0386811660048301523060248301526001600160e01b0319861660448301529151919092169163b7009613916064808301926020929190829003018186803b1580156109a257600080fd5b505afa1580156109b6573d6000803e3d6000fd5b505050506040513d60208110156109cc57600080fd5b50519392505050565b600080546001600160a01b0319166001600160a01b0383169081178255604051909133917fa1a6a6164848fdba82d01d50ad73927295d9d4ccfba42020625dd3d7320673909190a35056fe617574682d636865636b65722d756e617574686f72697a656400000000000000a265627a7a723058207c2649ac22e5e3b52956a252eb81d1152589cf2fde13d11ae41274fac0e9f9d064736f6c634300050a0032",
  "source": "pragma solidity ^0.5.10;\n\nimport \"../multisig/Multisig.sol\";\nimport \"../multisig/Proxy.sol\";\n\nimport \"./Factory.sol\";\n\n/**\n* @title FactoryWrapper\n* @author Disberse LTD\n* @notice A wrapper contract for atomically deploying and intializing\n* delegatecall proxies. Tightly coupled with both Proxy.sol and Multisig.sol\n*/\ncontract FactoryWrapper is AuthChecker {\n\n    /////\n    // Constant data\n    /////\n\n    // default for Geth private chains\n    uint public constant CHAIN_ID = 1337;\n\n    /////\n    // State data\n    /////\n\n    Factory public factory;         // the contract factory\n    address public defaultTarget;   // the target address for deployed proxies\n    address public defaultGuard;    // the guard address for deployed proxies\n    address public defaultGrave;    // the grave address for deployed proxies\n\n    /////\n    // Events\n    /////\n\n    event DeployProxy(\n        address indexed sender,         // sender of the deploy tx\n        address indexed deployedAddr,   // new contract address\n        bytes32 indexed salt            // salt used to deploy contract\n    );\n\n\n    /////\n    // Constructor\n    /////\n\n    /**\n    * @dev Constructor\n    * @param _factory The address of the contract factory to \"wrap\"\n    * @param _defaultTarget The target address to pass to the deployed proxies\n    * @param _defaultGuard The guard address to pass to the deployed proxies\n    * @param _defaultGrave The grave address to pass to the deployed proxies\n    */\n    constructor(\n        address _guard,\n        address _factory,\n        address _defaultTarget,\n        address _defaultGuard,\n        address _defaultGrave\n    )\n        public\n        AuthChecker(_guard)\n    {\n        factory = Factory(_factory);\n        defaultTarget = _defaultTarget;\n        defaultGuard = _defaultGuard;\n        defaultGrave = _defaultGrave;\n    }\n\n\n    /////\n    // Public / external functions\n    /////\n\n    /**\n    * @dev Calls `deploy` on the contract factory, then atomically calls\n    * `setup` on the deployed proxy\n    * @param _salt The create2 salt for the contract factory\n    * @param _threshold The signer threshold for the multisig (proxy)\n    * @param _signers The initial signers for the multisig (proxy)\n    * @return The address of the deployed proxy\n    */\n    function deployProxy(\n        bytes32 _salt,\n        uint256 _threshold,\n        address[] memory _signers\n    )\n        public\n        onlyAuthorized\n        returns (address)\n    {\n        address payable proxyAddr = factory.deploy(_salt);\n        Proxy proxy = Proxy(proxyAddr);\n\n        bytes memory setupData = _encodeSetupData(_threshold, _signers);\n\n        proxy.setup(setupData, defaultTarget);\n\n        // sanity checks. We never want to leave this function with an\n        // uninitialized proxy\n        Multisig proxyWithTarget = Multisig(proxyAddr);\n        require(proxyWithTarget.target() == defaultTarget, \"proxy-target-not-set\");\n        require(proxyWithTarget.domainSeparator() != bytes32(0), \"proxy-domainSeparator-not-set\");\n\n        emit DeployProxy(msg.sender, proxyAddr, _salt);\n        return proxyAddr;\n    }\n\n    /**\n    * @dev Changes the default target address\n    * @param _defaultTarget The new default target address\n    */\n    function setDefaultTarget(address _defaultTarget) public onlyAuthorized {\n        defaultTarget = _defaultTarget;\n    }\n\n    /**\n    * @dev Changes the default guard address\n    * @param _defaultGuard The new default guard address\n    */\n    function setDefaultGuard(address _defaultGuard) public onlyAuthorized {\n        defaultGuard = _defaultGuard;\n    }\n\n    /**\n    * @dev Changes the default grave address\n    * @param _defaultGrave The new default grave address\n    */\n    function setDefaultGrave(address _defaultGrave) public onlyAuthorized {\n        defaultGrave = _defaultGrave;\n    }\n\n    /////\n    // Internal functions\n    /////\n\n    /**\n    * @dev Encodes the _forwardData for the Multisig `setup` function for\n    * inclusion in the call to the Proxy `setup` function\n    * @param _threshold The signer threshold for the multisig (proxy)\n    * @param _signers The initial signers for the multisig (proxy)\n    */\n    function _encodeSetupData(uint _threshold, address[] memory _signers)\n        internal\n        view\n        returns (bytes memory)\n    {\n        return abi.encodeWithSelector(\n            // the destination address does not change the function selector\n            Multisig(address(0)).setup.selector,\n            _threshold,\n            CHAIN_ID,\n            _signers,\n            defaultGrave,\n            defaultGuard\n        );\n    }\n\n}\n",
  "sourcePath": "/home/ohm/dev/dsb/smart-contracts/contracts/factory/FactoryWrapper.sol",
  "compiler": {
    "name": "solc",
    "version": "0.5.10+commit.5a6ea5b1.Emscripten.clang"
  },
  "schemaVersion": "3.0.11",
  "updatedAt": "2019-08-24T22:06:59.808Z",
  "devdoc": {
    "author": "Disberse LTD",
    "methods": {
      "constructor": {
        "details": "Constructor",
        "params": {
          "_defaultGrave": "The grave address to pass to the deployed proxies",
          "_defaultGuard": "The guard address to pass to the deployed proxies",
          "_defaultTarget": "The target address to pass to the deployed proxies",
          "_factory": "The address of the contract factory to \"wrap\""
        }
      },
      "deployProxy(bytes32,uint256,address[])": {
        "details": "Calls `deploy` on the contract factory, then atomically calls `setup` on the deployed proxy",
        "params": {
          "_salt": "The create2 salt for the contract factory",
          "_signers": "The initial signers for the multisig (proxy)",
          "_threshold": "The signer threshold for the multisig (proxy)"
        },
        "return": "The address of the deployed proxy"
      },
      "isAuthorized(address,bytes4)": {
        "details": "The check performed by calling `canCall` on the Guard instance. If no Guard instance is configured, function returns false (as a failsafe).",
        "params": {
          "_sig": "The function selector of the function being called.",
          "_src": "The address of the caller."
        },
        "return": "True, if the caller is authorized to make the call."
      },
      "setDefaultGrave(address)": {
        "details": "Changes the default grave address",
        "params": {
          "_defaultGrave": "The new default grave address"
        }
      },
      "setDefaultGuard(address)": {
        "details": "Changes the default guard address",
        "params": {
          "_defaultGuard": "The new default guard address"
        }
      },
      "setDefaultTarget(address)": {
        "details": "Changes the default target address",
        "params": {
          "_defaultTarget": "The new default target address"
        }
      },
      "setGuard(address)": {
        "params": {
          "_guard": "The address of the new Guard instance."
        }
      }
    },
    "title": "FactoryWrapper"
  },
  "userdoc": {
    "methods": {
      "isAuthorized(address,bytes4)": {
        "notice": "isAuthorized will return `true` if `_src` address can call the function with the `_sig` function selector in the current context (in this contract)."
      },
      "setGuard(address)": {
        "notice": "setGuard will set the new Guard instance. The caller must have permissions to call this function in the current Guard instance."
      }
    },
    "notice": "A wrapper contract for atomically deploying and intializing delegatecall proxies. Tightly coupled with both Proxy.sol and Multisig.sol"
  }
}