{
  "contractName": "Grave",
  "abi": [
    {
      "constant": true,
      "inputs": [
        {
          "name": "",
          "type": "address"
        }
      ],
      "name": "balances",
      "outputs": [
        {
          "name": "",
          "type": "uint256"
        }
      ],
      "payable": false,
      "stateMutability": "view",
      "type": "function"
    },
    {
      "payable": true,
      "stateMutability": "payable",
      "type": "fallback"
    },
    {
      "constant": false,
      "inputs": [],
      "name": "withdraw",
      "outputs": [],
      "payable": false,
      "stateMutability": "nonpayable",
      "type": "function"
    }
  ],
  "bytecode": "0x608060405234801561001057600080fd5b506101a4806100206000396000f3fe6080604052600436106100295760003560e01c806327e235e31461005b5780633ccfd60b146100a0575b33600090815260208190526040902054610049903463ffffffff6100b716565b33600090815260208190526040902055005b34801561006757600080fd5b5061008e6004803603602081101561007e57600080fd5b50356001600160a01b0316610118565b60408051918252519081900360200190f35b3480156100ac57600080fd5b506100b561012a565b005b600082820183811015610111576040805162461bcd60e51b815260206004820152601b60248201527f536166654d6174683a206164646974696f6e206f766572666c6f770000000000604482015290519081900360640190fd5b9392505050565b60006020819052908152604090205481565b33600081815260208190526040808220805490839055905190929183156108fc02918491818181858888f1935050505015801561016b573d6000803e3d6000fd5b505056fea265627a7a7230582010958b02d3b48fe43a241f9521afcc5af3d4e008f1166e1ae829b9a173f0aad364736f6c634300050a0032",
  "source": "pragma solidity ^0.5.10;\n\nimport \"../libraries/SafeMath.sol\";\n\n/**\n* @title Grave\n* @author Disberse LTD\n* @notice Allows addresses to deposit their funds to be claimed at a later time. Used to safely hold\n* ether released from a self-destructed contract.\n*/\ncontract Grave {\n\n    using SafeMath for uint256;\n\n    // Mapping: owner => balance.\n    mapping (address => uint256) public balances;\n\n    /////\n    // Fallback function:\n    /////\n\n    /**\n     * @dev Fallback function. Adds `msg.value` to the sender's ether balance.\n    */\n    function ()\n        external\n        payable\n    {\n        balances[msg.sender] = balances[msg.sender].add(msg.value);\n    }\n\n    /////\n    // External functions:\n    /////\n\n    /**\n     * @notice Withdraw all funds from the contract. Funds cannot be incrementally withdrawn.\n    */\n    function withdraw()\n        external\n    {\n        uint256 balance = balances[msg.sender];\n        balances[msg.sender] = 0;\n        msg.sender.transfer(balance);\n    }\n\n}\n",
  "sourcePath": "/home/ohm/dev/dsb/smart-contracts/contracts/lifecycle/Grave.sol",
  "compiler": {
    "name": "solc",
    "version": "0.5.10+commit.5a6ea5b1.Emscripten.clang"
  },
  "schemaVersion": "3.0.11",
  "updatedAt": "2019-08-24T22:06:59.810Z",
  "devdoc": {
    "author": "Disberse LTD",
    "methods": {},
    "title": "Grave"
  },
  "userdoc": {
    "methods": {
      "withdraw()": {
        "notice": "Withdraw all funds from the contract. Funds cannot be incrementally withdrawn."
      }
    },
    "notice": "Allows addresses to deposit their funds to be claimed at a later time. Used to safely hold ether released from a self-destructed contract."
  }
}