{
  "contractName": "Guard",
  "abi": [
    {
      "constant": true,
      "inputs": [],
      "name": "ALL",
      "outputs": [
        {
          "name": "",
          "type": "bytes32"
        }
      ],
      "payable": false,
      "stateMutability": "view",
      "type": "function"
    },
    {
      "constant": true,
      "inputs": [],
      "name": "guard",
      "outputs": [
        {
          "name": "",
          "type": "address"
        }
      ],
      "payable": false,
      "stateMutability": "view",
      "type": "function"
    },
    {
      "constant": true,
      "inputs": [
        {
          "name": "_src",
          "type": "address"
        },
        {
          "name": "_sig",
          "type": "bytes4"
        }
      ],
      "name": "isAuthorized",
      "outputs": [
        {
          "name": "",
          "type": "bool"
        }
      ],
      "payable": false,
      "stateMutability": "view",
      "type": "function"
    },
    {
      "constant": false,
      "inputs": [
        {
          "name": "_guard",
          "type": "address"
        }
      ],
      "name": "setGuard",
      "outputs": [],
      "payable": false,
      "stateMutability": "nonpayable",
      "type": "function"
    },
    {
      "anonymous": false,
      "inputs": [
        {
          "indexed": false,
          "name": "src",
          "type": "bytes32"
        },
        {
          "indexed": false,
          "name": "dst",
          "type": "bytes32"
        },
        {
          "indexed": false,
          "name": "sig",
          "type": "bytes32"
        }
      ],
      "name": "LogPermit",
      "type": "event"
    },
    {
      "anonymous": false,
      "inputs": [
        {
          "indexed": false,
          "name": "src",
          "type": "bytes32"
        },
        {
          "indexed": false,
          "name": "dst",
          "type": "bytes32"
        },
        {
          "indexed": false,
          "name": "sig",
          "type": "bytes32"
        }
      ],
      "name": "LogForbid",
      "type": "event"
    },
    {
      "anonymous": false,
      "inputs": [
        {
          "indexed": true,
          "name": "setBy",
          "type": "address"
        },
        {
          "indexed": true,
          "name": "guard",
          "type": "address"
        }
      ],
      "name": "SetGuard",
      "type": "event"
    },
    {
      "constant": true,
      "inputs": [
        {
          "name": "src",
          "type": "bytes32"
        },
        {
          "name": "dst",
          "type": "bytes32"
        },
        {
          "name": "sig",
          "type": "bytes32"
        }
      ],
      "name": "_isAuthorized",
      "outputs": [
        {
          "name": "",
          "type": "bool"
        }
      ],
      "payable": false,
      "stateMutability": "view",
      "type": "function"
    },
    {
      "constant": false,
      "inputs": [
        {
          "name": "_src",
          "type": "address"
        },
        {
          "name": "_dst",
          "type": "address"
        },
        {
          "name": "_sig",
          "type": "bytes32"
        }
      ],
      "name": "permit",
      "outputs": [],
      "payable": false,
      "stateMutability": "nonpayable",
      "type": "function"
    },
    {
      "constant": false,
      "inputs": [
        {
          "name": "_src",
          "type": "bytes32"
        },
        {
          "name": "_dst",
          "type": "bytes32"
        },
        {
          "name": "_sig",
          "type": "bytes32"
        }
      ],
      "name": "permit",
      "outputs": [],
      "payable": false,
      "stateMutability": "nonpayable",
      "type": "function"
    },
    {
      "constant": false,
      "inputs": [
        {
          "name": "_src",
          "type": "address"
        },
        {
          "name": "_dst",
          "type": "address"
        },
        {
          "name": "_sig",
          "type": "bytes32"
        }
      ],
      "name": "forbid",
      "outputs": [],
      "payable": false,
      "stateMutability": "nonpayable",
      "type": "function"
    },
    {
      "constant": false,
      "inputs": [
        {
          "name": "_src",
          "type": "bytes32"
        },
        {
          "name": "_dst",
          "type": "bytes32"
        },
        {
          "name": "_sig",
          "type": "bytes32"
        }
      ],
      "name": "forbid",
      "outputs": [],
      "payable": false,
      "stateMutability": "nonpayable",
      "type": "function"
    },
    {
      "constant": true,
      "inputs": [
        {
          "name": "_src",
          "type": "address"
        },
        {
          "name": "_dst",
          "type": "address"
        },
        {
          "name": "_sig",
          "type": "bytes32"
        }
      ],
      "name": "canCall",
      "outputs": [
        {
          "name": "",
          "type": "bool"
        }
      ],
      "payable": false,
      "stateMutability": "view",
      "type": "function"
    }
  ],
  "bytecode": "0x608060405234801561001057600080fd5b50610811806100206000396000f3fe608060405234801561001057600080fd5b506004361061009e5760003560e01c80637ceab3b1116100665780637ceab3b114610191578063cbeea68c146101b5578063d9972b96146101eb578063e19a9dd914610221578063f0217ce5146102475761009e565b80631b8651a8146100a35780632bc3217d146100e05780632f7df53614610118578063435f0d411461014e57806379d88d8714610168575b600080fd5b6100cc600480360360608110156100b957600080fd5b5080359060208101359060400135610270565b604080519115158252519081900360200190f35b610116600480360360608110156100f657600080fd5b506001600160a01b0381358116916020810135909116906040013561043a565b005b6100cc6004803603606081101561012e57600080fd5b506001600160a01b03813581169160208101359091169060400135610464565b61015661048b565b60408051918252519081900360200190f35b6101166004803603606081101561017e57600080fd5b5080359060208101359060400135610491565b61019961049c565b604080516001600160a01b039092168252519081900360200190f35b610116600480360360608110156101cb57600080fd5b506001600160a01b038135811691602081013590911690604001356104ab565b6100cc6004803603604081101561020157600080fd5b5080356001600160a01b031690602001356001600160e01b0319166104d0565b6101166004803603602081101561023757600080fd5b50356001600160a01b0316610581565b6101166004803603606081101561025d57600080fd5b508035906020810135906040013561062f565b6000838152600160209081526040808320858452825280832084845290915281205460ff16806102c3575060008481526001602090815260408083208684528252808320600019845290915290205460ff165b806102f1575060008481526001602090815260408083206000198452825280832085845290915290205460ff165b8061031c575060008481526001602090815260408083206000198452825280832090915290205460ff165b8061035f575060008381527fc39d774f18115b85b81494d65e588b565d73abc969333d1da7b0a0eb0729accd6020908152604080832085845290915290205460ff165b806103a4575060008381527fc39d774f18115b85b81494d65e588b565d73abc969333d1da7b0a0eb0729accd60209081526040808320600019845290915290205460ff165b806103dc575060008281527fa69da7c51cf120814a577061805cfa0d34c7e3ccc66913b263afbf2923e8084b602052604090205460ff165b8061043257506000196000527fa69da7c51cf120814a577061805cfa0d34c7e3ccc66913b263afbf2923e8084b6020527f2aebd1e360f4a0e48dc551a62792fe4410f47ec346976f6377d87a293e44de0a5460ff165b949350505050565b61045f8360601b6001600160601b0319168360601b6001600160601b0319168361063a565b505050565b60006104328460601b6001600160601b0319168460601b6001600160601b03191684610270565b60001981565b61045f83838361063a565b6000546001600160a01b031681565b61045f8360601b6001600160601b0319168360601b6001600160601b03191683610709565b600080546001600160a01b03166104e95750600061057b565b6000546040805163b700961360e01b81526001600160a01b0386811660048301523060248301526001600160e01b0319861660448301529151919092169163b7009613916064808301926020929190829003018186803b15801561054c57600080fd5b505afa158015610560573d6000803e3d6000fd5b505050506040513d602081101561057657600080fd5b505190505b92915050565b610597336000356001600160e01b0319166104d0565b6105e4576040805162461bcd60e51b8152602060048201526019602482015278185d5d1a0b58da1958dad95c8b5d5b985d5d1a1bdc9a5e9959603a1b604482015290519081900360640190fd5b600080546001600160a01b0319166001600160a01b0383169081178255604051909133917fa1a6a6164848fdba82d01d50ad73927295d9d4ccfba42020625dd3d7320673909190a350565b61045f838383610709565b610650336000356001600160e01b0319166104d0565b61069d576040805162461bcd60e51b8152602060048201526019602482015278185d5d1a0b58da1958dad95c8b5d5b985d5d1a1bdc9a5e9959603a1b604482015290519081900360640190fd5b60008381526001602090815260408083208584528252808320848452825291829020805460ff19169055815185815290810184905280820183905290517f95ba64c95d85e67ac83a0476c4a62ac2cf8ab2d0407545b8c9d79c3eefa628299181900360600190a1505050565b61071f336000356001600160e01b0319166104d0565b61076c576040805162461bcd60e51b8152602060048201526019602482015278185d5d1a0b58da1958dad95c8b5d5b985d5d1a1bdc9a5e9959603a1b604482015290519081900360640190fd5b60008381526001602081815260408084208685528252808420858552825292839020805460ff1916909217909155815185815290810184905280820183905290517f6f50375045128971c5469d343039ba7b8e30a5b190453737b28bda6f7a3067719181900360600190a150505056fea265627a7a7230582053f141b8af151d02befc02ca81d64e08b30b3591e2d451b2cd2c93a925f4091864736f6c634300050a0032",
  "source": "pragma solidity ^0.5.10;\n\nimport \"./AuthChecker.sol\";\n\ncontract Guard is AuthChecker {\n\n    /////\n    // Constants:\n    /////\n\n    /**\n     * @dev Permission for ALL actions is marked by 0xFF...FF\n     */\n    bytes32 constant public ALL = bytes32(uint(-1));\n\n    /////\n    // Contract storage:\n    /////\n\n    /**\n     * @dev `acl` is the access control ledger. It is a multimap keyed by:\n     * - `src`: the address of the *caller* that is checking if it canCall\n     * - `dst`: the address of the *called* contract in which context the canCall is being checked\n     * - `sig`: the function *signature* that `_src` wants to call in the context of `dst`\n     */\n    mapping (bytes32 => mapping (bytes32 => mapping (bytes32 => bool))) internal acl;\n\n    /////\n    // Events:\n    /////\n\n    /**\n     * @notice Emit when a permission is granted in the ACL.\n     * @param src The address that is granted the permission.\n     * @param dst The context (contract) in which the permission is granted.\n     * @param sig The signature of the permission which is granted.\n     */\n    event LogPermit(\n        bytes32 src,\n        bytes32 dst,\n        bytes32 sig\n    );\n\n    /**\n     * @notice Emit when a permission is revoked in the ACL.\n     * @param src The address that has the permission revoked.\n     * @param dst The context (contract) in which the permission is granted.\n     * @param sig The signature of the permission which is granted.\n     */\n    event LogForbid(\n        bytes32 src,\n        bytes32 dst,\n        bytes32 sig\n    );\n\n    /////\n    // Internal functions:\n    /////\n\n    /**\n     * @notice Returns true if `src` is authorized to perofm `sig` in the `dst` contract, false otherwise.\n     * @param src The address that is being checked.\n     * @param dst The context (contract) in which the check is performed.\n     * @param sig The signature of the permission which is checked against.\n     */\n    function _isAuthorized(bytes32 src, bytes32 dst, bytes32 sig)\n        public\n        view\n        returns (bool)\n    {\n        return acl[src][dst][sig]\n            || acl[src][dst][ALL]\n            || acl[src][ALL][sig]\n            || acl[src][ALL][ALL]\n            || acl[ALL][dst][sig]\n            || acl[ALL][dst][ALL]\n            || acl[ALL][ALL][sig]\n            || acl[ALL][ALL][ALL];\n    }\n\n    /**\n     * @notice Grants permission to `src` to perform `sig` in the `dst` contract.\n     * @param _src The address that is granted permission.\n     * @param _dst The context (contract) in which the permission is granted.\n     * @param _sig The signature of the permission that is granted.\n     */\n    function _permit(bytes32 _src, bytes32 _dst, bytes32 _sig)\n        internal\n        onlyAuthorized\n    {\n        acl[_src][_dst][_sig] = true;\n        emit LogPermit(_src, _dst, _sig);\n    }\n\n    /**\n     * @notice Revokes permission from `src` to perform `sig` in the `dst` contract.\n     * @param _src The address that has permission revoked.\n     * @param _dst The context (contract) in which the permission is revoked.\n     * @param _sig The signature of the permission that is revoked.\n     */\n    function _forbid(bytes32 _src, bytes32 _dst, bytes32 _sig)\n        internal\n        onlyAuthorized\n    {\n        acl[_src][_dst][_sig] = false;\n        emit LogForbid(_src, _dst, _sig);\n    }\n\n    /////\n    // Public functions:\n    /////\n\n    /**\n     * @notice Grants permission to `src` to perform `sig` in the `dst` contract.\n     * @param _src The address that is granted permission.\n     * @param _dst The context (contract) in which the permission is granted.\n     * @param _sig The signature of the permission that is granted.\n     */\n    function permit(bytes32 _src, bytes32 _dst, bytes32 _sig)\n        public\n    {\n        _permit(_src, _dst, _sig);\n    }\n\n    /**\n     * @notice Revokes permission from `src` to perform `sig` in the `dst` contract.\n     * @param _src The address that has permission revoked.\n     * @param _dst The context (contract) in which the permission is revoked.\n     * @param _sig The signature of the permission that is revoked.\n     */\n    function forbid(bytes32 _src, bytes32 _dst, bytes32 _sig)\n        public\n    {\n        _forbid(_src, _dst, _sig);\n    }\n\n    /**\n     * @notice Grants permission to `src` to perform `sig` in the `dst` contract.\n     * @param _src The address that is granted permission.\n     * @param _dst The context (contract) in which the permission is granted.\n     * @param _sig The signature of the permission that is granted.\n     */\n    function permit(address _src, address _dst, bytes32 _sig)\n        public\n    {\n        _permit(bytes20(_src), bytes20(_dst), _sig);\n    }\n\n    /**\n     * @notice Revokes permission from `src` to perform `sig` in the `dst` contract.\n     * @param _src The address that has permission revoked.\n     * @param _dst The context (contract) in which the permission is revoked.\n     * @param _sig The signature of the permission that is revoked.\n     */\n    function forbid(address _src, address _dst, bytes32 _sig)\n        public\n    {\n        _forbid(bytes20(_src), bytes20(_dst), _sig);\n    }\n\n    /////\n    // Public view functions:\n    /////\n\n    /**\n     * @notice Returns true if `src` can call the function with signture `sig` in the `dst` contract, false otherwise.\n     * @param _src The address that is being checked.\n     * @param _dst The context (contract) in which the check is performed.\n     * @param _sig The signature of the function which is being against.\n     */\n    function canCall(address _src, address _dst, bytes32 _sig)\n        public\n        view\n        returns (bool)\n    {\n        return _isAuthorized(bytes20(_src), bytes20(_dst), _sig);\n    }\n}\n",
  "sourcePath": "/home/ohm/dev/dsb/smart-contracts/contracts/src/Guard.sol",
  "compiler": {
    "name": "solc",
    "version": "0.5.10+commit.5a6ea5b1.Emscripten.clang"
  },
  "schemaVersion": "3.0.9",
  "updatedAt": "2019-07-24T23:32:57.276Z",
  "devdoc": {
    "methods": {
      "_isAuthorized(bytes32,bytes32,bytes32)": {
        "params": {
          "dst": "The context (contract) in which the check is performed.",
          "sig": "The signature of the permission which is checked against.",
          "src": "The address that is being checked."
        }
      },
      "canCall(address,address,bytes32)": {
        "params": {
          "_dst": "The context (contract) in which the check is performed.",
          "_sig": "The signature of the function which is being against.",
          "_src": "The address that is being checked."
        }
      },
      "forbid(address,address,bytes32)": {
        "params": {
          "_dst": "The context (contract) in which the permission is revoked.",
          "_sig": "The signature of the permission that is revoked.",
          "_src": "The address that has permission revoked."
        }
      },
      "forbid(bytes32,bytes32,bytes32)": {
        "params": {
          "_dst": "The context (contract) in which the permission is revoked.",
          "_sig": "The signature of the permission that is revoked.",
          "_src": "The address that has permission revoked."
        }
      },
      "isAuthorized(address,bytes4)": {
        "details": "The check is based on calling `canCall` on the Guard instance. The contract is allowed to call it's own internal methods. If no Guard instance is set, function returns false (as a failsafe).",
        "params": {
          "_sig": "The function selector of the function being called.",
          "_src": "The address of the caller."
        },
        "return": "True, if the caller is authorized to make the call, false otherwise."
      },
      "permit(address,address,bytes32)": {
        "params": {
          "_dst": "The context (contract) in which the permission is granted.",
          "_sig": "The signature of the permission that is granted.",
          "_src": "The address that is granted permission."
        }
      },
      "permit(bytes32,bytes32,bytes32)": {
        "params": {
          "_dst": "The context (contract) in which the permission is granted.",
          "_sig": "The signature of the permission that is granted.",
          "_src": "The address that is granted permission."
        }
      },
      "setGuard(address)": {
        "params": {
          "_guard": "The address of the new Guard instance."
        }
      }
    }
  },
  "userdoc": {
    "methods": {
      "_isAuthorized(bytes32,bytes32,bytes32)": {
        "notice": "Returns true if `src` is authorized to perofm `sig` in the `dst` contract, false otherwise."
      },
      "canCall(address,address,bytes32)": {
        "notice": "Returns true if `src` can call the function with signture `sig` in the `dst` contract, false otherwise."
      },
      "forbid(address,address,bytes32)": {
        "notice": "Revokes permission from `src` to perform `sig` in the `dst` contract."
      },
      "forbid(bytes32,bytes32,bytes32)": {
        "notice": "Revokes permission from `src` to perform `sig` in the `dst` contract."
      },
      "isAuthorized(address,bytes4)": {
        "notice": "isAuthorized will return `true` if `_src` address can call the function with the `_sig` function selector in the current context (in this contract)."
      },
      "permit(address,address,bytes32)": {
        "notice": "Grants permission to `src` to perform `sig` in the `dst` contract."
      },
      "permit(bytes32,bytes32,bytes32)": {
        "notice": "Grants permission to `src` to perform `sig` in the `dst` contract."
      },
      "setGuard(address)": {
        "notice": "setGuard will set the new Guard instance. The caller must have permissions to call this function in the current Guard instance."
      }
    }
  }
}