{
  "contractName": "Identity",
  "abi": [
    {
      "constant": true,
      "inputs": [],
      "name": "RECOVERY_BUCKET",
      "outputs": [
        {
          "name": "",
          "type": "uint256"
        }
      ],
      "payable": false,
      "stateMutability": "view",
      "type": "function"
    },
    {
      "constant": true,
      "inputs": [],
      "name": "initialized",
      "outputs": [
        {
          "name": "",
          "type": "bool"
        }
      ],
      "payable": false,
      "stateMutability": "view",
      "type": "function"
    },
    {
      "constant": true,
      "inputs": [
        {
          "name": "",
          "type": "address"
        },
        {
          "name": "",
          "type": "uint256"
        }
      ],
      "name": "confirmed",
      "outputs": [
        {
          "name": "",
          "type": "bool"
        }
      ],
      "payable": false,
      "stateMutability": "view",
      "type": "function"
    },
    {
      "constant": true,
      "inputs": [
        {
          "name": "",
          "type": "address"
        }
      ],
      "name": "buckets",
      "outputs": [
        {
          "name": "",
          "type": "uint256"
        }
      ],
      "payable": false,
      "stateMutability": "view",
      "type": "function"
    },
    {
      "constant": true,
      "inputs": [],
      "name": "guard",
      "outputs": [
        {
          "name": "",
          "type": "address"
        }
      ],
      "payable": false,
      "stateMutability": "view",
      "type": "function"
    },
    {
      "constant": true,
      "inputs": [],
      "name": "grave",
      "outputs": [
        {
          "name": "",
          "type": "address"
        }
      ],
      "payable": false,
      "stateMutability": "view",
      "type": "function"
    },
    {
      "constant": true,
      "inputs": [],
      "name": "nonce",
      "outputs": [
        {
          "name": "",
          "type": "uint256"
        }
      ],
      "payable": false,
      "stateMutability": "view",
      "type": "function"
    },
    {
      "constant": true,
      "inputs": [
        {
          "name": "",
          "type": "uint256"
        }
      ],
      "name": "thresholds",
      "outputs": [
        {
          "name": "",
          "type": "uint256"
        }
      ],
      "payable": false,
      "stateMutability": "view",
      "type": "function"
    },
    {
      "constant": true,
      "inputs": [
        {
          "name": "_src",
          "type": "address"
        },
        {
          "name": "_sig",
          "type": "bytes4"
        }
      ],
      "name": "isAuthorized",
      "outputs": [
        {
          "name": "",
          "type": "bool"
        }
      ],
      "payable": false,
      "stateMutability": "view",
      "type": "function"
    },
    {
      "constant": true,
      "inputs": [
        {
          "name": "",
          "type": "address"
        },
        {
          "name": "",
          "type": "uint256"
        }
      ],
      "name": "signers",
      "outputs": [
        {
          "name": "",
          "type": "bool"
        }
      ],
      "payable": false,
      "stateMutability": "view",
      "type": "function"
    },
    {
      "constant": false,
      "inputs": [
        {
          "name": "_guard",
          "type": "address"
        }
      ],
      "name": "setGuard",
      "outputs": [],
      "payable": false,
      "stateMutability": "nonpayable",
      "type": "function"
    },
    {
      "constant": true,
      "inputs": [],
      "name": "MAX_UINT",
      "outputs": [
        {
          "name": "",
          "type": "uint256"
        }
      ],
      "payable": false,
      "stateMutability": "view",
      "type": "function"
    },
    {
      "constant": true,
      "inputs": [
        {
          "name": "",
          "type": "uint256"
        }
      ],
      "name": "txs",
      "outputs": [
        {
          "name": "target",
          "type": "address"
        },
        {
          "name": "value",
          "type": "uint256"
        },
        {
          "name": "confirmations",
          "type": "uint256"
        },
        {
          "name": "data",
          "type": "bytes"
        },
        {
          "name": "executed",
          "type": "bool"
        }
      ],
      "payable": false,
      "stateMutability": "view",
      "type": "function"
    },
    {
      "inputs": [
        {
          "name": "_graveAddr",
          "type": "address"
        }
      ],
      "payable": false,
      "stateMutability": "nonpayable",
      "type": "constructor"
    },
    {
      "anonymous": false,
      "inputs": [],
      "name": "Revoke",
      "type": "event"
    },
    {
      "anonymous": false,
      "inputs": [],
      "name": "AddSigner",
      "type": "event"
    },
    {
      "anonymous": false,
      "inputs": [],
      "name": "RemoveSigner",
      "type": "event"
    },
    {
      "anonymous": false,
      "inputs": [],
      "name": "SelfDestruct",
      "type": "event"
    },
    {
      "anonymous": false,
      "inputs": [],
      "name": "IncreaseThreshold",
      "type": "event"
    },
    {
      "anonymous": false,
      "inputs": [],
      "name": "DecreaseThreshold",
      "type": "event"
    },
    {
      "anonymous": false,
      "inputs": [],
      "name": "Propose",
      "type": "event"
    },
    {
      "anonymous": false,
      "inputs": [],
      "name": "Confirm",
      "type": "event"
    },
    {
      "anonymous": false,
      "inputs": [],
      "name": "Execute",
      "type": "event"
    },
    {
      "anonymous": false,
      "inputs": [],
      "name": "AddTx",
      "type": "event"
    },
    {
      "anonymous": false,
      "inputs": [
        {
          "indexed": true,
          "name": "setBy",
          "type": "address"
        },
        {
          "indexed": true,
          "name": "guard",
          "type": "address"
        }
      ],
      "name": "SetGuard",
      "type": "event"
    },
    {
      "constant": false,
      "inputs": [],
      "name": "kill",
      "outputs": [],
      "payable": false,
      "stateMutability": "nonpayable",
      "type": "function"
    },
    {
      "constant": false,
      "inputs": [
        {
          "name": "signer",
          "type": "address"
        }
      ],
      "name": "init",
      "outputs": [],
      "payable": false,
      "stateMutability": "nonpayable",
      "type": "function"
    },
    {
      "constant": false,
      "inputs": [
        {
          "name": "signer",
          "type": "address"
        },
        {
          "name": "bucket",
          "type": "uint256"
        }
      ],
      "name": "addSigner",
      "outputs": [],
      "payable": false,
      "stateMutability": "nonpayable",
      "type": "function"
    },
    {
      "constant": false,
      "inputs": [
        {
          "name": "signer",
          "type": "address"
        },
        {
          "name": "bucket",
          "type": "uint256"
        }
      ],
      "name": "removeSigner",
      "outputs": [],
      "payable": false,
      "stateMutability": "nonpayable",
      "type": "function"
    },
    {
      "constant": false,
      "inputs": [
        {
          "name": "bucket",
          "type": "uint256"
        }
      ],
      "name": "decreaseThreshold",
      "outputs": [],
      "payable": false,
      "stateMutability": "nonpayable",
      "type": "function"
    },
    {
      "constant": false,
      "inputs": [
        {
          "name": "bucket",
          "type": "uint256"
        }
      ],
      "name": "increaseThreshold",
      "outputs": [],
      "payable": false,
      "stateMutability": "nonpayable",
      "type": "function"
    },
    {
      "constant": false,
      "inputs": [
        {
          "name": "_signer",
          "type": "address"
        },
        {
          "name": "bucket",
          "type": "uint256"
        }
      ],
      "name": "addSignerIncreaseThreshold",
      "outputs": [],
      "payable": false,
      "stateMutability": "nonpayable",
      "type": "function"
    },
    {
      "constant": false,
      "inputs": [
        {
          "name": "_signer",
          "type": "address"
        },
        {
          "name": "bucket",
          "type": "uint256"
        }
      ],
      "name": "removeSignerDecreaseThreshold",
      "outputs": [],
      "payable": false,
      "stateMutability": "nonpayable",
      "type": "function"
    },
    {
      "constant": false,
      "inputs": [
        {
          "name": "bucket",
          "type": "uint256"
        }
      ],
      "name": "burnAccess",
      "outputs": [],
      "payable": false,
      "stateMutability": "nonpayable",
      "type": "function"
    },
    {
      "constant": false,
      "inputs": [
        {
          "name": "target",
          "type": "address"
        },
        {
          "name": "bucket",
          "type": "uint256"
        }
      ],
      "name": "changeBucket",
      "outputs": [],
      "payable": false,
      "stateMutability": "nonpayable",
      "type": "function"
    },
    {
      "constant": false,
      "inputs": [
        {
          "name": "target",
          "type": "address"
        },
        {
          "name": "value",
          "type": "uint256"
        },
        {
          "name": "data",
          "type": "bytes"
        }
      ],
      "name": "propose",
      "outputs": [
        {
          "name": "",
          "type": "uint256"
        }
      ],
      "payable": false,
      "stateMutability": "nonpayable",
      "type": "function"
    },
    {
      "constant": false,
      "inputs": [
        {
          "name": "txId",
          "type": "uint256"
        }
      ],
      "name": "confirm",
      "outputs": [],
      "payable": false,
      "stateMutability": "nonpayable",
      "type": "function"
    },
    {
      "constant": false,
      "inputs": [
        {
          "name": "txId",
          "type": "uint256"
        }
      ],
      "name": "execute",
      "outputs": [],
      "payable": false,
      "stateMutability": "nonpayable",
      "type": "function"
    },
    {
      "constant": true,
      "inputs": [
        {
          "name": "gal",
          "type": "address"
        },
        {
          "name": "bucket",
          "type": "uint256"
        }
      ],
      "name": "isSigner",
      "outputs": [
        {
          "name": "",
          "type": "bool"
        }
      ],
      "payable": false,
      "stateMutability": "view",
      "type": "function"
    },
    {
      "constant": true,
      "inputs": [
        {
          "name": "bucket",
          "type": "uint256"
        }
      ],
      "name": "checkAccess",
      "outputs": [
        {
          "name": "",
          "type": "bool"
        }
      ],
      "payable": false,
      "stateMutability": "view",
      "type": "function"
    },
    {
      "constant": true,
      "inputs": [
        {
          "name": "txId",
          "type": "uint256"
        }
      ],
      "name": "thresholdReached",
      "outputs": [
        {
          "name": "",
          "type": "bool"
        }
      ],
      "payable": false,
      "stateMutability": "view",
      "type": "function"
    }
  ],
  "bytecode": "0x608060405234801561001057600080fd5b506040516116993803806116998339818101604052602081101561003357600080fd5b5051600280546001600160a01b0390921661010002610100600160a81b031990921691909117905561162f8061006a6000396000f3fe608060405234801561001057600080fd5b50600436106101cf5760003560e01c8063790e2f5711610104578063ba0179b5116100a2578063e19a9dd911610071578063e19a9dd9146105b0578063e5b5019a146105d6578063f5715d56146105de578063fe0d94c1146106a5576101cf565b8063ba0179b514610514578063c0598e1a14610531578063d9972b961461054e578063e1326b3414610584576101cf565b8063a41cd034116100de578063a41cd034146104bb578063aa5c5a98146104c3578063affed0e0146104ef578063b6c22611146104f7576101cf565b8063790e2f57146103b05780637ceab3b1146103dc57806393ba3f1514610400576101cf565b80633bad5426116101715780634e46a1e81161014b5780634e46a1e814610315578063517ebdb81461034157806365af1bed146103675780636e583cac14610393576101cf565b80633bad5426146102b557806341c0e1b5146102e15780634514d032146102e9576101cf565b806319ab453c116101ad57806319ab453c1461022757806324797d1b1461024f57806335ee3e1d1461026c57806337d8a96514610298576101cf565b806305f9c597146101d45780630680b41214610205578063158ef93e1461021f575b600080fd5b6101f1600480360360208110156101ea57600080fd5b50356106c2565b604080519115158252519081900360200190f35b61020d6106ff565b60408051918252519081900360200190f35b6101f1610704565b61024d6004803603602081101561023d57600080fd5b50356001600160a01b031661070d565b005b61024d6004803603602081101561026557600080fd5b50356107e6565b61024d6004803603604081101561028257600080fd5b506001600160a01b038135169060200135610831565b61024d600480360360208110156102ae57600080fd5b503561088a565b61024d600480360360408110156102cb57600080fd5b506001600160a01b0381351690602001356108e1565b61024d61092d565b6101f1600480360360408110156102ff57600080fd5b506001600160a01b0381351690602001356109a3565b6101f16004803603604081101561032b57600080fd5b506001600160a01b0381351690602001356109c3565b61020d6004803603602081101561035757600080fd5b50356001600160a01b0316610a18565b61024d6004803603604081101561037d57600080fd5b506001600160a01b038135169060200135610a2a565b6101f1600480360360208110156103a957600080fd5b5035610a76565b61024d600480360360408110156103c657600080fd5b506001600160a01b038135169060200135610a96565b6103e4610af4565b604080516001600160a01b039092168252519081900360200190f35b61020d6004803603606081101561041657600080fd5b6001600160a01b038235169160208101359181019060608101604082013564010000000081111561044657600080fd5b82018360208201111561045857600080fd5b8035906020019184600183028401116401000000008311171561047a57600080fd5b91908080601f016020809104026020016040519081016040528093929190818152602001838380828437600092019190915250929550610b03945050505050565b6103e4610b24565b61024d600480360360408110156104d957600080fd5b506001600160a01b038135169060200135610b38565b61020d610b83565b61020d6004803603602081101561050d57600080fd5b5035610b89565b61024d6004803603602081101561052a57600080fd5b5035610b9b565b61024d6004803603602081101561054757600080fd5b5035610d01565b6101f16004803603604081101561056457600080fd5b5080356001600160a01b031690602001356001600160e01b031916610d4c565b6101f16004803603604081101561059a57600080fd5b506001600160a01b038135169060200135610dfb565b61024d600480360360208110156105c657600080fd5b50356001600160a01b0316610e1b565b61020d610ec9565b6105fb600480360360208110156105f457600080fd5b5035610ecf565b60405180866001600160a01b03166001600160a01b031681526020018581526020018481526020018060200183151515158152602001828103825284818151815260200191508051906020019080838360005b8381101561066657818101518382015260200161064e565b50505050905090810190601f1680156106935780820380516001836020036101000a031916815260200191505b50965050505050505060405180910390f35b61024d600480360360208110156106bb57600080fd5b5035610f96565b600081815260096020818152604080842080546001600160a01b031685526003835281852054855260048352908420549490935252600201541190565b600181565b60025460ff1681565b610723336000356001600160e01b031916610d4c565b610770576040805162461bcd60e51b8152602060048201526019602482015278185d5d1a0b58da1958dad95c8b5d5b985d5d1a1bdc9a5e9959603a1b604482015290519081900360640190fd5b60025460ff16156107c8576040805162461bcd60e51b815260206004820152601c60248201527f6964656e746974792d616c72656164792d696e697469616c697a656400000000604482015290519081900360640190fd5b6002805460ff191660019081179091556107e39082906111a6565b50565b333014610828576040805162461bcd60e51b815260206004820152601660248201526000805160206115db833981519152604482015290519081900360640190fd5b6107e38161122b565b333014610873576040805162461bcd60e51b815260206004820152601660248201526000805160206115db833981519152604482015290519081900360640190fd5b61087d82826111a6565b61088681611287565b5050565b3330146108cc576040805162461bcd60e51b815260206004820152601660248201526000805160206115db833981519152604482015290519081900360640190fd5b60009081526004602052604090206000199055565b333014610923576040805162461bcd60e51b815260206004820152601660248201526000805160206115db833981519152604482015290519081900360640190fd5b6108868282611333565b610943336000356001600160e01b031916610d4c565b610990576040805162461bcd60e51b8152602060048201526019602482015278185d5d1a0b58da1958dad95c8b5d5b985d5d1a1bdc9a5e9959603a1b604482015290519081900360640190fd5b60025461010090046001600160a01b0316ff5b600760209081526000928352604080842090915290825290205460ff1681565b6001600160a01b038216600090815260066020908152604080832084845290915281205460ff168015610a0f57506001600160a01b03831660009081526008602052604090205460ff16155b90505b92915050565b60036020526000908152604090205481565b333014610a6c576040805162461bcd60e51b815260206004820152601660248201526000805160206115db833981519152604482015290519081900360640190fd5b61088682826111a6565b600090815260056020908152604080832054600490925290912054101590565b333014610ad8576040805162461bcd60e51b815260206004820152601660248201526000805160206115db833981519152604482015290519081900360640190fd5b6001600160a01b03909116600090815260036020526040902055565b6000546001600160a01b031681565b600080610b11858585611407565b9050610b1c81610b9b565b949350505050565b60025461010090046001600160a01b031681565b333014610b7a576040805162461bcd60e51b815260206004820152601660248201526000805160206115db833981519152604482015290519081900360640190fd5b6109238161122b565b60015481565b60046020526000908152604090205481565b60008181526009602052604081205482916001600160a01b0390911690308214610bdd576001600160a01b038216600090815260036020526040902054610be0565b60015b9050610bec33826109c3565b610c33576040805162461bcd60e51b815260206004820152601360248201527234b232b73a34ba3c96b737ba16b9b4b3b732b960691b604482015290519081900360640190fd5b33600090815260076020908152604080832086845290915290205460ff1615610ca3576040805162461bcd60e51b815260206004820152601a60248201527f6964656e746974792d616c72656164792d636f6e6669726d6564000000000000604482015290519081900360640190fd5b3360009081526007602090815260408083208784528252808320805460ff19166001908117909155600990925290912060020154610ce69163ffffffff61148816565b60009485526009602052604090942060020193909355505050565b333014610d43576040805162461bcd60e51b815260206004820152601660248201526000805160206115db833981519152604482015290519081900360640190fd5b6107e381611287565b600080546001600160a01b0316610d6557506000610a12565b6000546040805163b700961360e01b81526001600160a01b0386811660048301523060248301526001600160e01b0319861660448301529151919092169163b7009613916064808301926020929190829003018186803b158015610dc857600080fd5b505afa158015610ddc573d6000803e3d6000fd5b505050506040513d6020811015610df257600080fd5b50519392505050565b600660209081526000928352604080842090915290825290205460ff1681565b610e31336000356001600160e01b031916610d4c565b610e7e576040805162461bcd60e51b8152602060048201526019602482015278185d5d1a0b58da1958dad95c8b5d5b985d5d1a1bdc9a5e9959603a1b604482015290519081900360640190fd5b600080546001600160a01b0319166001600160a01b0383169081178255604051909133917fa1a6a6164848fdba82d01d50ad73927295d9d4ccfba42020625dd3d7320673909190a350565b60001981565b600960209081526000918252604091829020805460018083015460028085015460038601805489516101009682161596909602600019011692909204601f81018890048802850188019098528784526001600160a01b03909416969195939493909190830182828015610f835780601f10610f5857610100808354040283529160200191610f83565b820191906000526020600020905b815481529060010190602001808311610f6657829003601f168201915b5050506004909301549192505060ff1685565b6000818152600960205260409020600481015460ff1615610ffe576040805162461bcd60e51b815260206004820152601c60248201527f6964656e746974792d74782d616c72656164792d657865637574656400000000604482015290519081900360640190fd5b6004808201805460ff1916600117905581546001600160a01b0316600090815260036020908152604080832054808452939091529020546002830154101561108d576040805162461bcd60e51b815260206004820152601e60248201527f6964656e746974792d7468726573686f6c642d6e6f742d726561636865640000604482015290519081900360640190fd5b60008260000160009054906101000a90046001600160a01b03166001600160a01b031683600101548460030160405180828054600181600116156101000203166002900480156111145780601f106110f2576101008083540402835291820191611114565b820191906000526020600020905b815481529060010190602001808311611100575b505091505060006040518083038185875af1925050503d8060008114611156576040519150601f19603f3d011682016040523d82523d6000602084013e61115b565b606091505b505090508015611193576040517fb9d2d32c9e5b3a74bb2ccd4d000be39660f9852691248d3b91f49adb1ec00f1990600090a16111a0565b60048301805460ff191690555b50505050565b6000818152600560205260409020546111c690600163ffffffff61148816565b6000828152600560209081526040808320939093556001600160a01b0385168252600681528282208483529052818120805460ff1916600117905590517f8ae1dad1e37babb670eeb6213e63fa23ea5e9ca3b46d2ed9b2eb28cbe31de1d59190a15050565b60008181526004602052604090205461124b90600163ffffffff6114e216565b6000828152600460205260408082209290925590517f5eb2c7528ef1098e22854875373a8a59550f895b96e47a12f8bc6d9fbf1c4e959190a150565b6000818152600460205260409020546112a790600163ffffffff61148816565b6000828152600460205260409020556112bf81610a76565b611307576040805162461bcd60e51b81526020600482015260146024820152736964656e746974792d6d696e2d7369676e65727360601b604482015290519081900360640190fd5b6040517f3ba766559f4f0805cfa1bb87017e140c2557ab0551bf26ebc79682be47f06fb990600090a150565b60008181526005602052604090205461135390600163ffffffff6114e216565b6000828152600560209081526040808320939093556001600160a01b038516825260068152828220848352905220805460ff1916905561139281610a76565b6113da576040805162461bcd60e51b81526020600482015260146024820152736964656e746974792d6d696e2d7369676e65727360601b604482015290519081900360640190fd5b6040517ff7ef09cc0a16fa2b3435dcf8d58ca905da0e505aab635991750694168f28407990600090a15050565b6001805481018082556000908152600960209081526040822080546001600160a01b0319166001600160a01b03881617815592830185905583519192916114569160038401919086019061153f565b506040517ff028e6a4199372e9fc1de2ee1468919795efd79163337ce6a8fa42775838194490600090a1509392505050565b600082820183811015610a0f576040805162461bcd60e51b815260206004820152601b60248201527f536166654d6174683a206164646974696f6e206f766572666c6f770000000000604482015290519081900360640190fd5b600082821115611539576040805162461bcd60e51b815260206004820152601e60248201527f536166654d6174683a207375627472616374696f6e206f766572666c6f770000604482015290519081900360640190fd5b50900390565b828054600181600116156101000203166002900490600052602060002090601f016020900481019282601f1061158057805160ff19168380011785556115ad565b828001600101855582156115ad579182015b828111156115ad578251825591602001919060010190611592565b506115b99291506115bd565b5090565b6115d791905b808211156115b957600081556001016115c3565b9056fe6964656e74697479206f6e6c792d6964656e7469747900000000000000000000a265627a7a72305820ca8622859e71faf8358a51c326dcbad86d4774be95a41880be00069a4a2083f164736f6c634300050a0032",
  "source": "pragma solidity ^0.5.10;\n\nimport \"./AuthChecker.sol\";\nimport \"../lib/SafeMath.sol\";\n\ncontract Identity is AuthChecker {\n\n    // TODO:\n    // - need to add functions to revoke and un-revoke. What to do with signerCount?\n    // - maybe get rid of revoke altogether? You can always filter events to determine auths\n    // - make a single setThreshold() function?\n\n    using SafeMath for uint256;\n\n    /////\n    // Constant data\n    /////\n\n    // bucket 1 is a 'special' bucket in that it is the ability to approve\n    // txs to the address of THIS contract, and therefore to change the authorization\n    // threshold, authorized addresses, etc. called recovery bucket bc control over\n    // any other buckets can always be recovered with control over bucket 1\n    uint public constant RECOVERY_BUCKET = 1;\n    uint public constant MAX_UINT = uint(-1);\n\n\n    /////\n    // State data\n    /////\n\n    uint public nonce;          // no. txs added\n    bool public initialized;    // true after first signer added\n    address payable public grave;       // address to self-destruct to (simple withdrawal contract)\n\n    // target => bucket\n    mapping (address => uint) public buckets;\n    // tx bucket => no. sigs required\n    mapping (uint => uint) public thresholds;\n    // bucket => no. signers\n    mapping (uint => uint) signerCount;\n\n    // user => bucket => isSigner\n    mapping (address => mapping (uint => bool)) public signers;\n    // user => txId => confirmed\n    mapping (address => mapping (uint => bool)) public confirmed;\n    // user => access revoked\n    mapping (address => bool) revoked;\n\n    // txId => Tx\n    mapping (uint => Tx) public txs;\n\n    struct Tx {\n        address target;\n        uint value;\n        uint confirmations;\n        bytes data;\n        bool executed;\n    }\n\n    /////\n    // Events\n    /////\n\n    // TODO\n    event Revoke();\n    event AddSigner();\n    event RemoveSigner();\n    event SelfDestruct();\n    event IncreaseThreshold();\n    event DecreaseThreshold();\n    event Propose();\n    event Confirm();\n    event Execute();\n    event AddTx();\n\n    /////\n    // Modifiers\n    /////\n\n    // used to require confirmations on txs that change the state of this contract\n    modifier onlyIdentity() {\n        require(msg.sender == address(this), \"identity only-identity\");\n        _;\n    }\n\n    modifier validSigner(uint txId) {\n        address _target = txs[txId].target;\n        uint bucket = _target == address(this) ?\n            RECOVERY_BUCKET :\n            buckets[_target];\n        require(isSigner(msg.sender, bucket), \"identity-not-signer\");\n        require(!confirmed[msg.sender][txId], \"identity-already-confirmed\");\n        _;\n    }\n\n    /////\n    // Constructor\n    /////\n    constructor(address payable _graveAddr)\n        public\n    {\n        grave = _graveAddr;\n    }\n\n    /////\n    // Auth functions (disberse)\n    /////\n\n    function kill()\n        public\n        onlyAuthorized\n    {\n        selfdestruct(grave);\n        emit SelfDestruct();\n    }\n\n    /////\n    // Initialization\n    /////\n    // todo: either need to have 2 separate initialization type functions\n    // (one to imitate a constructor and one to set the first signer)\n    // or allow only Disberse to call deploy() on the Factory and take\n    // the first signer as an argument in the initial deployment.\n\n    // allows Disberse to add the first user EOA\n    // todo: this is very close to the same pattern that caused parity hack #2\n    // (init function + proxy patter). Auth should prevent any issues, but need\n    // to give this some extra thought\n    function init(address signer)\n        public\n        onlyAuthorized\n    {\n        require(!initialized, \"identity-already-initialized\");\n        initialized = true;\n        _addSigner(signer, RECOVERY_BUCKET);\n    }\n\n    // bool public constructed;\n    // function construct(bytes32 _authority, bytes32 _grace) public {\n    //     require(!constructed);\n    //     constructed = true;\n\n    //     // set grave\n    //     grave = address(bytes20(_authority));\n\n    //     // seth auth\n    //     authority = DSAuthority(_authority);\n    //     emit LogSetAuthority(_authority);\n    // }\n\n    /////\n    // Identity only functions (for configuration of this identity)\n    /////\n\n    // todo: do these work as external?\n    function addSigner(address signer, uint bucket) external onlyIdentity {\n        _addSigner(signer, bucket);\n    }\n\n    function removeSigner(address signer, uint bucket) external onlyIdentity {\n        _removeSigner(signer, bucket);\n    }\n\n    function decreaseThreshold(uint bucket) external onlyIdentity {\n        _decreaseThreshold(bucket);\n    }\n\n    function increaseThreshold(uint bucket) external onlyIdentity {\n        _increaseThreshold(bucket);\n    }\n\n    // todo: make sure this works\n    function addSignerIncreaseThreshold(address _signer, uint bucket)\n        external\n        onlyIdentity\n    {\n        _addSigner(_signer, bucket);\n        _increaseThreshold(bucket);\n    }\n\n    // todo: make sure this works\n    function removeSignerDecreaseThreshold(address _signer, uint bucket)\n        external\n        onlyIdentity\n    {\n        _decreaseThreshold(bucket);\n        _removeSigner(_signer, bucket);\n    }\n\n    function burnAccess(uint bucket) external onlyIdentity {\n        thresholds[bucket] = MAX_UINT;\n    }\n\n    function changeBucket(address target, uint bucket) external onlyIdentity {\n        buckets[target] = bucket;\n    }\n\n\n\n    /////\n    // Signer functions\n    /////\n\n    // todo: cheaper to read data from memory since it gets passed to _addtx in memory anyway?\n    function propose(address target, uint value, bytes memory data)\n        public\n        returns (uint)\n    {\n        uint txId = _addTx(target, value, data);\n        confirm(txId);\n        return txId;\n    }\n\n    function confirm(uint txId) public validSigner(txId) {\n        confirmed[msg.sender][txId] = true;\n        txs[txId].confirmations = (txs[txId].confirmations).add(1);\n    }\n\n    function execute(uint txId) public {\n        Tx storage _tx = txs[txId];\n        require(!_tx.executed, \"identity-tx-already-executed\");\n        // prevents 'signature reentrancy' where getting sigs on tx once could\n        // result in calling back in while tx is confirmed but not yet\n        // considered executed. reverted if any of the following requires() fail\n        _tx.executed = true;\n\n        uint bucket = buckets[_tx.target];\n        require(_tx.confirmations >= thresholds[bucket], \"identity-threshold-not-reached\");\n        // require(thresholdReached(txId), \"identity-threshold-not-reached\");\n\n        // raw call to tx destination with tx value and data\n        // in the event of failure, do not consider the transaction executed\n        // raw calls now make return data accessible on success. Could be\n        // some situations where this is worth accessing\n        (bool success, ) = _tx.target.call.value(_tx.value)(_tx.data);\n        if (success) {\n            emit Execute();\n        } else {\n            _tx.executed = false;\n        }\n    }\n\n    /////\n    // Internal functions\n    /////\n\n    function _addTx(address _target, uint _value, bytes memory _data)\n        internal\n        returns (uint)\n    {\n        nonce++;\n        Tx storage _tx = txs[nonce];\n        _tx.target = _target;\n        _tx.value = _value;\n        _tx.data = _data;\n        emit AddTx();\n    }\n\n    function _addSigner(address _signer, uint bucket) internal {\n        signerCount[bucket] = signerCount[bucket].add(1);\n        signers[_signer][bucket] = true;\n        emit AddSigner();\n    }\n\n    function _removeSigner(address _signer, uint bucket) internal {\n        signerCount[bucket] = signerCount[bucket].sub(1);\n        signers[_signer][bucket] = false;\n        require(checkAccess(bucket), \"identity-min-signers\");\n        emit RemoveSigner();\n    }\n\n    function _decreaseThreshold(uint bucket) internal {\n        thresholds[bucket] = thresholds[bucket].sub(1);\n        emit DecreaseThreshold();\n    }\n\n    function _increaseThreshold(uint bucket) internal {\n        thresholds[bucket] = thresholds[bucket].add(1);\n        require(checkAccess(bucket), \"identity-min-signers\");\n        emit IncreaseThreshold();\n    }\n\n\n    /////\n    // View functions\n    /////\n\n    function isSigner(address gal, uint bucket) public view returns (bool) {\n        return signers[gal][bucket] && !revoked[gal];\n    }\n\n    function checkAccess(uint bucket) public view returns (bool) {\n        return thresholds[bucket] >= signerCount[bucket];\n    }\n\n    function thresholdReached(uint txId) public view returns (bool) {\n        address target = txs[txId].target;\n        uint bucket = buckets[target];\n        uint threshold = thresholds[bucket];\n        uint confirmations = txs[txId].confirmations;\n        return confirmations > threshold;\n    }\n}\n",
  "sourcePath": "/home/ohm/dev/dsb/smart-contracts/contracts/src/Identity.sol",
  "compiler": {
    "name": "solc",
    "version": "0.5.10+commit.5a6ea5b1.Emscripten.clang"
  },
  "schemaVersion": "3.0.9",
  "updatedAt": "2019-07-24T23:32:57.289Z",
  "devdoc": {
    "methods": {
      "isAuthorized(address,bytes4)": {
        "details": "The check is based on calling `canCall` on the Guard instance. The contract is allowed to call it's own internal methods. If no Guard instance is set, function returns false (as a failsafe).",
        "params": {
          "_sig": "The function selector of the function being called.",
          "_src": "The address of the caller."
        },
        "return": "True, if the caller is authorized to make the call, false otherwise."
      },
      "setGuard(address)": {
        "params": {
          "_guard": "The address of the new Guard instance."
        }
      }
    }
  },
  "userdoc": {
    "methods": {
      "addSigner(address,uint256)": {
        "notice": "//"
      },
      "constructor": "//",
      "init(address)": {
        "notice": "//"
      },
      "isAuthorized(address,bytes4)": {
        "notice": "isAuthorized will return `true` if `_src` address can call the function with the `_sig` function selector in the current context (in this contract)."
      },
      "isSigner(address,uint256)": {
        "notice": "//"
      },
      "kill()": {
        "notice": "//"
      },
      "propose(address,uint256,bytes)": {
        "notice": "//"
      },
      "setGuard(address)": {
        "notice": "setGuard will set the new Guard instance. The caller must have permissions to call this function in the current Guard instance."
      }
    }
  }
}