{
  "contractName": "Killable",
  "abi": [
    {
      "constant": true,
      "inputs": [],
      "name": "guard",
      "outputs": [
        {
          "name": "",
          "type": "address"
        }
      ],
      "payable": false,
      "stateMutability": "view",
      "type": "function"
    },
    {
      "constant": true,
      "inputs": [],
      "name": "grave",
      "outputs": [
        {
          "name": "",
          "type": "address"
        }
      ],
      "payable": false,
      "stateMutability": "view",
      "type": "function"
    },
    {
      "constant": true,
      "inputs": [
        {
          "name": "_src",
          "type": "address"
        },
        {
          "name": "_sig",
          "type": "bytes4"
        }
      ],
      "name": "isAuthorized",
      "outputs": [
        {
          "name": "",
          "type": "bool"
        }
      ],
      "payable": false,
      "stateMutability": "view",
      "type": "function"
    },
    {
      "constant": false,
      "inputs": [
        {
          "name": "_guard",
          "type": "address"
        }
      ],
      "name": "setGuard",
      "outputs": [],
      "payable": false,
      "stateMutability": "nonpayable",
      "type": "function"
    },
    {
      "inputs": [
        {
          "name": "_guard",
          "type": "address"
        }
      ],
      "payable": false,
      "stateMutability": "nonpayable",
      "type": "constructor"
    },
    {
      "anonymous": false,
      "inputs": [
        {
          "indexed": true,
          "name": "grave",
          "type": "address"
        }
      ],
      "name": "SetGrave",
      "type": "event"
    },
    {
      "anonymous": false,
      "inputs": [
        {
          "indexed": true,
          "name": "recipient",
          "type": "address"
        }
      ],
      "name": "Kill",
      "type": "event"
    },
    {
      "anonymous": false,
      "inputs": [
        {
          "indexed": true,
          "name": "setBy",
          "type": "address"
        },
        {
          "indexed": true,
          "name": "guard",
          "type": "address"
        }
      ],
      "name": "SetGuard",
      "type": "event"
    },
    {
      "constant": false,
      "inputs": [
        {
          "name": "_grave",
          "type": "address"
        }
      ],
      "name": "setGrave",
      "outputs": [],
      "payable": false,
      "stateMutability": "nonpayable",
      "type": "function"
    },
    {
      "constant": false,
      "inputs": [],
      "name": "kill",
      "outputs": [],
      "payable": false,
      "stateMutability": "nonpayable",
      "type": "function"
    }
  ],
  "bytecode": "0x608060405234801561001057600080fd5b5060405161050c38038061050c8339818101604052602081101561003357600080fd5b505180610048816001600160e01b0361004f16565b505061009a565b600080546001600160a01b0319166001600160a01b0383169081178255604051909133917fa1a6a6164848fdba82d01d50ad73927295d9d4ccfba42020625dd3d7320673909190a350565b610463806100a96000396000f3fe608060405234801561001057600080fd5b50600436106100625760003560e01c80632ad722e21461006757806341c0e1b51461008f5780637ceab3b114610097578063a41cd034146100bb578063d9972b96146100c3578063e19a9dd91461010d575b600080fd5b61008d6004803603602081101561007d57600080fd5b50356001600160a01b0316610133565b005b61008d6101a2565b61009f61024b565b604080516001600160a01b039092168252519081900360200190f35b61009f61025a565b6100f9600480360360408110156100d957600080fd5b5080356001600160a01b031690602001356001600160e01b031916610269565b604080519115158252519081900360200190f35b61008d6004803603602081101561012357600080fd5b50356001600160a01b031661027e565b610149336000356001600160e01b031916610269565b610196576040805162461bcd60e51b8152602060048201526019602482015278185d5d1a0b58da1958dad95c8b5d5b985d5d1a1bdc9a5e9959603a1b604482015290519081900360640190fd5b61019f816102ea565b50565b6101b8336000356001600160e01b031916610269565b610205576040805162461bcd60e51b8152602060048201526019602482015278185d5d1a0b58da1958dad95c8b5d5b985d5d1a1bdc9a5e9959603a1b604482015290519081900360640190fd5b6001546040516001600160a01b03909116907f4b989c8e96b2b5c3aaa80c31769c41b11af9675189b0e4f6b49b82938db9afb490600090a26001546001600160a01b0316ff5b6000546001600160a01b031681565b6001546001600160a01b031681565b60006102758383610334565b90505b92915050565b610294336000356001600160e01b031916610269565b6102e1576040805162461bcd60e51b8152602060048201526019602482015278185d5d1a0b58da1958dad95c8b5d5b985d5d1a1bdc9a5e9959603a1b604482015290519081900360640190fd5b61019f816103e3565b600180546001600160a01b0319166001600160a01b0383169081179091556040517f4599eb158eb043de29b894d2596261ae96527bd3bc93cb5a7885f591fdd2fa8a90600090a250565b600080546001600160a01b031661034d57506000610278565b6000546040805163b700961360e01b81526001600160a01b0386811660048301523060248301526001600160e01b0319861660448301529151919092169163b7009613916064808301926020929190829003018186803b1580156103b057600080fd5b505afa1580156103c4573d6000803e3d6000fd5b505050506040513d60208110156103da57600080fd5b50519392505050565b600080546001600160a01b0319166001600160a01b0383169081178255604051909133917fa1a6a6164848fdba82d01d50ad73927295d9d4ccfba42020625dd3d7320673909190a35056fea265627a7a723058206982dbb6fe17cf7df8d1d6f69826515543046e72f27fba52ad932f2f1661c21e64736f6c634300050a0032",
  "source": "pragma solidity ^0.5.10;\n\nimport \"../permissions/AuthChecker.sol\";\n\ncontract Killable is AuthChecker {\n\n    /////\n    // State data\n    /////\n\n    // the address to self-destruct to\n    address payable public grave;\n\n    /////\n    // Events\n    /////\n\n    event SetGrave(address indexed grave);\n    event Kill(address indexed recipient);\n\n    /////\n    // Constructor\n    /////\n\n    /**\n    * @dev Constructor\n    * @param _guard Address of a guard implementation\n    */\n    // solhint-disable-next-line no-empty-blocks\n    constructor(address _guard) public AuthChecker(_guard) {}\n\n    /////\n    // Externally authorized functions\n    /////\n\n    function setGrave(address payable _grave) public onlyAuthorized {\n        _setGrave(_grave);\n    }\n\n    function kill() public onlyAuthorized {\n        emit Kill(grave);\n        selfdestruct(grave);\n    }\n\n    /////\n    // Internal functions\n    /////\n\n    function _setGrave(address payable _grave) internal {\n        grave = _grave;\n        emit SetGrave(_grave);\n    }\n}\n",
  "sourcePath": "/home/ohm/dev/dsb/smart-contracts/contracts/lifecycle/Killable.sol",
  "compiler": {
    "name": "solc",
    "version": "0.5.10+commit.5a6ea5b1.Emscripten.clang"
  },
  "schemaVersion": "3.0.11",
  "updatedAt": "2019-08-17T01:13:52.686Z",
  "devdoc": {
    "methods": {
      "constructor": {
        "details": "Constructor",
        "params": {
          "_guard": "Address of a guard implementation"
        }
      },
      "isAuthorized(address,bytes4)": {
        "details": "The check performed by calling `canCall` on the Guard instance. If no Guard instance is configured, function returns false (as a failsafe).",
        "params": {
          "_sig": "The function selector of the function being called.",
          "_src": "The address of the caller."
        },
        "return": "True, if the caller is authorized to make the call."
      },
      "setGuard(address)": {
        "params": {
          "_guard": "The address of the new Guard instance."
        }
      }
    }
  },
  "userdoc": {
    "methods": {
      "isAuthorized(address,bytes4)": {
        "notice": "isAuthorized will return `true` if `_src` address can call the function with the `_sig` function selector in the current context (in this contract)."
      },
      "setGrave(address)": {
        "notice": "//"
      },
      "setGuard(address)": {
        "notice": "setGuard will set the new Guard instance. The caller must have permissions to call this function in the current Guard instance."
      }
    }
  }
}