{
  "contractName": "Logger",
  "abi": [
    {
      "anonymous": false,
      "inputs": [
        {
          "indexed": true,
          "name": "src",
          "type": "address"
        },
        {
          "indexed": true,
          "name": "topic1",
          "type": "bytes32"
        },
        {
          "indexed": true,
          "name": "topic2",
          "type": "bytes32"
        },
        {
          "indexed": false,
          "name": "data",
          "type": "bytes"
        }
      ],
      "name": "Log",
      "type": "event"
    },
    {
      "constant": false,
      "inputs": [
        {
          "name": "_topic1",
          "type": "bytes32"
        },
        {
          "name": "_topic2",
          "type": "bytes32"
        },
        {
          "name": "_data",
          "type": "bytes"
        }
      ],
      "name": "log",
      "outputs": [],
      "payable": false,
      "stateMutability": "nonpayable",
      "type": "function"
    }
  ],
  "bytecode": "0x608060405234801561001057600080fd5b50610155806100206000396000f3fe608060405234801561001057600080fd5b506004361061002b5760003560e01c8063e2ed58bd14610030575b600080fd5b6100ac6004803603606081101561004657600080fd5b81359160208101359181019060608101604082013564010000000081111561006d57600080fd5b82018360208201111561007f57600080fd5b803590602001918460018302840111640100000000831117156100a157600080fd5b5090925090506100ae565b005b8284336001600160a01b03167f0b01434da821b79186e25cd659fd05d612b193bd043e05fa9a90e9daa08506b7858560405180806020018281038252848482818152602001925080828437600083820152604051601f909101601f19169092018290039550909350505050a45050505056fea265627a7a7230582095fca8f112f217f0ed121fee25050afb35597ecf1910764bc430901b0dfa03a864736f6c634300050a0032",
  "source": "pragma solidity ^0.5.10;\n\n/**\n * @title Logger\n * @author Disberse LTD\n * @notice Logger contract can log arbitrary data while indexing the sender and up to two\n * topics.\n */\ncontract Logger {\n\n    /**\n     * @dev Emit a log with arbitrary data, sender and up to two topics.\n     */\n    event Log(address indexed src, bytes32 indexed topic1, bytes32 indexed topic2, bytes data);\n\n    /**\n     * @notice Create a log with arbitrary data, sender and up to two topics.\n     * If topics are not required, leave them blank.\n     * @param _topic1 First topic.\n     * @param _topic2 Secod topic.\n     * @param _data Arbitrary log data\n     */\n    function log(bytes32 _topic1, bytes32 _topic2, bytes calldata _data) external {\n        emit Log(msg.sender, _topic1, _topic2, _data);\n    }\n\n}\n",
  "sourcePath": "/home/ohm/dev/dsb/smart-contracts/contracts/Logger.sol",
  "compiler": {
    "name": "solc",
    "version": "0.5.10+commit.5a6ea5b1.Emscripten.clang"
  },
  "schemaVersion": "3.0.11",
  "updatedAt": "2019-08-17T01:13:52.669Z",
  "devdoc": {
    "author": "Disberse LTD",
    "methods": {
      "log(bytes32,bytes32,bytes)": {
        "params": {
          "_data": "Arbitrary log data",
          "_topic1": "First topic.",
          "_topic2": "Secod topic."
        }
      }
    },
    "title": "Logger"
  },
  "userdoc": {
    "methods": {
      "log(bytes32,bytes32,bytes)": {
        "notice": "Create a log with arbitrary data, sender and up to two topics. If topics are not required, leave them blank."
      }
    },
    "notice": "Logger contract can log arbitrary data while indexing the sender and up to two topics."
  }
}