{
  "contractName": "Multisig",
  "abi": [
    {
      "constant": true,
      "inputs": [],
      "name": "MSG_TYPEHASH",
      "outputs": [
        {
          "name": "",
          "type": "bytes32"
        }
      ],
      "payable": false,
      "stateMutability": "view",
      "type": "function"
    },
    {
      "constant": true,
      "inputs": [],
      "name": "DOMAIN_SEPARATOR_TYPEHASH",
      "outputs": [
        {
          "name": "",
          "type": "bytes32"
        }
      ],
      "payable": false,
      "stateMutability": "view",
      "type": "function"
    },
    {
      "constant": false,
      "inputs": [
        {
          "name": "_prevSigner",
          "type": "address"
        },
        {
          "name": "_signer",
          "type": "address"
        },
        {
          "name": "_threshold",
          "type": "uint256"
        }
      ],
      "name": "removeSignerSetThreshold",
      "outputs": [],
      "payable": false,
      "stateMutability": "nonpayable",
      "type": "function"
    },
    {
      "constant": false,
      "inputs": [
        {
          "name": "_grave",
          "type": "address"
        }
      ],
      "name": "setGrave",
      "outputs": [],
      "payable": false,
      "stateMutability": "nonpayable",
      "type": "function"
    },
    {
      "constant": true,
      "inputs": [],
      "name": "VALIDATOR_MAGIC_VALUE",
      "outputs": [
        {
          "name": "",
          "type": "bytes4"
        }
      ],
      "payable": false,
      "stateMutability": "view",
      "type": "function"
    },
    {
      "constant": true,
      "inputs": [],
      "name": "LL_HEAD",
      "outputs": [
        {
          "name": "",
          "type": "address"
        }
      ],
      "payable": false,
      "stateMutability": "view",
      "type": "function"
    },
    {
      "constant": false,
      "inputs": [],
      "name": "kill",
      "outputs": [],
      "payable": false,
      "stateMutability": "nonpayable",
      "type": "function"
    },
    {
      "constant": true,
      "inputs": [],
      "name": "threshold",
      "outputs": [
        {
          "name": "",
          "type": "uint256"
        }
      ],
      "payable": false,
      "stateMutability": "view",
      "type": "function"
    },
    {
      "constant": false,
      "inputs": [],
      "name": "burnAccess",
      "outputs": [],
      "payable": false,
      "stateMutability": "nonpayable",
      "type": "function"
    },
    {
      "constant": true,
      "inputs": [
        {
          "name": "",
          "type": "address"
        }
      ],
      "name": "signers",
      "outputs": [
        {
          "name": "",
          "type": "address"
        }
      ],
      "payable": false,
      "stateMutability": "view",
      "type": "function"
    },
    {
      "constant": false,
      "inputs": [
        {
          "name": "_target",
          "type": "address"
        }
      ],
      "name": "setTarget",
      "outputs": [],
      "payable": false,
      "stateMutability": "nonpayable",
      "type": "function"
    },
    {
      "constant": true,
      "inputs": [],
      "name": "signerCount",
      "outputs": [
        {
          "name": "",
          "type": "uint256"
        }
      ],
      "payable": false,
      "stateMutability": "view",
      "type": "function"
    },
    {
      "constant": true,
      "inputs": [],
      "name": "guard",
      "outputs": [
        {
          "name": "",
          "type": "address"
        }
      ],
      "payable": false,
      "stateMutability": "view",
      "type": "function"
    },
    {
      "constant": true,
      "inputs": [
        {
          "name": "",
          "type": "bytes32"
        }
      ],
      "name": "approvedHashes",
      "outputs": [
        {
          "name": "",
          "type": "bool"
        }
      ],
      "payable": false,
      "stateMutability": "view",
      "type": "function"
    },
    {
      "constant": false,
      "inputs": [
        {
          "name": "_prevSigner",
          "type": "address"
        },
        {
          "name": "_signer",
          "type": "address"
        }
      ],
      "name": "removeSigner",
      "outputs": [],
      "payable": false,
      "stateMutability": "nonpayable",
      "type": "function"
    },
    {
      "constant": true,
      "inputs": [],
      "name": "getSigners",
      "outputs": [
        {
          "name": "",
          "type": "address[]"
        }
      ],
      "payable": false,
      "stateMutability": "view",
      "type": "function"
    },
    {
      "constant": false,
      "inputs": [
        {
          "name": "_threshold",
          "type": "uint256"
        }
      ],
      "name": "setThreshold",
      "outputs": [],
      "payable": false,
      "stateMutability": "nonpayable",
      "type": "function"
    },
    {
      "constant": true,
      "inputs": [],
      "name": "grave",
      "outputs": [
        {
          "name": "",
          "type": "address"
        }
      ],
      "payable": false,
      "stateMutability": "view",
      "type": "function"
    },
    {
      "constant": false,
      "inputs": [
        {
          "name": "_signer",
          "type": "address"
        },
        {
          "name": "_threshold",
          "type": "uint256"
        }
      ],
      "name": "addSignerSetThreshold",
      "outputs": [],
      "payable": false,
      "stateMutability": "nonpayable",
      "type": "function"
    },
    {
      "constant": true,
      "inputs": [
        {
          "name": "",
          "type": "bytes32"
        },
        {
          "name": "",
          "type": "address"
        }
      ],
      "name": "signedHashes",
      "outputs": [
        {
          "name": "",
          "type": "bool"
        }
      ],
      "payable": false,
      "stateMutability": "view",
      "type": "function"
    },
    {
      "constant": true,
      "inputs": [],
      "name": "TX_TYPEHASH",
      "outputs": [
        {
          "name": "",
          "type": "bytes32"
        }
      ],
      "payable": false,
      "stateMutability": "view",
      "type": "function"
    },
    {
      "constant": true,
      "inputs": [],
      "name": "nonce",
      "outputs": [
        {
          "name": "",
          "type": "uint256"
        }
      ],
      "payable": false,
      "stateMutability": "view",
      "type": "function"
    },
    {
      "constant": true,
      "inputs": [],
      "name": "target",
      "outputs": [
        {
          "name": "",
          "type": "address"
        }
      ],
      "payable": false,
      "stateMutability": "view",
      "type": "function"
    },
    {
      "constant": true,
      "inputs": [
        {
          "name": "_signer",
          "type": "address"
        }
      ],
      "name": "isValidSigner",
      "outputs": [
        {
          "name": "",
          "type": "bool"
        }
      ],
      "payable": false,
      "stateMutability": "view",
      "type": "function"
    },
    {
      "constant": true,
      "inputs": [
        {
          "name": "_src",
          "type": "address"
        },
        {
          "name": "_sig",
          "type": "bytes4"
        }
      ],
      "name": "isAuthorized",
      "outputs": [
        {
          "name": "",
          "type": "bool"
        }
      ],
      "payable": false,
      "stateMutability": "view",
      "type": "function"
    },
    {
      "constant": false,
      "inputs": [
        {
          "name": "_guard",
          "type": "address"
        }
      ],
      "name": "setGuard",
      "outputs": [],
      "payable": false,
      "stateMutability": "nonpayable",
      "type": "function"
    },
    {
      "constant": false,
      "inputs": [
        {
          "name": "_signer",
          "type": "address"
        }
      ],
      "name": "addSigner",
      "outputs": [],
      "payable": false,
      "stateMutability": "nonpayable",
      "type": "function"
    },
    {
      "constant": true,
      "inputs": [],
      "name": "domainSeparator",
      "outputs": [
        {
          "name": "",
          "type": "bytes32"
        }
      ],
      "payable": false,
      "stateMutability": "view",
      "type": "function"
    },
    {
      "inputs": [
        {
          "name": "_guard",
          "type": "address"
        }
      ],
      "payable": false,
      "stateMutability": "nonpayable",
      "type": "constructor"
    },
    {
      "payable": true,
      "stateMutability": "payable",
      "type": "fallback"
    },
    {
      "anonymous": false,
      "inputs": [
        {
          "indexed": true,
          "name": "dst",
          "type": "address"
        }
      ],
      "name": "Execute",
      "type": "event"
    },
    {
      "anonymous": false,
      "inputs": [
        {
          "indexed": true,
          "name": "hash",
          "type": "bytes32"
        }
      ],
      "name": "ApproveHash",
      "type": "event"
    },
    {
      "anonymous": false,
      "inputs": [
        {
          "indexed": true,
          "name": "hash",
          "type": "bytes32"
        },
        {
          "indexed": true,
          "name": "src",
          "type": "address"
        }
      ],
      "name": "SignHash",
      "type": "event"
    },
    {
      "anonymous": false,
      "inputs": [
        {
          "indexed": true,
          "name": "grave",
          "type": "address"
        }
      ],
      "name": "SetGrave",
      "type": "event"
    },
    {
      "anonymous": false,
      "inputs": [
        {
          "indexed": true,
          "name": "recipient",
          "type": "address"
        }
      ],
      "name": "Kill",
      "type": "event"
    },
    {
      "anonymous": false,
      "inputs": [
        {
          "indexed": true,
          "name": "setBy",
          "type": "address"
        },
        {
          "indexed": true,
          "name": "guard",
          "type": "address"
        }
      ],
      "name": "SetGuard",
      "type": "event"
    },
    {
      "anonymous": false,
      "inputs": [
        {
          "indexed": true,
          "name": "signer",
          "type": "address"
        }
      ],
      "name": "AddSigner",
      "type": "event"
    },
    {
      "anonymous": false,
      "inputs": [
        {
          "indexed": true,
          "name": "signer",
          "type": "address"
        }
      ],
      "name": "RemoveSigner",
      "type": "event"
    },
    {
      "anonymous": false,
      "inputs": [
        {
          "indexed": true,
          "name": "threshold",
          "type": "uint256"
        }
      ],
      "name": "SetThreshold",
      "type": "event"
    },
    {
      "anonymous": false,
      "inputs": [],
      "name": "BurnAccess",
      "type": "event"
    },
    {
      "constant": false,
      "inputs": [
        {
          "name": "_threshold",
          "type": "uint256"
        },
        {
          "name": "_chainId",
          "type": "uint256"
        },
        {
          "name": "_signers",
          "type": "address[]"
        },
        {
          "name": "_grave",
          "type": "address"
        },
        {
          "name": "_guard",
          "type": "address"
        }
      ],
      "name": "setup",
      "outputs": [],
      "payable": false,
      "stateMutability": "nonpayable",
      "type": "function"
    },
    {
      "constant": false,
      "inputs": [
        {
          "name": "_dst",
          "type": "address"
        },
        {
          "name": "_val",
          "type": "uint256"
        },
        {
          "name": "_data",
          "type": "bytes"
        },
        {
          "name": "_sigs",
          "type": "bytes"
        }
      ],
      "name": "execute",
      "outputs": [
        {
          "name": "success",
          "type": "bool"
        }
      ],
      "payable": false,
      "stateMutability": "nonpayable",
      "type": "function"
    },
    {
      "constant": false,
      "inputs": [
        {
          "name": "_hash",
          "type": "bytes32"
        }
      ],
      "name": "signHash",
      "outputs": [],
      "payable": false,
      "stateMutability": "nonpayable",
      "type": "function"
    },
    {
      "constant": false,
      "inputs": [
        {
          "name": "_msg",
          "type": "bytes"
        }
      ],
      "name": "signMsg",
      "outputs": [],
      "payable": false,
      "stateMutability": "nonpayable",
      "type": "function"
    },
    {
      "constant": false,
      "inputs": [
        {
          "name": "_msg",
          "type": "bytes"
        }
      ],
      "name": "approveMsg",
      "outputs": [],
      "payable": false,
      "stateMutability": "nonpayable",
      "type": "function"
    },
    {
      "constant": false,
      "inputs": [
        {
          "name": "_hash",
          "type": "bytes32"
        }
      ],
      "name": "approveHash",
      "outputs": [],
      "payable": false,
      "stateMutability": "nonpayable",
      "type": "function"
    },
    {
      "constant": true,
      "inputs": [
        {
          "name": "_dataHash",
          "type": "bytes32"
        },
        {
          "name": "_sig",
          "type": "bytes"
        }
      ],
      "name": "isValidSignature",
      "outputs": [
        {
          "name": "",
          "type": "bytes4"
        }
      ],
      "payable": false,
      "stateMutability": "view",
      "type": "function"
    },
    {
      "constant": true,
      "inputs": [
        {
          "name": "_hash",
          "type": "bytes32"
        },
        {
          "name": "_src",
          "type": "address"
        }
      ],
      "name": "isSignedHash",
      "outputs": [
        {
          "name": "",
          "type": "bool"
        }
      ],
      "payable": false,
      "stateMutability": "view",
      "type": "function"
    },
    {
      "constant": true,
      "inputs": [
        {
          "name": "_msg",
          "type": "bytes"
        }
      ],
      "name": "encodeMsgData",
      "outputs": [
        {
          "name": "",
          "type": "bytes"
        }
      ],
      "payable": false,
      "stateMutability": "view",
      "type": "function"
    },
    {
      "constant": true,
      "inputs": [
        {
          "name": "_dst",
          "type": "address"
        },
        {
          "name": "_val",
          "type": "uint256"
        },
        {
          "name": "_data",
          "type": "bytes"
        },
        {
          "name": "_nonce",
          "type": "uint256"
        }
      ],
      "name": "encodeTxData",
      "outputs": [
        {
          "name": "",
          "type": "bytes"
        }
      ],
      "payable": false,
      "stateMutability": "view",
      "type": "function"
    },
    {
      "constant": true,
      "inputs": [
        {
          "name": "_chainId",
          "type": "uint256"
        },
        {
          "name": "_setupBlock",
          "type": "uint256"
        },
        {
          "name": "_verifierAddr",
          "type": "address"
        },
        {
          "name": "_verifierTarget",
          "type": "address"
        }
      ],
      "name": "getDomainSeparator",
      "outputs": [
        {
          "name": "",
          "type": "bytes32"
        }
      ],
      "payable": false,
      "stateMutability": "view",
      "type": "function"
    }
  ],
  "bytecode": "0x608060405234801561001057600080fd5b50604051620027c8380380620027c88339818101604052602081101561003557600080fd5b5051808061004b816001600160e01b0361005316565b50505061009f565b600480546001600160a01b0319166001600160a01b03831690811790915560405133907fa1a6a6164848fdba82d01d50ad73927295d9d4ccfba42020625dd3d73206739090600090a350565b61271980620000af6000396000f3fe6080604052600436106102305760003560e01c806394cf795e1161012e578063d4b83992116100ab578063da0980c71161006f578063da0980c714610a89578063dadafdab14610b69578063e19a9dd914610c1a578063eb12d61e14610c4d578063f698da2514610c8057610230565b8063d4b839921461098d578063d4d9bdcd146109a2578063d5f50582146109cc578063d9972b96146109ff578063d9b4951e14610a4257610230565b8063a94670d3116100f2578063a94670d314610836578063ac3802db1461086f578063ae604e4514610232578063afeabda4146108a8578063affed0e01461097857610230565b806394cf795e1461061c578063960bfe04146106815780639a949a5e146106ab578063a41cd034146106e4578063a944ad05146106f957610230565b806341c0e1b5116101bc578063776d1a0111610180578063776d1a01146105465780637ca548c6146105795780637ceab3b11461058e57806387bd84cc146105a35780638d20efa7146105e157610230565b806341c0e1b51461045957806342cde4e81461046e5780635835a4cc146104835780635d1fc0d5146104fe578063736c0d5b1461051357610230565b80631fc9a308116102035780631fc9a3081461037357806325445104146103b65780632ad722e2146103e0578063317fc67714610413578063361e74ef1461042857610230565b806304f86da11461023257806315f39629146102595780631626ba7e146102d45780631db61b5414610232575b005b34801561023e57600080fd5b50610247610c95565b60408051918252519081900360200190f35b34801561026557600080fd5b506102306004803603602081101561027c57600080fd5b810190602081018135600160201b81111561029657600080fd5b8201836020820111156102a857600080fd5b803590602001918460018302840111600160201b831117156102c957600080fd5b509092509050610c9a565b3480156102e057600080fd5b50610356600480360360408110156102f757600080fd5b81359190810190604081016020820135600160201b81111561031857600080fd5b82018360208201111561032a57600080fd5b803590602001918460018302840111600160201b8311171561034b57600080fd5b509092509050610d3c565b604080516001600160e01b03199092168252519081900360200190f35b34801561037f57600080fd5b506102306004803603606081101561039657600080fd5b506001600160a01b03813581169160208101359091169060400135610dea565b3480156103c257600080fd5b50610230600480360360208110156103d957600080fd5b5035610e3d565b3480156103ec57600080fd5b506102306004803603602081101561040357600080fd5b50356001600160a01b0316610e93565b34801561041f57600080fd5b50610356610c95565b34801561043457600080fd5b5061043d610eff565b604080516001600160a01b039092168252519081900360200190f35b34801561046557600080fd5b50610230610f04565b34801561047a57600080fd5b50610247610fad565b34801561048f57600080fd5b50610230600480360360208110156104a657600080fd5b810190602081018135600160201b8111156104c057600080fd5b8201836020820111156104d257600080fd5b803590602001918460018302840111600160201b831117156104f357600080fd5b509092509050610fb3565b34801561050a57600080fd5b50610230611046565b34801561051f57600080fd5b5061043d6004803603602081101561053657600080fd5b50356001600160a01b03166110f5565b34801561055257600080fd5b506102306004803603602081101561056957600080fd5b50356001600160a01b0316611110565b34801561058557600080fd5b506102476111be565b34801561059a57600080fd5b5061043d6111c4565b3480156105af57600080fd5b506105cd600480360360208110156105c657600080fd5b50356111d3565b604080519115158252519081900360200190f35b3480156105ed57600080fd5b506102306004803603604081101561060457600080fd5b506001600160a01b03813581169160200135166111e8565b34801561062857600080fd5b50610631611236565b60408051602080825283518183015283519192839290830191858101910280838360005b8381101561066d578181015183820152602001610655565b505050509050019250505060405180910390f35b34801561068d57600080fd5b50610230600480360360208110156106a457600080fd5b5035611302565b3480156106b757600080fd5b506105cd600480360360408110156106ce57600080fd5b50803590602001356001600160a01b031661134b565b3480156106f057600080fd5b5061043d61138f565b34801561070557600080fd5b506107c16004803603608081101561071c57600080fd5b6001600160a01b0382351691602081013591810190606081016040820135600160201b81111561074b57600080fd5b82018360208201111561075d57600080fd5b803590602001918460018302840111600160201b8311171561077e57600080fd5b91908080601f016020809104026020016040519081016040528093929190818152602001838380828437600092019190915250929550509135925061139e915050565b6040805160208082528351818301528351919283929083019185019080838360005b838110156107fb5781810151838201526020016107e3565b50505050905090810190601f1680156108285780820380516001836020036101000a031916815260200191505b509250505060405180910390f35b34801561084257600080fd5b506102306004803603604081101561085957600080fd5b506001600160a01b03813516906020013561140a565b34801561087b57600080fd5b506105cd6004803603604081101561089257600080fd5b50803590602001356001600160a01b031661145c565b3480156108b457600080fd5b50610230600480360360a08110156108cb57600080fd5b813591602081013591810190606081016040820135600160201b8111156108f157600080fd5b82018360208201111561090357600080fd5b803590602001918460208302840111600160201b8311171561092457600080fd5b919080806020026020016040519081016040528093929190818152602001838360200280828437600092019190915250929550506001600160a01b03833581169450602090930135909216915061147c9050565b34801561098457600080fd5b50610247611524565b34801561099957600080fd5b5061043d61152a565b3480156109ae57600080fd5b50610230600480360360208110156109c557600080fd5b5035611539565b3480156109d857600080fd5b506105cd600480360360208110156109ef57600080fd5b50356001600160a01b0316611582565b348015610a0b57600080fd5b506105cd60048036036040811015610a2257600080fd5b5080356001600160a01b031690602001356001600160e01b0319166115a2565b348015610a4e57600080fd5b5061024760048036036080811015610a6557600080fd5b508035906020810135906001600160a01b03604082013581169160600135166115ae565b348015610a9557600080fd5b506105cd60048036036080811015610aac57600080fd5b6001600160a01b0382351691602081013591810190606081016040820135600160201b811115610adb57600080fd5b820183602082011115610aed57600080fd5b803590602001918460018302840111600160201b83111715610b0e57600080fd5b919390929091602081019035600160201b811115610b2b57600080fd5b820183602082011115610b3d57600080fd5b803590602001918460018302840111600160201b83111715610b5e57600080fd5b509092509050611607565b348015610b7557600080fd5b506107c160048036036020811015610b8c57600080fd5b810190602081018135600160201b811115610ba657600080fd5b820183602082011115610bb857600080fd5b803590602001918460018302840111600160201b83111715610bd957600080fd5b91908080601f016020809104026020016040519081016040528093929190818152602001838380828437600092019190915250929550611761945050505050565b348015610c2657600080fd5b5061023060048036036020811015610c3d57600080fd5b50356001600160a01b03166117aa565b348015610c5957600080fd5b5061023060048036036020811015610c7057600080fd5b50356001600160a01b0316611816565b348015610c8c57600080fd5b5061024761185f565b600081565b610ca333611582565b610ce3576040805162461bcd60e51b815260206004820152600c60248201526b3737ba16b096b9b4b3b732b960a11b604482015290519081900360640190fd5b6000610d2483838080601f01602080910402602001604051908101604052809392919081815260200183838082843760009201919091525061176192505050565b805190602001209050610d378133611865565b505050565b600081610d9f5760008481526008602052604090205460ff16610d9a576040805162461bcd60e51b81526020600482015260116024820152701a185cda0b5b9bdd0b585c1c1c9bdd9959607a1b604482015290519081900360640190fd5b610de0565b610de083838080601f0160208091040260200160405190810160405280939291908181526020018383808284376000920191909152508892506118c0915050565b5060009392505050565b333014610e2a576040805162461bcd60e51b815260206004820152600960248201526837b7363c96b9b2b63360b91b604482015290519081900360640190fd5b610e3381611a51565b610d378383611b18565b610e4633611582565b610e86576040805162461bcd60e51b815260206004820152600c60248201526b3737ba16b096b9b4b3b732b960a11b604482015290519081900360640190fd5b610e908133611865565b50565b610ea9336000356001600160e01b0319166115a2565b610ef6576040805162461bcd60e51b8152602060048201526019602482015278185d5d1a0b58da1958dad95c8b5d5b985d5d1a1bdc9a5e9959603a1b604482015290519081900360640190fd5b610e9081611cbd565b600181565b610f1a336000356001600160e01b0319166115a2565b610f67576040805162461bcd60e51b8152602060048201526019602482015278185d5d1a0b58da1958dad95c8b5d5b985d5d1a1bdc9a5e9959603a1b604482015290519081900360640190fd5b6005546040516001600160a01b03909116907f4b989c8e96b2b5c3aaa80c31769c41b11af9675189b0e4f6b49b82938db9afb490600090a26005546001600160a01b0316ff5b60015481565b333014610ff3576040805162461bcd60e51b815260206004820152600960248201526837b7363c96b9b2b63360b91b604482015290519081900360640190fd5b600061103483838080601f01602080910402602001604051908101604052809392919081815260200183838082843760009201919091525061176192505050565b805190602001209050610d3781611d07565b333014611086576040805162461bcd60e51b815260206004820152600960248201526837b7363c96b9b2b63360b91b604482015290519081900360640190fd5b60001960019081556000600281905590815260036020527fa15bc60c955c405d20d9149c709e2460f1c2d9a497496a7f46004d1772c3054c80546001600160a01b03191690556040517f91c87a2ef9127fdcd3960a8ccefb34f86a78dfc6842a052539dcd9398875c0649190a1565b6003602052600090815260409020546001600160a01b031681565b333014611150576040805162461bcd60e51b815260206004820152600960248201526837b7363c96b9b2b63360b91b604482015290519081900360640190fd5b6001600160a01b03811661119c576040805162461bcd60e51b815260206004820152600e60248201526d1a5b9d985b1a590b5d185c99d95d60921b604482015290519081900360640190fd5b600080546001600160a01b0319166001600160a01b0392909216919091179055565b60025481565b6004546001600160a01b031681565b60086020526000908152604090205460ff1681565b333014611228576040805162461bcd60e51b815260206004820152600960248201526837b7363c96b9b2b63360b91b604482015290519081900360640190fd5b6112328282611b18565b5050565b606080600254604051908082528060200260200182016040528015611265578160200160208202803883390190505b506001600090815260036020527fa15bc60c955c405d20d9149c709e2460f1c2d9a497496a7f46004d1772c3054c54919250906001600160a01b03165b6001600160a01b0381166001146112fa57808383815181106112c057fe5b6001600160a01b039283166020918202929092018101919091529181166000908152600390925260409091205460019290920191166112a2565b509091505090565b333014611342576040805162461bcd60e51b815260206004820152600960248201526837b7363c96b9b2b63360b91b604482015290519081900360640190fd5b610e9081611a51565b60006001600160a01b038216331480611386575060008381526009602090815260408083206001600160a01b038616845290915290205460ff165b90505b92915050565b6005546001600160a01b031681565b8151602080840191909120604080516000818501526001600160a01b038816818301526060818101889052608082019390935260a08082018690528251808303909101815260c090910190915280519201919091206007546114009082611d4a565b9695505050505050565b33301461144a576040805162461bcd60e51b815260206004820152600960248201526837b7363c96b9b2b63360b91b604482015290519081900360640190fd5b61145382611d88565b61123281611a51565b600960209081526000928352604080842090915290825290205460ff1681565b600754156114c8576040805162461bcd60e51b8152602060048201526014602482015273191bdb585a5b8b5cd95c185c985d1bdc8b5cd95d60621b604482015290519081900360640190fd5b6000546114e3908590439030906001600160a01b03166115ae565b6007556114f08386611ef3565b600580546001600160a01b0319166001600160a01b03841617905561151482611cbd565b61151d81612128565b5050505050565b60065481565b6000546001600160a01b031681565b333014611579576040805162461bcd60e51b815260206004820152600960248201526837b7363c96b9b2b63360b91b604482015290519081900360640190fd5b610e9081611d07565b6001600160a01b0390811660009081526003602052604090205416151590565b60006113868383612174565b6040805160006020808301919091526001600160a01b0385811683850152939093166060820152923f608084015260a083019390935260c0808301949094528251808303909401845260e0909101909152815191012090565b60008061164f888888888080601f01602080910402602001604051908101604052809392919081815260200183838082843760009201919091525050600654915061139e9050565b805160209182012060068054600101905560408051601f87018490048402810184019091528581529092506116a09186908690819084018382808284376000920191909152508592506118c0915050565b6116e288885a89898080601f01602080910402602001604051908101604052809392919081815260200183838082843760009201919091525061222992505050565b915081611722576040805162461bcd60e51b81526020600482015260096024820152681d1e0b59985a5b195960ba1b604482015290519081900360640190fd5b6040516001600160a01b038916907ff3294c134a5ce954b7ceee3617df96cb7d06ef9b8de3f41cadd3e632cf1278b490600090a2509695505050505050565b80516020808301919091206040805160008185015280820192909252805180830382018152606092830190915280519201919091206007546117a39082611d4a565b9392505050565b6117c0336000356001600160e01b0319166115a2565b61180d576040805162461bcd60e51b8152602060048201526019602482015278185d5d1a0b58da1958dad95c8b5d5b985d5d1a1bdc9a5e9959603a1b604482015290519081900360640190fd5b610e9081612128565b333014611856576040805162461bcd60e51b815260206004820152600960248201526837b7363c96b9b2b63360b91b604482015290519081900360640190fd5b610e9081611d88565b60075481565b60008281526009602090815260408083206001600160a01b0385168085529252808320805460ff1916600117905551909184917f4bb8e484b693f3e5456141c65f14ad4cb21ba2b7998362dafee5a203f259776e9190a35050565b6001546118d481604163ffffffff61224116565b8351101561191b576040805162461bcd60e51b815260206004820152600f60248201526e6e6f742d656e6f7567682d7369677360881b604482015290519081900360640190fd5b600080805b83811015611a49576000611934878361229a565b905060ff81166119515761194a878784886122a8565b92506119d7565b8060ff16600114156119c957611967878361253d565b9250611973868461134b565b6119c4576040805162461bcd60e51b815260206004820152601760248201527f696e76616c69642d7369676e65642d686173682d736967000000000000000000604482015290519081900360640190fd5b6119d7565b6119d4878784612552565b92505b836001600160a01b0316836001600160a01b03161180156119fc57506119fc83611582565b611a3b576040805162461bcd60e51b815260206004820152600b60248201526a696e76616c69642d73696760a81b604482015290519081900360640190fd5b509091508190600101611920565b505050505050565b600254811115611a9c576040805162461bcd60e51b81526020600482015260116024820152701a5b9d985b1a590b5d1a1c995cda1bdb19607a1b604482015290519081900360640190fd5b60008111611ae5576040805162461bcd60e51b81526020600482015260116024820152701a5b9d985b1a590b5d1a1c995cda1bdb19607a1b604482015290519081900360640190fd5b600181905560405181907f46e8115bf463f9c29a9424fe152addef1bfaf2b43180d19bb7c2c78cc0ff1ebf90600090a250565b600254600090611b2f90600163ffffffff6125db16565b9050600154811015611b7d576040805162461bcd60e51b81526020600482015260126024820152716e6f742d656e6f7567682d7369676e65727360701b604482015290519081900360640190fd5b6001600160a01b03838116600090815260036020526040902054811690831614611be3576040805162461bcd60e51b815260206004820152601260248201527134b73b30b634b216b83932bb29b4b3b732b960711b604482015290519081900360640190fd5b6001600160a01b03821615801590611c0557506001600160a01b038216600114155b611c47576040805162461bcd60e51b815260206004820152600e60248201526d34b73b30b634b216b9b4b3b732b960911b604482015290519081900360640190fd5b6001600160a01b03828116600081815260036020526040808220805488861684528284208054919096166001600160a01b03199182161790955583835280549094169093556002849055915190917f1803740ef72fc16e647c10fe2d31cf61a1578081960c2e3fb7f5aa957e82f55091a2505050565b600580546001600160a01b0319166001600160a01b0383169081179091556040517f4599eb158eb043de29b894d2596261ae96527bd3bc93cb5a7885f591fdd2fa8a90600090a250565b600081815260086020526040808220805460ff191660011790555182917fb81b2902afc22dd4d06e3b4818a47a4b34c45475ecd4ca76c06f1a043383c0dc91a250565b60408051601960f81b6020820152600160f81b6021820152602281019390935260428084019290925280518084039092018252606290920190915290565b6001600160a01b03811615801590611daa57506001600160a01b038116600114155b611dec576040805162461bcd60e51b815260206004820152600e60248201526d34b73b30b634b216b9b4b3b732b960911b604482015290519081900360640190fd5b6001600160a01b038181166000908152600360205260409020541615611e4c576040805162461bcd60e51b815260206004820152601060248201526f323ab83634b1b0ba3296b9b4b3b732b960811b604482015290519081900360640190fd5b60036020527fa15bc60c955c405d20d9149c709e2460f1c2d9a497496a7f46004d1772c3054c80546001600160a01b038381166000818152604081208054939094166001600160a01b031993841617909355600192839052835490911617909155600254611eb991612638565b6002556040516001600160a01b038216907f637c77a2d598a51d085d4a2413332c45a235a25ee855bf3dfcdc2c8fcf02860f90600090a250565b60015415611f38576040805162461bcd60e51b815260206004820152600d60248201526c1d1a1c995cda1bdb190b5cd95d609a1b604482015290519081900360640190fd5b60008111611f7c576040805162461bcd60e51b815260206004820152600c60248201526b1b9bcb5d1a1c995cda1bdb1960a21b604482015290519081900360640190fd5b8151811115611fc7576040805162461bcd60e51b81526020600482015260126024820152716e6f742d656e6f7567682d7369676e65727360701b604482015290519081900360640190fd5b600160005b83518110156120f3576000848281518110611fe357fe5b6020026020010151905060006001600160a01b0316816001600160a01b03161415801561201a57506001600160a01b038116600114155b61205c576040805162461bcd60e51b815260206004820152600e60248201526d34b73b30b634b216b9b4b3b732b960911b604482015290519081900360640190fd5b6001600160a01b0381811660009081526003602052604090205416156120bc576040805162461bcd60e51b815260206004820152601060248201526f323ab83634b1b0ba3296b9b4b3b732b960811b604482015290519081900360640190fd5b6001600160a01b03928316600090815260036020526040902080546001600160a01b03191693821693909317909255600101611fcc565b506001600160a01b0316600090815260036020526040902080546001600160a01b031916600190811790915591516002559055565b600480546001600160a01b0319166001600160a01b03831690811790915560405133907fa1a6a6164848fdba82d01d50ad73927295d9d4ccfba42020625dd3d73206739090600090a350565b6004546000906001600160a01b031661218f57506000611389565b600480546040805163b700961360e01b81526001600160a01b03878116948201949094523060248201526001600160e01b0319861660448201529051929091169163b700961391606480820192602092909190829003018186803b1580156121f657600080fd5b505afa15801561220a573d6000803e3d6000fd5b505050506040513d602081101561222057600080fd5b50519392505050565b6000806000835160208501878988f195945050505050565b60008261225057506000611389565b8282028284828161225d57fe5b04146113865760405162461bcd60e51b81526004018080602001828103825260218152602001806126c46021913960400191505060405180910390fd5b604102016060015160001a90565b60008060006122b78786612692565b90935091508290506122d085604163ffffffff61224116565b82101561231d576040805162461bcd60e51b8152602060048201526016602482015275696e76616c69642d636f6e74726163742d7369672d7360501b604482015290519081900360640190fd5b875161233083602063ffffffff61263816565b111561237c576040805162461bcd60e51b8152602060048201526016602482015275696e76616c69642d636f6e74726163742d7369672d7360501b604482015290519081900360640190fd5b6000606061238a8a856126af565b8b5191935091506123b2836123a687602063ffffffff61263816565b9063ffffffff61263816565b11156123fc576040805162461bcd60e51b8152602060048201526014602482015273696e76616c69642d636f6e74726163742d73696760601b604482015290519081900360640190fd5b60408051630b135d3f60e11b8152600481018b8152602482019283528351604483015283516000936001600160a01b03881693631626ba7e938f93889391926064019060208501908083838c5b83811015612461578181015183820152602001612449565b50505050905090810190601f16801561248e5780820380516001836020036101000a031916815260200191505b50935050505060206040518083038186803b1580156124ac57600080fd5b505afa1580156124c0573d6000803e3d6000fd5b505050506040513d60208110156124d657600080fd5b505190506001600160e01b031981161561252e576040805162461bcd60e51b8152602060048201526014602482015273696e76616c69642d636f6e74726163742d73696760601b604482015290519081900360640190fd5b50919998505050505050505050565b60008061254a84846126b8565b949350505050565b6000806000806125628786612692565b92509250925060018684848460405160008152602001604052604051808581526020018460ff1660ff1681526020018381526020018281526020019450505050506020604051602081039080840390855afa1580156125c5573d6000803e3d6000fd5b5050604051601f19015198975050505050505050565b600082821115612632576040805162461bcd60e51b815260206004820152601e60248201527f536166654d6174683a207375627472616374696f6e206f766572666c6f770000604482015290519081900360640190fd5b50900390565b600082820183811015611386576040805162461bcd60e51b815260206004820152601b60248201527f536166654d6174683a206164646974696f6e206f766572666c6f770000000000604482015290519081900360640190fd5b604102016020810151604082015160609092015160001a92909190565b01602001805191565b60410201602001519056fe536166654d6174683a206d756c7469706c69636174696f6e206f766572666c6f77a265627a7a7230582027cdbe0780eb019c6ffd341fa5bedbe9ce4e07f95c4c39fcd471c5d165dc3c8164736f6c634300050a0032",
  "source": "pragma solidity ^0.5.10;\n\n// borrowed heavily from the gnosis safe contracts\n\n// Libraries:\nimport \"../libraries/SigLib.sol\";\nimport \"../libraries/SafeMath.sol\";\nimport \"../lifecycle/Killable.sol\";\n\n// Inherited contracts:\nimport \"./ProxyTarget.sol\";\nimport \"./SignerManager.sol\";\n\ncontract Multisig is ProxyTarget, SignerManager, Killable {\n\n    using SafeMath for uint256;\n\n    /////\n    // Constants:\n    /////\n\n    // TODO: add the actual hash values once the schema is decided\n\n    // keccak256(\"isValidSignature(bytes32, bytes)\")\n    // slightly modified from EIP1271 (just hashes instead of passing bytes data)\n    bytes4 public constant VALIDATOR_MAGIC_VALUE = bytes4(0);\n\n    // keccak256(\n    //  \"EIP712Domain(\n    //      address verifyingContract,\n    //      address verifyingContractProxyTarget,\n    //      uint256 setupBlockNumber\n    //      uint256 chainId,\n    //  )\"\n    // )\n    bytes32 public constant DOMAIN_SEPARATOR_TYPEHASH = bytes32(0);\n\n    // keccak256(\n    //  \"MultisigTransaction(\n    //      address _dst,\n    //      uint256 _val,\n    //      bytes data\n    //  )\"\n    // )\n    bytes32 public constant TX_TYPEHASH = bytes32(0);\n\n    // keccak256(\n    //  \"MultisigMessage(bytes message)\"\n    // )\n    bytes32 public constant MSG_TYPEHASH = bytes32(0);\n\n\n    /////\n    // Storage:\n    /////\n\n    uint256 public nonce;\n    bytes32 public domainSeparator;\n    // hashes approved by ALL required signers\n    mapping (bytes32 => bool) public approvedHashes;\n    // hashes signed by a single signer\n    mapping (bytes32 => mapping(address => bool)) public signedHashes;\n\n\n    /////\n    // Events:\n    /////\n\n    event Execute(address indexed dst);\n    event ApproveHash(bytes32 indexed hash);\n    event SignHash(bytes32 indexed hash, address indexed src);\n\n    /////\n    // Constructor:\n    /////\n\n    /**\n    * @dev Constructor. ** Not run except for the base deployment! **\n    * @param _guard Address of a Guard implementation\n    */\n    // solhint-disable-next-line no-empty-blocks\n    constructor(address _guard) public Killable(_guard) {}\n\n    /////\n    // Fallback function:\n    /////\n\n    /**\n     * @dev Contract is meant to receive ETH, so we must set payable fallback.\n     */\n    // solhint-disable-next-line no-empty-blocks\n    function () external payable {}\n\n    /////\n    // Initialization function:\n    /////\n\n    // EIP 1344 would make a chainId opcode available, so we wouldn't have to pass it in\n    // https://eips.ethereum.org/EIPS/eip-1344\n    function setup(\n        uint256 _threshold,\n        uint256 _chainId,\n        address[] memory _signers,\n        address payable _grave,\n        address _guard\n    )\n        public\n    {\n        // Check that setup has not already run, then set the domainSeparator:\n        require(domainSeparator == bytes32(0), \"domain-separator-set\");\n        domainSeparator = getDomainSeparator(_chainId, block.number, address(this), target);\n\n        // Initialize SignerManager:\n        _setupSigners(_signers, _threshold);\n\n        // Killable Grave implementation:\n        grave = _grave;\n        _setGrave(_grave);\n\n        // AuthChekcer guard implementation:\n        _setGuard(_guard);\n    }\n\n\n    /////\n    // External functions:\n    /////\n\n    // TODO: refactor to internal.\n    function execute(\n        address _dst,\n        uint256 _val,\n        bytes calldata _data,\n        bytes calldata _sigs\n    )\n        external\n        returns (bool success)\n    {\n        bytes32 txDataHash = keccak256(encodeTxData(_dst, _val, _data, nonce));\n\n\n        nonce++;  // Must be done before _checkSigs to prevent reentrancy!\n        _checkSigs(_sigs, txDataHash);\n\n        success = _execute(_dst, _val, gasleft(), _data);\n\n        // TODO: revert on execution failure or emit an ExecuteFailed event?\n        require(success, \"tx-failed\");\n\n        emit Execute(_dst);\n    }\n\n    function signHash(bytes32 _hash)\n        external\n        onlySigner\n    {\n        _signHash(_hash, msg.sender);\n    }\n\n    function signMsg(bytes calldata _msg)\n        external\n        onlySigner\n    {\n        bytes32 msgHash = keccak256(encodeMsgData(_msg));\n        _signHash(msgHash, msg.sender);\n    }\n\n    function approveMsg(bytes calldata _msg)\n        external onlySelf\n    {\n        bytes32 msgHash = keccak256(encodeMsgData(_msg));\n        _approveHash(msgHash);\n    }\n\n    function approveHash(bytes32 _hash)\n        external\n        onlySelf\n    {\n        _approveHash(_hash);\n    }\n\n    /////\n    // External view functions:\n    /////\n\n    // NOTE: this function reverts in the case of an invalid signature\n    function isValidSignature(\n        bytes32 _dataHash,\n        bytes calldata _sig\n    )\n        external\n        view\n        returns (bytes4)\n    {\n        if (_sig.length == 0) {\n            require(approvedHashes[_dataHash], \"hash-not-approved\");\n        } else {\n            _checkSigs(_sig, _dataHash);\n        }\n        return VALIDATOR_MAGIC_VALUE;\n    }\n\n    function isSignedHash(\n        bytes32 _hash,\n        address _src\n    )\n        public\n        view\n        returns (bool)\n    {\n        return _src == msg.sender || signedHashes[_hash][_src];\n    }\n\n    function encodeMsgData(bytes memory _msg)\n        public\n        view\n        returns (bytes memory)\n    {\n        bytes32 msgDataHash = keccak256(\n            abi.encode(MSG_TYPEHASH, keccak256(_msg))\n        );\n\n        return SigLib.encodeEip712Data(domainSeparator, msgDataHash);\n    }\n\n    function encodeTxData(\n        address _dst,\n        uint _val,\n        bytes memory _data,\n        uint _nonce\n    )\n        public\n        view\n        returns (bytes memory)\n    {\n        bytes32 txDataHash = keccak256(\n            abi.encode(TX_TYPEHASH, _dst, _val, keccak256(_data), _nonce)\n        );\n        return SigLib.encodeEip712Data(domainSeparator, txDataHash);\n    }\n\n    function getDomainSeparator(\n        uint _chainId,\n        uint _setupBlock,\n        address _verifierAddr,\n        address _verifierTarget\n    )\n        public\n        view\n        returns (bytes32)\n    {\n        bytes32 verifierCodehash;\n        // TODO: explanation comment here.\n        assembly { verifierCodehash := extcodehash(_verifierAddr) }\n        return keccak256(abi.encode(\n            DOMAIN_SEPARATOR_TYPEHASH,\n            _verifierAddr,\n            _verifierTarget,\n            verifierCodehash,\n            _setupBlock,\n            _chainId\n        ));\n    }\n\n    /////\n    // Internal functons:\n    /////\n\n    function _checkSigs(\n        bytes memory _sigs,\n        bytes32 _hash\n    )\n        internal\n        view\n    {\n        uint256 _threshold = threshold;\n        require(_sigs.length >= _threshold.mul(65), \"not-enough-sigs\");\n        address lastSigner = address(0);\n        address signer;\n        for (uint256 i = 0; i < _threshold; i++) {\n            uint8 v = SigLib.parseSigV(_sigs, i);\n\n            // if v == 0, it's a contract signature\n            if (v == 0) {\n                signer = SigLib.recoverContractSig(_sigs, _hash, i, _threshold);\n\n            // if v == 1, it's a signed hash\n            } else if (v == 1) {\n                signer = SigLib.recoverSignedHashSig(_sigs, i);\n                require(isSignedHash(_hash, signer), \"invalid-signed-hash-sig\");\n                // we could save gas by deleting the hash at this point, but\n                // function would no longer be view\n\n            // if v > 1, it's an EOA sig\n            } else {\n                signer = SigLib.recoverEoaSig(_sigs, _hash, i);\n            }\n\n            require(signer > lastSigner && isValidSigner(signer), \"invalid-sig\");\n            lastSigner = signer;\n        }\n    }\n\n    function _signHash(bytes32 _hash, address _src)\n        internal\n    {\n        signedHashes[_hash][_src] = true;\n        emit SignHash(_hash, _src);\n    }\n\n    function _approveHash(bytes32 _hash)\n        internal\n    {\n        approvedHashes[_hash] = true;\n        emit ApproveHash(_hash);\n    }\n\n    function _execute(\n        address _dst,\n        uint _val,\n        uint _gas,\n        bytes memory _data\n    )\n        internal\n        returns (bool success)\n    {\n        // solhint-disable-next-line no-inline-assembly\n        assembly {\n            // call(gas, dst, value, argsOffset, argsLen, retOffset, retLen)\n            // NOTE: mload(foo), for `foo` of bytes type, will return the first 32B which is \n            // encoded as the length of the array (in bytes).\n            success := call(\n                _gas,               // Gas amount to pass to TX\n                _dst,               // Destination contract address\n                _val,               // TX value (in wei)\n                add(_data, 0x20),   // Offset in `_data` to start of input area\n                mload(_data),       // Length of input in bytes.\n                0,                  // No memory designated for outputs.\n                0                   // See above.\n            )\n        }\n    }\n\n}\n",
  "sourcePath": "/home/ohm/dev/dsb/smart-contracts/contracts/multisig/Multisig.sol",
  "compiler": {
    "name": "solc",
    "version": "0.5.10+commit.5a6ea5b1.Emscripten.clang"
  },
  "schemaVersion": "3.0.11",
  "updatedAt": "2019-08-24T22:06:59.799Z",
  "devdoc": {
    "methods": {
      "constructor": {
        "details": "Constructor. ** Not run except for the base deployment! **",
        "params": {
          "_guard": "Address of a Guard implementation"
        }
      },
      "isAuthorized(address,bytes4)": {
        "details": "The check performed by calling `canCall` on the Guard instance. If no Guard instance is configured, function returns false (as a failsafe).",
        "params": {
          "_sig": "The function selector of the function being called.",
          "_src": "The address of the caller."
        },
        "return": "True, if the caller is authorized to make the call."
      },
      "setGuard(address)": {
        "params": {
          "_guard": "The address of the new Guard instance."
        }
      },
      "setTarget(address)": {
        "details": "Changes the target address. Can only be called from the address of this contract. NOTE: we don't inherit from SelfAuthorized here to avoid conflict of storage slots should the SelfAuthorized contract implementation change in the future.",
        "params": {
          "_target": "The new target address that proxies will delegatecall to."
        }
      }
    }
  },
  "userdoc": {
    "methods": {
      "execute(address,uint256,bytes,bytes)": {
        "notice": "//"
      },
      "isAuthorized(address,bytes4)": {
        "notice": "isAuthorized will return `true` if `_src` address can call the function with the `_sig` function selector in the current context (in this contract)."
      },
      "isValidSignature(bytes32,bytes)": {
        "notice": "//"
      },
      "isValidSigner(address)": {
        "notice": "//"
      },
      "setGrave(address)": {
        "notice": "//"
      },
      "setGuard(address)": {
        "notice": "setGuard will set the new Guard instance. The caller must have permissions to call this function in the current Guard instance."
      },
      "setThreshold(uint256)": {
        "notice": "//"
      },
      "setup(uint256,uint256,address[],address,address)": {
        "notice": "//"
      }
    }
  }
}