{
  "contractName": "OrgFactoryWrapper",
  "abi": [
    {
      "constant": true,
      "inputs": [],
      "name": "defaultTarget",
      "outputs": [
        {
          "name": "",
          "type": "address"
        }
      ],
      "payable": false,
      "stateMutability": "view",
      "type": "function"
    },
    {
      "constant": true,
      "inputs": [],
      "name": "defaultGuard",
      "outputs": [
        {
          "name": "",
          "type": "address"
        }
      ],
      "payable": false,
      "stateMutability": "view",
      "type": "function"
    },
    {
      "constant": true,
      "inputs": [],
      "name": "defaultGrave",
      "outputs": [
        {
          "name": "",
          "type": "address"
        }
      ],
      "payable": false,
      "stateMutability": "view",
      "type": "function"
    },
    {
      "constant": false,
      "inputs": [
        {
          "name": "_defaultTarget",
          "type": "address"
        }
      ],
      "name": "setDefaultTarget",
      "outputs": [],
      "payable": false,
      "stateMutability": "nonpayable",
      "type": "function"
    },
    {
      "constant": true,
      "inputs": [],
      "name": "guard",
      "outputs": [
        {
          "name": "",
          "type": "address"
        }
      ],
      "payable": false,
      "stateMutability": "view",
      "type": "function"
    },
    {
      "constant": true,
      "inputs": [],
      "name": "CHAIN_ID",
      "outputs": [
        {
          "name": "",
          "type": "uint256"
        }
      ],
      "payable": false,
      "stateMutability": "view",
      "type": "function"
    },
    {
      "constant": false,
      "inputs": [
        {
          "name": "_defaultGuard",
          "type": "address"
        }
      ],
      "name": "setDefaultGuard",
      "outputs": [],
      "payable": false,
      "stateMutability": "nonpayable",
      "type": "function"
    },
    {
      "constant": true,
      "inputs": [],
      "name": "defaultRegistry",
      "outputs": [
        {
          "name": "",
          "type": "address"
        }
      ],
      "payable": false,
      "stateMutability": "view",
      "type": "function"
    },
    {
      "constant": false,
      "inputs": [
        {
          "name": "_salt",
          "type": "bytes32"
        },
        {
          "name": "_threshold",
          "type": "uint256"
        },
        {
          "name": "_signers",
          "type": "address[]"
        }
      ],
      "name": "deployProxy",
      "outputs": [
        {
          "name": "",
          "type": "address"
        }
      ],
      "payable": false,
      "stateMutability": "nonpayable",
      "type": "function"
    },
    {
      "constant": true,
      "inputs": [],
      "name": "factory",
      "outputs": [
        {
          "name": "",
          "type": "address"
        }
      ],
      "payable": false,
      "stateMutability": "view",
      "type": "function"
    },
    {
      "constant": true,
      "inputs": [
        {
          "name": "_src",
          "type": "address"
        },
        {
          "name": "_sig",
          "type": "bytes4"
        }
      ],
      "name": "isAuthorized",
      "outputs": [
        {
          "name": "",
          "type": "bool"
        }
      ],
      "payable": false,
      "stateMutability": "view",
      "type": "function"
    },
    {
      "constant": false,
      "inputs": [
        {
          "name": "_guard",
          "type": "address"
        }
      ],
      "name": "setGuard",
      "outputs": [],
      "payable": false,
      "stateMutability": "nonpayable",
      "type": "function"
    },
    {
      "constant": false,
      "inputs": [
        {
          "name": "_defaultGrave",
          "type": "address"
        }
      ],
      "name": "setDefaultGrave",
      "outputs": [],
      "payable": false,
      "stateMutability": "nonpayable",
      "type": "function"
    },
    {
      "inputs": [
        {
          "name": "_guard",
          "type": "address"
        },
        {
          "name": "_factory",
          "type": "address"
        },
        {
          "name": "_defaultTarget",
          "type": "address"
        },
        {
          "name": "_defaultGuard",
          "type": "address"
        },
        {
          "name": "_defaultGrave",
          "type": "address"
        },
        {
          "name": "_defaultRegistry",
          "type": "address"
        }
      ],
      "payable": false,
      "stateMutability": "nonpayable",
      "type": "constructor"
    },
    {
      "anonymous": false,
      "inputs": [
        {
          "indexed": true,
          "name": "sender",
          "type": "address"
        },
        {
          "indexed": true,
          "name": "deployedAddr",
          "type": "address"
        },
        {
          "indexed": true,
          "name": "salt",
          "type": "bytes32"
        }
      ],
      "name": "DeployProxy",
      "type": "event"
    },
    {
      "anonymous": false,
      "inputs": [
        {
          "indexed": true,
          "name": "setBy",
          "type": "address"
        },
        {
          "indexed": true,
          "name": "guard",
          "type": "address"
        }
      ],
      "name": "SetGuard",
      "type": "event"
    },
    {
      "constant": false,
      "inputs": [
        {
          "name": "_defaultRegistry",
          "type": "address"
        }
      ],
      "name": "setDefaultRegistry",
      "outputs": [],
      "payable": false,
      "stateMutability": "nonpayable",
      "type": "function"
    }
  ],
  "bytecode": "0x608060405234801561001057600080fd5b50604051610cf1380380610cf1833981810160405260c081101561003357600080fd5b508051602082015160408301516060840151608085015160a0909501519394929391929091858585858584610070816001600160e01b036100dd16565b50600180546001600160a01b03199081166001600160a01b0396871617909155600280548216948616949094179093556003805484169285169290921790915560048054831691841691909117905560058054909116939091169290921790915550610128945050505050565b600080546001600160a01b0319166001600160a01b0383169081178255604051909133917fa1a6a6164848fdba82d01d50ad73927295d9d4ccfba42020625dd3d7320673909190a350565b610bba806101376000396000f3fe608060405234801561001057600080fd5b50600436106100ea5760003560e01c806394bf49f41161008c578063c45a015511610066578063c45a015514610270578063d9972b9614610278578063e19a9dd9146102c2578063ea72b87e146102e8576100ea565b806394bf49f4146101935780639b8eddbf146101b9578063b88bf7f4146101c1576100ea565b8063404cb47f116100c8578063404cb47f14610143578063697cf3221461014b5780637ceab3b11461017157806385e1f4d014610179576100ea565b80630215c402146100ef5780630453cbd4146101135780632a20521e1461013b575b600080fd5b6100f761030e565b604080516001600160a01b039092168252519081900360200190f35b6101396004803603602081101561012957600080fd5b50356001600160a01b031661031d565b005b6100f7610394565b6100f76103a3565b6101396004803603602081101561016157600080fd5b50356001600160a01b03166103b2565b6100f7610429565b610181610438565b60408051918252519081900360200190f35b610139600480360360208110156101a957600080fd5b50356001600160a01b031661043e565b6100f76104b5565b6100f7600480360360608110156101d757600080fd5b8135916020810135918101906060810160408201356401000000008111156101fe57600080fd5b82018360208201111561021057600080fd5b8035906020019184602083028401116401000000008311171561023257600080fd5b9190808060200260200160405190810160405280939291908181526020018383602002808284376000920191909152509295506104c4945050505050565b6100f7610840565b6102ae6004803603604081101561028e57600080fd5b5080356001600160a01b031690602001356001600160e01b03191661084f565b604080519115158252519081900360200190f35b610139600480360360208110156102d857600080fd5b50356001600160a01b0316610864565b610139600480360360208110156102fe57600080fd5b50356001600160a01b03166108c5565b6002546001600160a01b031681565b610333336000356001600160e01b03191661084f565b610372576040805162461bcd60e51b81526020600482015260196024820152600080516020610b66833981519152604482015290519081900360640190fd5b600580546001600160a01b0319166001600160a01b0392909216919091179055565b6003546001600160a01b031681565b6004546001600160a01b031681565b6103c8336000356001600160e01b03191661084f565b610407576040805162461bcd60e51b81526020600482015260196024820152600080516020610b66833981519152604482015290519081900360640190fd5b600280546001600160a01b0319166001600160a01b0392909216919091179055565b6000546001600160a01b031681565b61053981565b610454336000356001600160e01b03191661084f565b610493576040805162461bcd60e51b81526020600482015260196024820152600080516020610b66833981519152604482015290519081900360640190fd5b600380546001600160a01b0319166001600160a01b0392909216919091179055565b6005546001600160a01b031681565b60006104dc336000356001600160e01b03191661084f565b61051b576040805162461bcd60e51b81526020600482015260196024820152600080516020610b66833981519152604482015290519081900360640190fd5b60015460408051630570b74760e31b81526004810187905290516000926001600160a01b031691632b85ba3891602480830192602092919082900301818787803b15801561056857600080fd5b505af115801561057c573d6000803e3d6000fd5b505050506040513d602081101561059257600080fd5b505190508060606105a3868661093c565b6002546040805163f52cf0f160e01b81526001600160a01b0392831660248201819052600482019283528451604483015284519495509286169363f52cf0f193869390929091829160640190602086019080838360005b838110156106125781810151838201526020016105fa565b50505050905090810190601f16801561063f5780820380516001836020036101000a031916815260200191505b509350505050600060405180830381600087803b15801561065f57600080fd5b505af1158015610673573d6000803e3d6000fd5b505060025460408051636a5c1cc960e11b815290518794506001600160a01b0392831693509184169163d4b8399291600480820192602092909190829003018186803b1580156106c257600080fd5b505afa1580156106d6573d6000803e3d6000fd5b505050506040513d60208110156106ec57600080fd5b50516001600160a01b031614610740576040805162461bcd60e51b81526020600482015260146024820152731c1c9bde1e4b5d185c99d95d0b5b9bdd0b5cd95d60621b604482015290519081900360640190fd5b6000801b816001600160a01b031663f698da256040518163ffffffff1660e01b815260040160206040518083038186803b15801561077d57600080fd5b505afa158015610791573d6000803e3d6000fd5b505050506040513d60208110156107a757600080fd5b505114156107fc576040805162461bcd60e51b815260206004820152601d60248201527f70726f78792d646f6d61696e536570617261746f722d6e6f742d736574000000604482015290519081900360640190fd5b60405188906001600160a01b0386169033907f0c7a60c2ba754c8367e3d68abf3167294d930acfcae56847590fd1362713f8dc90600090a450919695505050505050565b6001546001600160a01b031681565b600061085b8383610a33565b90505b92915050565b61087a336000356001600160e01b03191661084f565b6108b9576040805162461bcd60e51b81526020600482015260196024820152600080516020610b66833981519152604482015290519081900360640190fd5b6108c281610ae2565b50565b6108db336000356001600160e01b03191661084f565b61091a576040805162461bcd60e51b81526020600482015260196024820152600080516020610b66833981519152604482015290519081900360640190fd5b600480546001600160a01b0319166001600160a01b0392909216919091179055565b6060604051806060016040528060388152602001610b2e60389139805160209182012060045460035460055460405160248101898152610539604483018190526001600160a01b039586166084840181905294861660a484018190529390951660c4830181905260c0606484019081528a5160e48501528a5197988c988c9796959394936101040191888101910280838360005b838110156109e85781810151838201526020016109d0565b50505050905001975050505050505050604051602081830303815290604052906001600160e01b0319166020820180516001600160e01b038381831617835250505050905092915050565b600080546001600160a01b0316610a4c5750600061085e565b6000546040805163b700961360e01b81526001600160a01b0386811660048301523060248301526001600160e01b0319861660448301529151919092169163b7009613916064808301926020929190829003018186803b158015610aaf57600080fd5b505afa158015610ac3573d6000803e3d6000fd5b505050506040513d6020811015610ad957600080fd5b50519392505050565b600080546001600160a01b0319166001600160a01b0383169081178255604051909133917fa1a6a6164848fdba82d01d50ad73927295d9d4ccfba42020625dd3d7320673909190a35056fe73657475702875696e743235362c75696e743235362c616464726573735b5d2c616464726573732c616464726573732c6164647265737329617574682d636865636b65722d756e617574686f72697a656400000000000000a265627a7a7230582009563dd0c0833bcb0aa49fbf73f4463146dc3e49d6fad9e47a0b055354257cdf64736f6c634300050a0032",
  "source": "pragma solidity ^0.5.10;\n\nimport \"../multisig/OrgMultisig.sol\";\n\nimport \"./Factory.sol\";\nimport \"./FactoryWrapper.sol\";\n\n/**\n* @title OrgFactoryWrapper\n* @author Disberse LTD\n* @notice A wrapper contract for atomically deploying and intializing delegatecall proxies. Tightly \n* coupled with both `Proxy.sol` and `OrgMultisig.sol`.\n*/\ncontract OrgFactoryWrapper is FactoryWrapper {\n\n    /////\n    // Constants:\n    /////\n\n    // TODO@nik: check that this generates the right function signature!\n    // The function selector for the OrgMultisig `setup` function.\n    string internal constant SETUP_FUNCTION_SIGNATURE = \"setup(uint256,uint256,address[],address,address,address)\";\n    bytes4 internal constant SETUP_SELECTOR = bytes4(keccak256(bytes(SETUP_FUNCTION_SIGNATURE)));\n\n    /////\n    // Storage:\n    /////\n\n    // The registry address for deployed proxies:\n    address public defaultRegistry;\n\n    /////\n    // Constructor\n    /////\n\n    // TODO@nik: do this inherited constructor the right way\n    /**\n     * @dev Constructor.\n     * @param _guard The guard implementation.\n     * @param _factory The address of the contract factory to \"wrap\".\n     * @param _defaultTarget The target address to pass to the deployed proxies.\n     * @param _defaultGuard The guard address to pass to the deployed proxies.\n     * @param _defaultGrave The grave address to pass to the deployed proxies.\n     * @param _defaultRegistry The registry address to pass to the deployed proxies.\n     */\n    constructor(\n        address _guard,\n        address _factory,\n        address _defaultTarget,\n        address _defaultGuard,\n        address _defaultGrave,\n        address _defaultRegistry\n    )\n        public\n        FactoryWrapper(_guard, _factory, _defaultTarget, _defaultGuard, _defaultGrave)\n    {\n        defaultRegistry = _defaultRegistry;\n    }\n\n    /////\n    // Public functions:\n    /////\n\n    /**\n     * @notice Change the default registry address to pass to deployed proxies.\n     * @param _defaultRegistry The new default registry address.\n    */\n    function setDefaultRegistry(address _defaultRegistry) public onlyAuthorized {\n        defaultRegistry = _defaultRegistry;\n    }\n\n    /////\n    // Internal functions:\n    /////\n\n    /**\n     * @dev Encodes the _forwardData for the Multisig `setup` function for inclusion in the call to the Proxy `setup` \n     * function.\n     * @param _threshold The signer threshold for the multisig (proxy).\n     * @param _signers The initial signers for the multisig (proxy).\n    */\n    function _encodeSetupData(uint _threshold, address[] memory _signers)\n        internal\n        view\n        returns (bytes memory)\n    {\n        // It's not currently possible to retrieve a selector for an overloaded function in \n        // solidity, so we have to do this manually. For further reference, see:\n        // https://github.com/ethereum/solidity/issues/3556\n        return abi.encodeWithSelector(\n            SETUP_SELECTOR,\n            _threshold,\n            CHAIN_ID,\n            _signers,\n            defaultGrave,\n            defaultGuard,\n            defaultRegistry\n        );\n    }\n\n}\n",
  "sourcePath": "/home/ohm/dev/dsb/smart-contracts/contracts/factory/OrgFactoryWrapper.sol",
  "compiler": {
    "name": "solc",
    "version": "0.5.10+commit.5a6ea5b1.Emscripten.clang"
  },
  "schemaVersion": "3.0.11",
  "updatedAt": "2019-08-24T21:48:18.551Z",
  "devdoc": {
    "author": "Disberse LTD",
    "methods": {
      "constructor": {
        "details": "Constructor.",
        "params": {
          "_defaultGrave": "The grave address to pass to the deployed proxies.",
          "_defaultGuard": "The guard address to pass to the deployed proxies.",
          "_defaultRegistry": "The registry address to pass to the deployed proxies.",
          "_defaultTarget": "The target address to pass to the deployed proxies.",
          "_factory": "The address of the contract factory to \"wrap\".",
          "_guard": "The guard implementation."
        }
      },
      "deployProxy(bytes32,uint256,address[])": {
        "details": "Calls `deploy` on the contract factory, then atomically calls `setup` on the deployed proxy",
        "params": {
          "_salt": "The create2 salt for the contract factory",
          "_signers": "The initial signers for the multisig (proxy)",
          "_threshold": "The signer threshold for the multisig (proxy)"
        },
        "return": "The address of the deployed proxy"
      },
      "isAuthorized(address,bytes4)": {
        "details": "The check performed by calling `canCall` on the Guard instance. If no Guard instance is configured, function returns false (as a failsafe).",
        "params": {
          "_sig": "The function selector of the function being called.",
          "_src": "The address of the caller."
        },
        "return": "True, if the caller is authorized to make the call."
      },
      "setDefaultGrave(address)": {
        "details": "Changes the default grave address",
        "params": {
          "_defaultGrave": "The new default grave address"
        }
      },
      "setDefaultGuard(address)": {
        "details": "Changes the default guard address",
        "params": {
          "_defaultGuard": "The new default guard address"
        }
      },
      "setDefaultRegistry(address)": {
        "params": {
          "_defaultRegistry": "The new default registry address."
        }
      },
      "setDefaultTarget(address)": {
        "details": "Changes the default target address",
        "params": {
          "_defaultTarget": "The new default target address"
        }
      },
      "setGuard(address)": {
        "params": {
          "_guard": "The address of the new Guard instance."
        }
      }
    },
    "title": "OrgFactoryWrapper"
  },
  "userdoc": {
    "methods": {
      "isAuthorized(address,bytes4)": {
        "notice": "isAuthorized will return `true` if `_src` address can call the function with the `_sig` function selector in the current context (in this contract)."
      },
      "setDefaultRegistry(address)": {
        "notice": "Change the default registry address to pass to deployed proxies."
      },
      "setGuard(address)": {
        "notice": "setGuard will set the new Guard instance. The caller must have permissions to call this function in the current Guard instance."
      }
    },
    "notice": "A wrapper contract for atomically deploying and intializing delegatecall proxies. Tightly  coupled with both `Proxy.sol` and `OrgMultisig.sol`."
  }
}