{
  "contractName": "OrgMultisig",
  "abi": [
    {
      "constant": true,
      "inputs": [],
      "name": "MSG_TYPEHASH",
      "outputs": [
        {
          "name": "",
          "type": "bytes32"
        }
      ],
      "payable": false,
      "stateMutability": "view",
      "type": "function"
    },
    {
      "constant": false,
      "inputs": [
        {
          "name": "_msg",
          "type": "bytes"
        }
      ],
      "name": "signMsg",
      "outputs": [],
      "payable": false,
      "stateMutability": "nonpayable",
      "type": "function"
    },
    {
      "constant": true,
      "inputs": [
        {
          "name": "_dataHash",
          "type": "bytes32"
        },
        {
          "name": "_sig",
          "type": "bytes"
        }
      ],
      "name": "isValidSignature",
      "outputs": [
        {
          "name": "",
          "type": "bytes4"
        }
      ],
      "payable": false,
      "stateMutability": "view",
      "type": "function"
    },
    {
      "constant": true,
      "inputs": [],
      "name": "DOMAIN_SEPARATOR_TYPEHASH",
      "outputs": [
        {
          "name": "",
          "type": "bytes32"
        }
      ],
      "payable": false,
      "stateMutability": "view",
      "type": "function"
    },
    {
      "constant": false,
      "inputs": [
        {
          "name": "_prevSigner",
          "type": "address"
        },
        {
          "name": "_signer",
          "type": "address"
        },
        {
          "name": "_threshold",
          "type": "uint256"
        }
      ],
      "name": "removeSignerSetThreshold",
      "outputs": [],
      "payable": false,
      "stateMutability": "nonpayable",
      "type": "function"
    },
    {
      "constant": false,
      "inputs": [
        {
          "name": "_hash",
          "type": "bytes32"
        }
      ],
      "name": "signHash",
      "outputs": [],
      "payable": false,
      "stateMutability": "nonpayable",
      "type": "function"
    },
    {
      "constant": false,
      "inputs": [
        {
          "name": "_grave",
          "type": "address"
        }
      ],
      "name": "setGrave",
      "outputs": [],
      "payable": false,
      "stateMutability": "nonpayable",
      "type": "function"
    },
    {
      "constant": true,
      "inputs": [],
      "name": "VALIDATOR_MAGIC_VALUE",
      "outputs": [
        {
          "name": "",
          "type": "bytes4"
        }
      ],
      "payable": false,
      "stateMutability": "view",
      "type": "function"
    },
    {
      "constant": true,
      "inputs": [],
      "name": "LL_HEAD",
      "outputs": [
        {
          "name": "",
          "type": "address"
        }
      ],
      "payable": false,
      "stateMutability": "view",
      "type": "function"
    },
    {
      "constant": false,
      "inputs": [],
      "name": "kill",
      "outputs": [],
      "payable": false,
      "stateMutability": "nonpayable",
      "type": "function"
    },
    {
      "constant": true,
      "inputs": [],
      "name": "threshold",
      "outputs": [
        {
          "name": "",
          "type": "uint256"
        }
      ],
      "payable": false,
      "stateMutability": "view",
      "type": "function"
    },
    {
      "constant": true,
      "inputs": [],
      "name": "CLAIM_VAL",
      "outputs": [
        {
          "name": "",
          "type": "bytes32"
        }
      ],
      "payable": false,
      "stateMutability": "view",
      "type": "function"
    },
    {
      "constant": false,
      "inputs": [
        {
          "name": "_msg",
          "type": "bytes"
        }
      ],
      "name": "approveMsg",
      "outputs": [],
      "payable": false,
      "stateMutability": "nonpayable",
      "type": "function"
    },
    {
      "constant": false,
      "inputs": [],
      "name": "burnAccess",
      "outputs": [],
      "payable": false,
      "stateMutability": "nonpayable",
      "type": "function"
    },
    {
      "constant": true,
      "inputs": [
        {
          "name": "",
          "type": "address"
        }
      ],
      "name": "signers",
      "outputs": [
        {
          "name": "",
          "type": "address"
        }
      ],
      "payable": false,
      "stateMutability": "view",
      "type": "function"
    },
    {
      "constant": false,
      "inputs": [
        {
          "name": "_target",
          "type": "address"
        }
      ],
      "name": "setTarget",
      "outputs": [],
      "payable": false,
      "stateMutability": "nonpayable",
      "type": "function"
    },
    {
      "constant": true,
      "inputs": [],
      "name": "registry",
      "outputs": [
        {
          "name": "",
          "type": "address"
        }
      ],
      "payable": false,
      "stateMutability": "view",
      "type": "function"
    },
    {
      "constant": true,
      "inputs": [],
      "name": "signerCount",
      "outputs": [
        {
          "name": "",
          "type": "uint256"
        }
      ],
      "payable": false,
      "stateMutability": "view",
      "type": "function"
    },
    {
      "constant": true,
      "inputs": [],
      "name": "guard",
      "outputs": [
        {
          "name": "",
          "type": "address"
        }
      ],
      "payable": false,
      "stateMutability": "view",
      "type": "function"
    },
    {
      "constant": true,
      "inputs": [
        {
          "name": "",
          "type": "bytes32"
        }
      ],
      "name": "approvedHashes",
      "outputs": [
        {
          "name": "",
          "type": "bool"
        }
      ],
      "payable": false,
      "stateMutability": "view",
      "type": "function"
    },
    {
      "constant": false,
      "inputs": [
        {
          "name": "_prevSigner",
          "type": "address"
        },
        {
          "name": "_signer",
          "type": "address"
        }
      ],
      "name": "removeSigner",
      "outputs": [],
      "payable": false,
      "stateMutability": "nonpayable",
      "type": "function"
    },
    {
      "constant": true,
      "inputs": [],
      "name": "getSigners",
      "outputs": [
        {
          "name": "",
          "type": "address[]"
        }
      ],
      "payable": false,
      "stateMutability": "view",
      "type": "function"
    },
    {
      "constant": false,
      "inputs": [
        {
          "name": "_threshold",
          "type": "uint256"
        }
      ],
      "name": "setThreshold",
      "outputs": [],
      "payable": false,
      "stateMutability": "nonpayable",
      "type": "function"
    },
    {
      "constant": true,
      "inputs": [
        {
          "name": "_hash",
          "type": "bytes32"
        },
        {
          "name": "_src",
          "type": "address"
        }
      ],
      "name": "isSignedHash",
      "outputs": [
        {
          "name": "",
          "type": "bool"
        }
      ],
      "payable": false,
      "stateMutability": "view",
      "type": "function"
    },
    {
      "constant": true,
      "inputs": [],
      "name": "grave",
      "outputs": [
        {
          "name": "",
          "type": "address"
        }
      ],
      "payable": false,
      "stateMutability": "view",
      "type": "function"
    },
    {
      "constant": true,
      "inputs": [
        {
          "name": "_dst",
          "type": "address"
        },
        {
          "name": "_val",
          "type": "uint256"
        },
        {
          "name": "_data",
          "type": "bytes"
        },
        {
          "name": "_nonce",
          "type": "uint256"
        }
      ],
      "name": "encodeTxData",
      "outputs": [
        {
          "name": "",
          "type": "bytes"
        }
      ],
      "payable": false,
      "stateMutability": "view",
      "type": "function"
    },
    {
      "constant": false,
      "inputs": [
        {
          "name": "_signer",
          "type": "address"
        },
        {
          "name": "_threshold",
          "type": "uint256"
        }
      ],
      "name": "addSignerSetThreshold",
      "outputs": [],
      "payable": false,
      "stateMutability": "nonpayable",
      "type": "function"
    },
    {
      "constant": true,
      "inputs": [
        {
          "name": "",
          "type": "bytes32"
        },
        {
          "name": "",
          "type": "address"
        }
      ],
      "name": "signedHashes",
      "outputs": [
        {
          "name": "",
          "type": "bool"
        }
      ],
      "payable": false,
      "stateMutability": "view",
      "type": "function"
    },
    {
      "constant": true,
      "inputs": [],
      "name": "TX_TYPEHASH",
      "outputs": [
        {
          "name": "",
          "type": "bytes32"
        }
      ],
      "payable": false,
      "stateMutability": "view",
      "type": "function"
    },
    {
      "constant": true,
      "inputs": [],
      "name": "nonce",
      "outputs": [
        {
          "name": "",
          "type": "uint256"
        }
      ],
      "payable": false,
      "stateMutability": "view",
      "type": "function"
    },
    {
      "constant": true,
      "inputs": [],
      "name": "target",
      "outputs": [
        {
          "name": "",
          "type": "address"
        }
      ],
      "payable": false,
      "stateMutability": "view",
      "type": "function"
    },
    {
      "constant": false,
      "inputs": [
        {
          "name": "_hash",
          "type": "bytes32"
        }
      ],
      "name": "approveHash",
      "outputs": [],
      "payable": false,
      "stateMutability": "nonpayable",
      "type": "function"
    },
    {
      "constant": true,
      "inputs": [
        {
          "name": "_src",
          "type": "address"
        },
        {
          "name": "_sig",
          "type": "bytes4"
        }
      ],
      "name": "isAuthorized",
      "outputs": [
        {
          "name": "",
          "type": "bool"
        }
      ],
      "payable": false,
      "stateMutability": "view",
      "type": "function"
    },
    {
      "constant": true,
      "inputs": [
        {
          "name": "_chainId",
          "type": "uint256"
        },
        {
          "name": "_setupBlock",
          "type": "uint256"
        },
        {
          "name": "_verifierAddr",
          "type": "address"
        },
        {
          "name": "_verifierTarget",
          "type": "address"
        }
      ],
      "name": "getDomainSeparator",
      "outputs": [
        {
          "name": "",
          "type": "bytes32"
        }
      ],
      "payable": false,
      "stateMutability": "view",
      "type": "function"
    },
    {
      "constant": false,
      "inputs": [
        {
          "name": "_dst",
          "type": "address"
        },
        {
          "name": "_val",
          "type": "uint256"
        },
        {
          "name": "_data",
          "type": "bytes"
        },
        {
          "name": "_sigs",
          "type": "bytes"
        }
      ],
      "name": "execute",
      "outputs": [
        {
          "name": "success",
          "type": "bool"
        }
      ],
      "payable": false,
      "stateMutability": "nonpayable",
      "type": "function"
    },
    {
      "constant": true,
      "inputs": [
        {
          "name": "_msg",
          "type": "bytes"
        }
      ],
      "name": "encodeMsgData",
      "outputs": [
        {
          "name": "",
          "type": "bytes"
        }
      ],
      "payable": false,
      "stateMutability": "view",
      "type": "function"
    },
    {
      "constant": false,
      "inputs": [
        {
          "name": "_guard",
          "type": "address"
        }
      ],
      "name": "setGuard",
      "outputs": [],
      "payable": false,
      "stateMutability": "nonpayable",
      "type": "function"
    },
    {
      "constant": true,
      "inputs": [],
      "name": "CLAIM_KEY",
      "outputs": [
        {
          "name": "",
          "type": "bytes32"
        }
      ],
      "payable": false,
      "stateMutability": "view",
      "type": "function"
    },
    {
      "constant": false,
      "inputs": [
        {
          "name": "_signer",
          "type": "address"
        }
      ],
      "name": "addSigner",
      "outputs": [],
      "payable": false,
      "stateMutability": "nonpayable",
      "type": "function"
    },
    {
      "constant": true,
      "inputs": [],
      "name": "CLAIM_ADDR",
      "outputs": [
        {
          "name": "",
          "type": "address"
        }
      ],
      "payable": false,
      "stateMutability": "view",
      "type": "function"
    },
    {
      "constant": true,
      "inputs": [],
      "name": "domainSeparator",
      "outputs": [
        {
          "name": "",
          "type": "bytes32"
        }
      ],
      "payable": false,
      "stateMutability": "view",
      "type": "function"
    },
    {
      "inputs": [
        {
          "name": "_guard",
          "type": "address"
        }
      ],
      "payable": false,
      "stateMutability": "nonpayable",
      "type": "constructor"
    },
    {
      "payable": true,
      "stateMutability": "payable",
      "type": "fallback"
    },
    {
      "anonymous": false,
      "inputs": [
        {
          "indexed": true,
          "name": "dst",
          "type": "address"
        }
      ],
      "name": "Execute",
      "type": "event"
    },
    {
      "anonymous": false,
      "inputs": [
        {
          "indexed": true,
          "name": "hash",
          "type": "bytes32"
        }
      ],
      "name": "ApproveHash",
      "type": "event"
    },
    {
      "anonymous": false,
      "inputs": [
        {
          "indexed": true,
          "name": "hash",
          "type": "bytes32"
        },
        {
          "indexed": true,
          "name": "src",
          "type": "address"
        }
      ],
      "name": "SignHash",
      "type": "event"
    },
    {
      "anonymous": false,
      "inputs": [
        {
          "indexed": true,
          "name": "grave",
          "type": "address"
        }
      ],
      "name": "SetGrave",
      "type": "event"
    },
    {
      "anonymous": false,
      "inputs": [
        {
          "indexed": true,
          "name": "recipient",
          "type": "address"
        }
      ],
      "name": "Kill",
      "type": "event"
    },
    {
      "anonymous": false,
      "inputs": [
        {
          "indexed": true,
          "name": "setBy",
          "type": "address"
        },
        {
          "indexed": true,
          "name": "guard",
          "type": "address"
        }
      ],
      "name": "SetGuard",
      "type": "event"
    },
    {
      "anonymous": false,
      "inputs": [
        {
          "indexed": true,
          "name": "signer",
          "type": "address"
        }
      ],
      "name": "AddSigner",
      "type": "event"
    },
    {
      "anonymous": false,
      "inputs": [
        {
          "indexed": true,
          "name": "signer",
          "type": "address"
        }
      ],
      "name": "RemoveSigner",
      "type": "event"
    },
    {
      "anonymous": false,
      "inputs": [
        {
          "indexed": true,
          "name": "threshold",
          "type": "uint256"
        }
      ],
      "name": "SetThreshold",
      "type": "event"
    },
    {
      "anonymous": false,
      "inputs": [],
      "name": "BurnAccess",
      "type": "event"
    },
    {
      "constant": false,
      "inputs": [
        {
          "name": "_threshold",
          "type": "uint256"
        },
        {
          "name": "_chainId",
          "type": "uint256"
        },
        {
          "name": "_signers",
          "type": "address[]"
        },
        {
          "name": "_grave",
          "type": "address"
        },
        {
          "name": "_guard",
          "type": "address"
        },
        {
          "name": "_registry",
          "type": "address"
        }
      ],
      "name": "setup",
      "outputs": [],
      "payable": false,
      "stateMutability": "nonpayable",
      "type": "function"
    },
    {
      "constant": false,
      "inputs": [
        {
          "name": "_threshold",
          "type": "uint256"
        },
        {
          "name": "_chainId",
          "type": "uint256"
        },
        {
          "name": "_signers",
          "type": "address[]"
        },
        {
          "name": "_grave",
          "type": "address"
        },
        {
          "name": "_guard",
          "type": "address"
        }
      ],
      "name": "setup",
      "outputs": [],
      "payable": false,
      "stateMutability": "nonpayable",
      "type": "function"
    },
    {
      "constant": true,
      "inputs": [
        {
          "name": "_signer",
          "type": "address"
        }
      ],
      "name": "isValidSigner",
      "outputs": [
        {
          "name": "",
          "type": "bool"
        }
      ],
      "payable": false,
      "stateMutability": "view",
      "type": "function"
    }
  ],
  "bytecode": "0x608060405234801561001057600080fd5b5060405162002a8038038062002a808339818101604052602081101561003557600080fd5b505180808061004c816001600160e01b0361005516565b505050506100a1565b600480546001600160a01b0319166001600160a01b03831690811790915560405133907fa1a6a6164848fdba82d01d50ad73927295d9d4ccfba42020625dd3d73206739090600090a350565b6129cf80620000b16000396000f3fe6080604052600436106102675760003560e01c806394cf795e11610144578063d4d9bdcd116100b6578063dadafdab1161007a578063dadafdab14610c9e578063e19a9dd914610d4f578063e5bccf5914610d82578063eb12d61e14610d97578063ed4ac2e414610dca578063f698da2514610ddf57610267565b8063d4d9bdcd14610ad7578063d5f5058214610b01578063d9972b9614610b34578063d9b4951e14610b77578063da0980c714610bbe57610267565b8063a94670d311610108578063a94670d31461096b578063ac3802db146109a4578063ae604e451461033d578063afeabda4146109dd578063affed0e014610aad578063d4b8399214610ac257610267565b806394cf795e14610751578063960bfe04146107b65780639a949a5e146107e0578063a41cd03414610819578063a944ad051461082e57610267565b806342cde4e8116101dd578063776d1a01116101a1578063776d1a01146106665780637b103999146106995780637ca548c6146106ae5780637ceab3b1146106c357806387bd84cc146106d85780638d20efa71461071657610267565b806342cde4e81461057957806354dcc1cc1461058e5780635835a4cc146105a35780635d1fc0d51461061e578063736c0d5b1461063357610267565b80631fc9a3081161022f5780631fc9a3081461047e57806325445104146104c15780632ad722e2146104eb578063317fc6771461051e578063361e74ef1461053357806341c0e1b51461056457610267565b806302c190181461026957806304f86da11461033d57806315f39629146103645780631626ba7e146103df5780631db61b541461033d575b005b34801561027557600080fd5b50610267600480360360c081101561028c57600080fd5b813591602081013591810190606081016040820135600160201b8111156102b257600080fd5b8201836020820111156102c457600080fd5b803590602001918460208302840111600160201b831117156102e557600080fd5b919080806020026020016040519081016040528093929190818152602001838360200280828437600092019190915250929550506001600160a01b03833581169450602084013581169360400135169150610df49050565b34801561034957600080fd5b50610352610e71565b60408051918252519081900360200190f35b34801561037057600080fd5b506102676004803603602081101561038757600080fd5b810190602081018135600160201b8111156103a157600080fd5b8201836020820111156103b357600080fd5b803590602001918460018302840111600160201b831117156103d457600080fd5b509092509050610e76565b3480156103eb57600080fd5b506104616004803603604081101561040257600080fd5b81359190810190604081016020820135600160201b81111561042357600080fd5b82018360208201111561043557600080fd5b803590602001918460018302840111600160201b8311171561045657600080fd5b509092509050610f18565b604080516001600160e01b03199092168252519081900360200190f35b34801561048a57600080fd5b50610267600480360360608110156104a157600080fd5b506001600160a01b03813581169160208101359091169060400135610fc6565b3480156104cd57600080fd5b50610267600480360360208110156104e457600080fd5b5035611019565b3480156104f757600080fd5b506102676004803603602081101561050e57600080fd5b50356001600160a01b031661106f565b34801561052a57600080fd5b50610461610e71565b34801561053f57600080fd5b506105486110db565b604080516001600160a01b039092168252519081900360200190f35b34801561057057600080fd5b506102676110e0565b34801561058557600080fd5b50610352611189565b34801561059a57600080fd5b506103526110db565b3480156105af57600080fd5b50610267600480360360208110156105c657600080fd5b810190602081018135600160201b8111156105e057600080fd5b8201836020820111156105f257600080fd5b803590602001918460018302840111600160201b8311171561061357600080fd5b50909250905061118f565b34801561062a57600080fd5b50610267611222565b34801561063f57600080fd5b506105486004803603602081101561065657600080fd5b50356001600160a01b03166112d1565b34801561067257600080fd5b506102676004803603602081101561068957600080fd5b50356001600160a01b03166112ec565b3480156106a557600080fd5b5061054861139a565b3480156106ba57600080fd5b506103526113a9565b3480156106cf57600080fd5b506105486113af565b3480156106e457600080fd5b50610702600480360360208110156106fb57600080fd5b50356113be565b604080519115158252519081900360200190f35b34801561072257600080fd5b506102676004803603604081101561073957600080fd5b506001600160a01b03813581169160200135166113d3565b34801561075d57600080fd5b50610766611421565b60408051602080825283518183015283519192839290830191858101910280838360005b838110156107a257818101518382015260200161078a565b505050509050019250505060405180910390f35b3480156107c257600080fd5b50610267600480360360208110156107d957600080fd5b50356114ed565b3480156107ec57600080fd5b506107026004803603604081101561080357600080fd5b50803590602001356001600160a01b0316611536565b34801561082557600080fd5b5061054861157a565b34801561083a57600080fd5b506108f66004803603608081101561085157600080fd5b6001600160a01b0382351691602081013591810190606081016040820135600160201b81111561088057600080fd5b82018360208201111561089257600080fd5b803590602001918460018302840111600160201b831117156108b357600080fd5b91908080601f0160208091040260200160405190810160405280939291908181526020018383808284376000920191909152509295505091359250611589915050565b6040805160208082528351818301528351919283929083019185019080838360005b83811015610930578181015183820152602001610918565b50505050905090810190601f16801561095d5780820380516001836020036101000a031916815260200191505b509250505060405180910390f35b34801561097757600080fd5b506102676004803603604081101561098e57600080fd5b506001600160a01b0381351690602001356115f5565b3480156109b057600080fd5b50610702600480360360408110156109c757600080fd5b50803590602001356001600160a01b0316611647565b3480156109e957600080fd5b50610267600480360360a0811015610a0057600080fd5b813591602081013591810190606081016040820135600160201b811115610a2657600080fd5b820183602082011115610a3857600080fd5b803590602001918460208302840111600160201b83111715610a5957600080fd5b919080806020026020016040519081016040528093929190818152602001838360200280828437600092019190915250929550506001600160a01b0383358116945060209093013590921691506116679050565b348015610ab957600080fd5b5061035261170f565b348015610ace57600080fd5b50610548611715565b348015610ae357600080fd5b5061026760048036036020811015610afa57600080fd5b5035611724565b348015610b0d57600080fd5b5061070260048036036020811015610b2457600080fd5b50356001600160a01b031661176d565b348015610b4057600080fd5b5061070260048036036040811015610b5757600080fd5b5080356001600160a01b031690602001356001600160e01b031916611845565b348015610b8357600080fd5b5061035260048036036080811015610b9a57600080fd5b508035906020810135906001600160a01b0360408201358116916060013516611851565b348015610bca57600080fd5b5061070260048036036080811015610be157600080fd5b6001600160a01b0382351691602081013591810190606081016040820135600160201b811115610c1057600080fd5b820183602082011115610c2257600080fd5b803590602001918460018302840111600160201b83111715610c4357600080fd5b919390929091602081019035600160201b811115610c6057600080fd5b820183602082011115610c7257600080fd5b803590602001918460018302840111600160201b83111715610c9357600080fd5b5090925090506118aa565b348015610caa57600080fd5b506108f660048036036020811015610cc157600080fd5b810190602081018135600160201b811115610cdb57600080fd5b820183602082011115610ced57600080fd5b803590602001918460018302840111600160201b83111715610d0e57600080fd5b91908080601f016020809104026020016040519081016040528093929190818152602001838380828437600092019190915250929550611a04945050505050565b348015610d5b57600080fd5b5061026760048036036020811015610d7257600080fd5b50356001600160a01b0316611a4d565b348015610d8e57600080fd5b50610352611ab9565b348015610da357600080fd5b5061026760048036036020811015610dba57600080fd5b50356001600160a01b0316611ad4565b348015610dd657600080fd5b50610548610e71565b348015610deb57600080fd5b50610352611b1d565b600a546001600160a01b031615610e41576040805162461bcd60e51b815260206004820152600c60248201526b1c9959da5cdd1c9e4b5cd95d60a21b604482015290519081900360640190fd5b600a80546001600160a01b0319166001600160a01b038316179055610e698686868686611667565b505050505050565b600081565b610e7f3361176d565b610ebf576040805162461bcd60e51b815260206004820152600c60248201526b3737ba16b096b9b4b3b732b960a11b604482015290519081900360640190fd5b6000610f0083838080601f016020809104026020016040519081016040528093929190818152602001838380828437600092019190915250611a0492505050565b805190602001209050610f138133611b23565b505050565b600081610f7b5760008481526008602052604090205460ff16610f76576040805162461bcd60e51b81526020600482015260116024820152701a185cda0b5b9bdd0b585c1c1c9bdd9959607a1b604482015290519081900360640190fd5b610fbc565b610fbc83838080601f016020809104026020016040519081016040528093929190818152602001838380828437600092019190915250889250611b7e915050565b5060009392505050565b333014611006576040805162461bcd60e51b815260206004820152600960248201526837b7363c96b9b2b63360b91b604482015290519081900360640190fd5b61100f81611d07565b610f138383611dce565b6110223361176d565b611062576040805162461bcd60e51b815260206004820152600c60248201526b3737ba16b096b9b4b3b732b960a11b604482015290519081900360640190fd5b61106c8133611b23565b50565b611085336000356001600160e01b031916611845565b6110d2576040805162461bcd60e51b8152602060048201526019602482015278185d5d1a0b58da1958dad95c8b5d5b985d5d1a1bdc9a5e9959603a1b604482015290519081900360640190fd5b61106c81611f73565b600181565b6110f6336000356001600160e01b031916611845565b611143576040805162461bcd60e51b8152602060048201526019602482015278185d5d1a0b58da1958dad95c8b5d5b985d5d1a1bdc9a5e9959603a1b604482015290519081900360640190fd5b6005546040516001600160a01b03909116907f4b989c8e96b2b5c3aaa80c31769c41b11af9675189b0e4f6b49b82938db9afb490600090a26005546001600160a01b0316ff5b60015481565b3330146111cf576040805162461bcd60e51b815260206004820152600960248201526837b7363c96b9b2b63360b91b604482015290519081900360640190fd5b600061121083838080601f016020809104026020016040519081016040528093929190818152602001838380828437600092019190915250611a0492505050565b805190602001209050610f1381611fbd565b333014611262576040805162461bcd60e51b815260206004820152600960248201526837b7363c96b9b2b63360b91b604482015290519081900360640190fd5b60001960019081556000600281905590815260036020527fa15bc60c955c405d20d9149c709e2460f1c2d9a497496a7f46004d1772c3054c80546001600160a01b03191690556040517f91c87a2ef9127fdcd3960a8ccefb34f86a78dfc6842a052539dcd9398875c0649190a1565b6003602052600090815260409020546001600160a01b031681565b33301461132c576040805162461bcd60e51b815260206004820152600960248201526837b7363c96b9b2b63360b91b604482015290519081900360640190fd5b6001600160a01b038116611378576040805162461bcd60e51b815260206004820152600e60248201526d1a5b9d985b1a590b5d185c99d95d60921b604482015290519081900360640190fd5b600080546001600160a01b0319166001600160a01b0392909216919091179055565b600a546001600160a01b031681565b60025481565b6004546001600160a01b031681565b60086020526000908152604090205460ff1681565b333014611413576040805162461bcd60e51b815260206004820152600960248201526837b7363c96b9b2b63360b91b604482015290519081900360640190fd5b61141d8282611dce565b5050565b606080600254604051908082528060200260200182016040528015611450578160200160208202803883390190505b506001600090815260036020527fa15bc60c955c405d20d9149c709e2460f1c2d9a497496a7f46004d1772c3054c54919250906001600160a01b03165b6001600160a01b0381166001146114e557808383815181106114ab57fe5b6001600160a01b0392831660209182029290920181019190915291811660009081526003909252604090912054600192909201911661148d565b509091505090565b33301461152d576040805162461bcd60e51b815260206004820152600960248201526837b7363c96b9b2b63360b91b604482015290519081900360640190fd5b61106c81611d07565b60006001600160a01b038216331480611571575060008381526009602090815260408083206001600160a01b038616845290915290205460ff165b90505b92915050565b6005546001600160a01b031681565b8151602080840191909120604080516000818501526001600160a01b038816818301526060818101889052608082019390935260a08082018690528251808303909101815260c090910190915280519201919091206007546115eb9082612000565b9695505050505050565b333014611635576040805162461bcd60e51b815260206004820152600960248201526837b7363c96b9b2b63360b91b604482015290519081900360640190fd5b61163e8261203e565b61141d81611d07565b600960209081526000928352604080842090915290825290205460ff1681565b600754156116b3576040805162461bcd60e51b8152602060048201526014602482015273191bdb585a5b8b5cd95c185c985d1bdc8b5cd95d60621b604482015290519081900360640190fd5b6000546116ce908590439030906001600160a01b0316611851565b6007556116db83866121a9565b600580546001600160a01b0319166001600160a01b0384161790556116ff82611f73565b611708816123de565b5050505050565b60065481565b6000546001600160a01b031681565b333014611764576040805162461bcd60e51b815260206004820152600960248201526837b7363c96b9b2b63360b91b604482015290519081900360640190fd5b61106c81611fbd565b600a5460408051624b594360e81b8152815190819003600301812063e1661eff60e01b825260006004830181905233602484015260448301919091529151919283926001600160a01b039091169163e1661eff916064808301926020929190829003018186803b1580156117e057600080fd5b505afa1580156117f4573d6000803e3d6000fd5b505050506040513d602081101561180a57600080fd5b50516001600160a01b0384811660009081526003602052604090205491925060018314911615801590819061183c5750815b95945050505050565b6000611571838361242a565b6040805160006020808301919091526001600160a01b0385811683850152939093166060820152923f608084015260a083019390935260c0808301949094528251808303909401845260e0909101909152815191012090565b6000806118f2888888888080601f0160208091040260200160405190810160405280939291908181526020018383808284376000920191909152505060065491506115899050565b805160209182012060068054600101905560408051601f8701849004840281018401909152858152909250611943918690869081908401838280828437600092019190915250859250611b7e915050565b61198588885a89898080601f0160208091040260200160405190810160405280939291908181526020018383808284376000920191909152506124df92505050565b9150816119c5576040805162461bcd60e51b81526020600482015260096024820152681d1e0b59985a5b195960ba1b604482015290519081900360640190fd5b6040516001600160a01b038916907ff3294c134a5ce954b7ceee3617df96cb7d06ef9b8de3f41cadd3e632cf1278b490600090a2509695505050505050565b8051602080830191909120604080516000818501528082019290925280518083038201815260609283019091528051920191909120600754611a469082612000565b9392505050565b611a63336000356001600160e01b031916611845565b611ab0576040805162461bcd60e51b8152602060048201526019602482015278185d5d1a0b58da1958dad95c8b5d5b985d5d1a1bdc9a5e9959603a1b604482015290519081900360640190fd5b61106c816123de565b60408051624b594360e81b8152905190819003600301902081565b333014611b14576040805162461bcd60e51b815260206004820152600960248201526837b7363c96b9b2b63360b91b604482015290519081900360640190fd5b61106c8161203e565b60075481565b60008281526009602090815260408083206001600160a01b0385168085529252808320805460ff1916600117905551909184917f4bb8e484b693f3e5456141c65f14ad4cb21ba2b7998362dafee5a203f259776e9190a35050565b600154611b9281604163ffffffff6124f716565b83511015611bd9576040805162461bcd60e51b815260206004820152600f60248201526e6e6f742d656e6f7567682d7369677360881b604482015290519081900360640190fd5b600080805b83811015610e69576000611bf28783612550565b905060ff8116611c0f57611c088787848861255e565b9250611c95565b8060ff1660011415611c8757611c2587836127f3565b9250611c318684611536565b611c82576040805162461bcd60e51b815260206004820152601760248201527f696e76616c69642d7369676e65642d686173682d736967000000000000000000604482015290519081900360640190fd5b611c95565b611c92878784612808565b92505b836001600160a01b0316836001600160a01b0316118015611cba5750611cba8361176d565b611cf9576040805162461bcd60e51b815260206004820152600b60248201526a696e76616c69642d73696760a81b604482015290519081900360640190fd5b509091508190600101611bde565b600254811115611d52576040805162461bcd60e51b81526020600482015260116024820152701a5b9d985b1a590b5d1a1c995cda1bdb19607a1b604482015290519081900360640190fd5b60008111611d9b576040805162461bcd60e51b81526020600482015260116024820152701a5b9d985b1a590b5d1a1c995cda1bdb19607a1b604482015290519081900360640190fd5b600181905560405181907f46e8115bf463f9c29a9424fe152addef1bfaf2b43180d19bb7c2c78cc0ff1ebf90600090a250565b600254600090611de590600163ffffffff61289116565b9050600154811015611e33576040805162461bcd60e51b81526020600482015260126024820152716e6f742d656e6f7567682d7369676e65727360701b604482015290519081900360640190fd5b6001600160a01b03838116600090815260036020526040902054811690831614611e99576040805162461bcd60e51b815260206004820152601260248201527134b73b30b634b216b83932bb29b4b3b732b960711b604482015290519081900360640190fd5b6001600160a01b03821615801590611ebb57506001600160a01b038216600114155b611efd576040805162461bcd60e51b815260206004820152600e60248201526d34b73b30b634b216b9b4b3b732b960911b604482015290519081900360640190fd5b6001600160a01b03828116600081815260036020526040808220805488861684528284208054919096166001600160a01b03199182161790955583835280549094169093556002849055915190917f1803740ef72fc16e647c10fe2d31cf61a1578081960c2e3fb7f5aa957e82f55091a2505050565b600580546001600160a01b0319166001600160a01b0383169081179091556040517f4599eb158eb043de29b894d2596261ae96527bd3bc93cb5a7885f591fdd2fa8a90600090a250565b600081815260086020526040808220805460ff191660011790555182917fb81b2902afc22dd4d06e3b4818a47a4b34c45475ecd4ca76c06f1a043383c0dc91a250565b60408051601960f81b6020820152600160f81b6021820152602281019390935260428084019290925280518084039092018252606290920190915290565b6001600160a01b0381161580159061206057506001600160a01b038116600114155b6120a2576040805162461bcd60e51b815260206004820152600e60248201526d34b73b30b634b216b9b4b3b732b960911b604482015290519081900360640190fd5b6001600160a01b038181166000908152600360205260409020541615612102576040805162461bcd60e51b815260206004820152601060248201526f323ab83634b1b0ba3296b9b4b3b732b960811b604482015290519081900360640190fd5b60036020527fa15bc60c955c405d20d9149c709e2460f1c2d9a497496a7f46004d1772c3054c80546001600160a01b038381166000818152604081208054939094166001600160a01b03199384161790935560019283905283549091161790915560025461216f916128ee565b6002556040516001600160a01b038216907f637c77a2d598a51d085d4a2413332c45a235a25ee855bf3dfcdc2c8fcf02860f90600090a250565b600154156121ee576040805162461bcd60e51b815260206004820152600d60248201526c1d1a1c995cda1bdb190b5cd95d609a1b604482015290519081900360640190fd5b60008111612232576040805162461bcd60e51b815260206004820152600c60248201526b1b9bcb5d1a1c995cda1bdb1960a21b604482015290519081900360640190fd5b815181111561227d576040805162461bcd60e51b81526020600482015260126024820152716e6f742d656e6f7567682d7369676e65727360701b604482015290519081900360640190fd5b600160005b83518110156123a957600084828151811061229957fe5b6020026020010151905060006001600160a01b0316816001600160a01b0316141580156122d057506001600160a01b038116600114155b612312576040805162461bcd60e51b815260206004820152600e60248201526d34b73b30b634b216b9b4b3b732b960911b604482015290519081900360640190fd5b6001600160a01b038181166000908152600360205260409020541615612372576040805162461bcd60e51b815260206004820152601060248201526f323ab83634b1b0ba3296b9b4b3b732b960811b604482015290519081900360640190fd5b6001600160a01b03928316600090815260036020526040902080546001600160a01b03191693821693909317909255600101612282565b506001600160a01b0316600090815260036020526040902080546001600160a01b031916600190811790915591516002559055565b600480546001600160a01b0319166001600160a01b03831690811790915560405133907fa1a6a6164848fdba82d01d50ad73927295d9d4ccfba42020625dd3d73206739090600090a350565b6004546000906001600160a01b031661244557506000611574565b600480546040805163b700961360e01b81526001600160a01b03878116948201949094523060248201526001600160e01b0319861660448201529051929091169163b700961391606480820192602092909190829003018186803b1580156124ac57600080fd5b505afa1580156124c0573d6000803e3d6000fd5b505050506040513d60208110156124d657600080fd5b50519392505050565b6000806000835160208501878988f195945050505050565b60008261250657506000611574565b8282028284828161251357fe5b04146115715760405162461bcd60e51b815260040180806020018281038252602181526020018061297a6021913960400191505060405180910390fd5b604102016060015160001a90565b600080600061256d8786612948565b909350915082905061258685604163ffffffff6124f716565b8210156125d3576040805162461bcd60e51b8152602060048201526016602482015275696e76616c69642d636f6e74726163742d7369672d7360501b604482015290519081900360640190fd5b87516125e683602063ffffffff6128ee16565b1115612632576040805162461bcd60e51b8152602060048201526016602482015275696e76616c69642d636f6e74726163742d7369672d7360501b604482015290519081900360640190fd5b600060606126408a85612965565b8b5191935091506126688361265c87602063ffffffff6128ee16565b9063ffffffff6128ee16565b11156126b2576040805162461bcd60e51b8152602060048201526014602482015273696e76616c69642d636f6e74726163742d73696760601b604482015290519081900360640190fd5b60408051630b135d3f60e11b8152600481018b8152602482019283528351604483015283516000936001600160a01b03881693631626ba7e938f93889391926064019060208501908083838c5b838110156127175781810151838201526020016126ff565b50505050905090810190601f1680156127445780820380516001836020036101000a031916815260200191505b50935050505060206040518083038186803b15801561276257600080fd5b505afa158015612776573d6000803e3d6000fd5b505050506040513d602081101561278c57600080fd5b505190506001600160e01b03198116156127e4576040805162461bcd60e51b8152602060048201526014602482015273696e76616c69642d636f6e74726163742d73696760601b604482015290519081900360640190fd5b50919998505050505050505050565b600080612800848461296e565b949350505050565b6000806000806128188786612948565b92509250925060018684848460405160008152602001604052604051808581526020018460ff1660ff1681526020018381526020018281526020019450505050506020604051602081039080840390855afa15801561287b573d6000803e3d6000fd5b5050604051601f19015198975050505050505050565b6000828211156128e8576040805162461bcd60e51b815260206004820152601e60248201527f536166654d6174683a207375627472616374696f6e206f766572666c6f770000604482015290519081900360640190fd5b50900390565b600082820183811015611571576040805162461bcd60e51b815260206004820152601b60248201527f536166654d6174683a206164646974696f6e206f766572666c6f770000000000604482015290519081900360640190fd5b604102016020810151604082015160609092015160001a92909190565b01602001805191565b60410201602001519056fe536166654d6174683a206d756c7469706c69636174696f6e206f766572666c6f77a265627a7a723058203fb3f6906554e420a755af57081eb814cddb483993a6f82e749246527ca7cfc264736f6c634300050a0032",
  "source": "pragma solidity ^0.5.10;\n\nimport \"../interfaces/IRegistry.sol\";\n\nimport \"./Multisig.sol\";\n\ncontract OrgMultisig is Multisig {\n\n    /////\n    // Constants:\n    /////\n\n    // Claim values. All tx participants must have a claim in the registry from CLAIM_ADDR with:\n    //  - key == CLAIM_KEY\n    //  - value == CLAIM_VAL\n    address public constant CLAIM_ADDR = address(0);\n    bytes32 public constant CLAIM_KEY = keccak256(\"KYC\");\n    bytes32 public constant CLAIM_VAL = bytes32(uint(1));\n\n    /////\n    // Storage:\n    /////\n\n    // Registry contract to check claims\n    IRegistry public registry;\n\n    /////\n    // Constructor:\n    /////\n\n    /**\n    * @dev Constructor. ** Not run except for the base deployment! **\n    * @param _guard Address of a guard implementation\n    */\n    // solhint-disable-next-line no-empty-blocks\n    constructor(address _guard) public Multisig(_guard) {}\n\n    /////\n    // Initialization function:\n    /////\n\n    function setup(\n        uint256 _threshold,\n        uint256 _chainId,\n        address[] memory _signers,\n        address payable _grave,\n        address _guard,\n        address _registry\n    )\n        public\n    {\n        require(registry == IRegistry(address(0)), \"registry-set\");\n        registry = IRegistry(_registry);\n\n        Multisig.setup(_threshold, _chainId, _signers, _grave, _guard);\n    }\n\n    /////\n    // Public view functions:\n    /////\n\n    function isValidSigner(address _signer) \n        public \n        view \n        returns (bool)\n    {\n        bytes32 claimVal = registry.getClaim(\n            CLAIM_ADDR,\n            msg.sender,\n            CLAIM_KEY\n        );\n        bool validClaim = claimVal == CLAIM_VAL;\n        bool validSigner = signers[_signer] != address(0);\n        return validSigner && validClaim;\n    }\n}\n",
  "sourcePath": "/home/ohm/dev/dsb/smart-contracts/contracts/multisig/OrgMultisig.sol",
  "compiler": {
    "name": "solc",
    "version": "0.5.10+commit.5a6ea5b1.Emscripten.clang"
  },
  "schemaVersion": "3.0.11",
  "updatedAt": "2019-08-24T21:48:18.554Z",
  "devdoc": {
    "methods": {
      "constructor": {
        "details": "Constructor. ** Not run except for the base deployment! **",
        "params": {
          "_guard": "Address of a guard implementation"
        }
      },
      "isAuthorized(address,bytes4)": {
        "details": "The check performed by calling `canCall` on the Guard instance. If no Guard instance is configured, function returns false (as a failsafe).",
        "params": {
          "_sig": "The function selector of the function being called.",
          "_src": "The address of the caller."
        },
        "return": "True, if the caller is authorized to make the call."
      },
      "setGuard(address)": {
        "params": {
          "_guard": "The address of the new Guard instance."
        }
      },
      "setTarget(address)": {
        "details": "Changes the target address. Can only be called from the address of this contract. NOTE: we don't inherit from SelfAuthorized here to avoid conflict of storage slots should the SelfAuthorized contract implementation change in the future.",
        "params": {
          "_target": "The new target address that proxies will delegatecall to."
        }
      }
    }
  },
  "userdoc": {
    "methods": {
      "execute(address,uint256,bytes,bytes)": {
        "notice": "//"
      },
      "isAuthorized(address,bytes4)": {
        "notice": "isAuthorized will return `true` if `_src` address can call the function with the `_sig` function selector in the current context (in this contract)."
      },
      "isValidSignature(bytes32,bytes)": {
        "notice": "//"
      },
      "isValidSigner(address)": {
        "notice": "//"
      },
      "setGrave(address)": {
        "notice": "//"
      },
      "setGuard(address)": {
        "notice": "setGuard will set the new Guard instance. The caller must have permissions to call this function in the current Guard instance."
      },
      "setThreshold(uint256)": {
        "notice": "//"
      },
      "setup(uint256,uint256,address[],address,address)": {
        "notice": "//"
      },
      "setup(uint256,uint256,address[],address,address,address)": {
        "notice": "//"
      }
    }
  }
}