{
  "contractName": "Proxy",
  "abi": [
    {
      "payable": true,
      "stateMutability": "payable",
      "type": "fallback"
    },
    {
      "constant": false,
      "inputs": [
        {
          "name": "_forwardData",
          "type": "bytes"
        },
        {
          "name": "_target",
          "type": "address"
        }
      ],
      "name": "setup",
      "outputs": [],
      "payable": true,
      "stateMutability": "payable",
      "type": "function"
    }
  ],
  "bytecode": "0x608060405234801561001057600080fd5b50610260806100206000396000f3fe60806040526004361061001e5760003560e01c8063f52cf0f11461004d575b600080546001600160a01b03169036908037600080366000845af43d6000803e80610048573d6000fd5b3d6000f35b6100fe6004803603604081101561006357600080fd5b81019060208101813564010000000081111561007e57600080fd5b82018360208201111561009057600080fd5b803590602001918460018302840111640100000000831117156100b257600080fd5b91908080601f016020809104026020016040519081016040528093929190818152602001838380828437600092019190915250929550505090356001600160a01b031691506101009050565b005b6101098161015d565b6101138282610216565b610159576040805162461bcd60e51b81526020600482015260126024820152711c1c9bde1e4b5cd95d1d5c0b59985a5b195960721b604482015290519081900360640190fd5b5050565b6000546001600160a01b0316156101a8576040805162461bcd60e51b815260206004820152600a6024820152691d185c99d95d0b5cd95d60b21b604482015290519081900360640190fd5b6001600160a01b0381166101f4576040805162461bcd60e51b815260206004820152600e60248201526d1a5b9d985b1a590b5d185c99d95d60921b604482015290519081900360640190fd5b600080546001600160a01b0319166001600160a01b0392909216919091179055565b6000806000845160208601855af4939250505056fea265627a7a723058200e67c3aad37ae82b1e263145126cdf3ee1dd1fa7b6f15f115049a8cfadf3a1df64736f6c634300050a0032",
  "source": "pragma solidity ^0.5.10;\n\n/**\n* @title Proxy\n* @author Disberse LTD\n* @notice A delegatecall proxy that provides a setup function rather than a constructor. Tightly\n* coupled with ProxyTarget.sol and Multisig.sol.\n* @dev Any contract that expects to be delegatecalled by this proxy must reserve the 0th storage\n* slot to avoid overwriting the proxy's target address.\n*/\ncontract Proxy {\n\n    /////\n    // Storage:\n    /////\n\n    // The address to delegatecall all functions to.\n    // *** Any proxy target must reserve the 0th storage slot ***\n    address internal target;\n\n    /////\n    // Initialization function:\n    /////\n\n    // the address argument, sets it as the target, then forwards the rest of\n    // the calldata to the proxy target with delegatecall (implemented)\n    /**\n    * @dev A setup function that replaces the constructor. Sets the target\n    * address, then forwards the `setup` call to the target.\n    * @param _forwardData The calldata to delegatecall to the target with\n    * (Should include the `setup` function selector)\n    * @param _target The target address to delegatecall to\n    */\n    function setup(\n        bytes memory _forwardData,\n        address _target\n    )\n        public\n        payable\n    {\n        _setupProxy(_target);\n        require(_forwardSetup(_forwardData, _target), \"proxy-setup-failed\");\n    }\n\n    /////\n    // Internal functions:\n    /////\n\n    /**\n    * @dev Checks that the target address has not already been set, then sets it to `_target`.\n    * @param _target The target address to delegatecall to\n    */\n    function _setupProxy(address _target)\n        internal\n    {\n        require(target == address(0), \"target-set\");\n        require(_target != address(0), \"invalid-target\");\n        target = _target;\n    }\n\n    /**\n    * @dev Forwards the setup call to the target, so that any additional setup logic can be run.\n    * @param _forwardData The calldata to delegatecall to the target with (should include the\n    * `setup` function selector)\n    * @param _target The target address to delegatecall to\n    */\n    function _forwardSetup(\n        bytes memory _forwardData,\n        address _target\n    )\n        internal\n        returns (bool success)\n    {\n        assembly {\n            // delegatecall to target with all remaining gas and the _forwardData\n            // NOTE: mload(foo), for `foo` of bytes type, will return the first 32B which is \n            // encoded as the length of the array (in bytes).\n            success := delegatecall(\n                gas,                        // Pass remaining gas when calling the target.\n                _target,                    // Contract address of the call target.\n                add(_forwardData, 0x20),    // Offset to the start of input data.\n                mload(_forwardData),        // Input data size (in bytes).  \n                0,                          // No return data.\n                0                           // See above.\n            )\n        }\n    }\n\n    /////\n    // Fallback function\n    /////\n\n    /**\n    * @dev Fallback function. Delegatecalls all calls to the target address\n    */\n    // TODO: refactor function into internal call?\n    function () external payable {\n\n        address _target = target;   // copy target onto stack\n\n        assembly {\n\n            // calldatacopy(dstOffset, calldataOffset, len)\n            // copy all calldata into mem at offset 0x00\n            calldatacopy(0, 0, calldatasize())\n\n            // delegatecall(gas, dst, argsOffset, argsLen, retOffset, retLen)\n            // delegatecall to target with all remaining gas, and the copied\n            // calldata. Do not expect returndata copied into memory (because\n            // we don't know the size of the expected returndata in advance)\n            let success := delegatecall(gas, _target, 0, calldatasize(), 0, 0)\n\n            // returndatacopy(dstOffset, returndataOffset, len)\n            // manually copy the the return data into memory\n            returndatacopy(0, 0, returndatasize())\n\n            // if delegatecall encountered exception, revert with returndata\n            if eq(success, 0) { revert(0, returndatasize()) }\n            // else, return with returndata\n            return(0, returndatasize())\n        }\n    }\n}\n",
  "sourcePath": "/home/ohm/dev/dsb/smart-contracts/contracts/multisig/Proxy.sol",
  "compiler": {
    "name": "solc",
    "version": "0.5.10+commit.5a6ea5b1.Emscripten.clang"
  },
  "schemaVersion": "3.0.11",
  "updatedAt": "2019-08-24T22:06:59.806Z",
  "devdoc": {
    "author": "Disberse LTD",
    "details": "Any contract that expects to be delegatecalled by this proxy must reserve the 0th storage slot to avoid overwriting the proxy's target address.",
    "methods": {
      "setup(bytes,address)": {
        "details": "A setup function that replaces the constructor. Sets the target address, then forwards the `setup` call to the target.",
        "params": {
          "_forwardData": "The calldata to delegatecall to the target with (Should include the `setup` function selector)",
          "_target": "The target address to delegatecall to"
        }
      }
    },
    "title": "Proxy"
  },
  "userdoc": {
    "methods": {},
    "notice": "A delegatecall proxy that provides a setup function rather than a constructor. Tightly coupled with ProxyTarget.sol and Multisig.sol."
  }
}