{
  "contractName": "ProxyTarget",
  "abi": [
    {
      "constant": true,
      "inputs": [],
      "name": "target",
      "outputs": [
        {
          "name": "",
          "type": "address"
        }
      ],
      "payable": false,
      "stateMutability": "view",
      "type": "function"
    },
    {
      "constant": false,
      "inputs": [
        {
          "name": "_target",
          "type": "address"
        }
      ],
      "name": "setTarget",
      "outputs": [],
      "payable": false,
      "stateMutability": "nonpayable",
      "type": "function"
    }
  ],
  "bytecode": "0x608060405234801561001057600080fd5b50610179806100206000396000f3fe608060405234801561001057600080fd5b50600436106100365760003560e01c8063776d1a011461003b578063d4b8399214610063575b600080fd5b6100616004803603602081101561005157600080fd5b50356001600160a01b0316610087565b005b61006b610135565b604080516001600160a01b039092168252519081900360200190f35b3330146100c7576040805162461bcd60e51b815260206004820152600960248201526837b7363c96b9b2b63360b91b604482015290519081900360640190fd5b6001600160a01b038116610113576040805162461bcd60e51b815260206004820152600e60248201526d1a5b9d985b1a590b5d185c99d95d60921b604482015290519081900360640190fd5b600080546001600160a01b0319166001600160a01b0392909216919091179055565b6000546001600160a01b03168156fea265627a7a72305820fc817acd3daa99dce3aa15995ad2b2a3a07d8e9ddc695aae495982744344ea9364736f6c634300050a0032",
  "source": "pragma solidity ^0.5.10;\n\n/**\n* @title ProxyTarget\n* @author Disberse LTD\n* @notice A base contract to be inherited by logic contracts expecting to be\n* delegatecalled from proxies\n* ** This contract must be inherited FIRST to avoid overwriting the proxy's\n* target address\n*/\ncontract ProxyTarget {\n\n    /////\n    // Storage:\n    /////\n\n    // Reserve the 0th storage slot, which will hold the target for all proxies that delegatecall to\n    // this contract:\n    address public target;\n\n    /////\n    // Public:\n    /////\n\n    /**\n    * @dev Changes the target address. Can only be called from the address of this contract.\n    * NOTE: we don't inherit from SelfAuthorized here to avoid conflict of storage slots should the\n    * SelfAuthorized contract implementation change in the future.\n    * @param _target The new target address that proxies will delegatecall to.\n    */\n    function setTarget(address _target) \n        public\n    {\n        require(msg.sender == address(this), \"only-self\");\n        require(_target != address(0), \"invalid-target\");\n        target = _target;\n    }\n}\n",
  "sourcePath": "/home/ohm/dev/dsb/smart-contracts/contracts/multisig/ProxyTarget.sol",
  "compiler": {
    "name": "solc",
    "version": "0.5.10+commit.5a6ea5b1.Emscripten.clang"
  },
  "schemaVersion": "3.0.11",
  "updatedAt": "2019-08-17T01:13:52.705Z",
  "devdoc": {
    "author": "Disberse LTD",
    "methods": {
      "setTarget(address)": {
        "details": "Changes the target address. Can only be called from the address of this contract. NOTE: we don't inherit from SelfAuthorized here to avoid conflict of storage slots should the SelfAuthorized contract implementation change in the future.",
        "params": {
          "_target": "The new target address that proxies will delegatecall to."
        }
      }
    },
    "title": "ProxyTarget"
  },
  "userdoc": {
    "methods": {},
    "notice": "A base contract to be inherited by logic contracts expecting to be delegatecalled from proxies ** This contract must be inherited FIRST to avoid overwriting the proxy's target address"
  }
}