{
  "contractName": "ReasonLoggingRegistry",
  "abi": [
    {
      "constant": true,
      "inputs": [],
      "name": "guard",
      "outputs": [
        {
          "name": "",
          "type": "address"
        }
      ],
      "payable": false,
      "stateMutability": "view",
      "type": "function"
    },
    {
      "constant": true,
      "inputs": [],
      "name": "AUTH_CLAIM_ADDR",
      "outputs": [
        {
          "name": "",
          "type": "address"
        }
      ],
      "payable": false,
      "stateMutability": "view",
      "type": "function"
    },
    {
      "constant": true,
      "inputs": [
        {
          "name": "_src",
          "type": "address"
        },
        {
          "name": "_sig",
          "type": "bytes4"
        }
      ],
      "name": "isAuthorized",
      "outputs": [
        {
          "name": "",
          "type": "bool"
        }
      ],
      "payable": false,
      "stateMutability": "view",
      "type": "function"
    },
    {
      "constant": true,
      "inputs": [
        {
          "name": "_issuer",
          "type": "address"
        },
        {
          "name": "_subject",
          "type": "address"
        },
        {
          "name": "_key",
          "type": "bytes32"
        }
      ],
      "name": "getClaim",
      "outputs": [
        {
          "name": "",
          "type": "bytes32"
        }
      ],
      "payable": false,
      "stateMutability": "view",
      "type": "function"
    },
    {
      "constant": false,
      "inputs": [
        {
          "name": "_guard",
          "type": "address"
        }
      ],
      "name": "setGuard",
      "outputs": [],
      "payable": false,
      "stateMutability": "nonpayable",
      "type": "function"
    },
    {
      "constant": true,
      "inputs": [
        {
          "name": "",
          "type": "address"
        },
        {
          "name": "",
          "type": "address"
        },
        {
          "name": "",
          "type": "bytes32"
        }
      ],
      "name": "registry",
      "outputs": [
        {
          "name": "",
          "type": "bytes32"
        }
      ],
      "payable": false,
      "stateMutability": "view",
      "type": "function"
    },
    {
      "inputs": [
        {
          "name": "_guard",
          "type": "address"
        }
      ],
      "payable": false,
      "stateMutability": "nonpayable",
      "type": "constructor"
    },
    {
      "anonymous": false,
      "inputs": [
        {
          "indexed": false,
          "name": "issuer",
          "type": "address"
        },
        {
          "indexed": false,
          "name": "subject",
          "type": "address"
        },
        {
          "indexed": false,
          "name": "key",
          "type": "bytes32"
        },
        {
          "indexed": false,
          "name": "value",
          "type": "bytes32"
        },
        {
          "indexed": false,
          "name": "reason",
          "type": "bytes32"
        }
      ],
      "name": "ClaimSetReason",
      "type": "event"
    },
    {
      "anonymous": false,
      "inputs": [
        {
          "indexed": false,
          "name": "issuer",
          "type": "address"
        },
        {
          "indexed": false,
          "name": "subject",
          "type": "address"
        },
        {
          "indexed": false,
          "name": "key",
          "type": "bytes32"
        },
        {
          "indexed": false,
          "name": "reason",
          "type": "bytes32"
        }
      ],
      "name": "ClaimRemovedReason",
      "type": "event"
    },
    {
      "anonymous": false,
      "inputs": [
        {
          "indexed": false,
          "name": "issuer",
          "type": "address"
        },
        {
          "indexed": false,
          "name": "subject",
          "type": "address"
        },
        {
          "indexed": false,
          "name": "key",
          "type": "bytes32"
        },
        {
          "indexed": false,
          "name": "value",
          "type": "bytes32"
        },
        {
          "indexed": false,
          "name": "reason",
          "type": "bytes32"
        }
      ],
      "name": "AuthClaimSetReason",
      "type": "event"
    },
    {
      "anonymous": false,
      "inputs": [
        {
          "indexed": false,
          "name": "issuer",
          "type": "address"
        },
        {
          "indexed": false,
          "name": "subject",
          "type": "address"
        },
        {
          "indexed": false,
          "name": "key",
          "type": "bytes32"
        },
        {
          "indexed": false,
          "name": "reason",
          "type": "bytes32"
        }
      ],
      "name": "AuthClaimRemovedReason",
      "type": "event"
    },
    {
      "anonymous": false,
      "inputs": [
        {
          "indexed": true,
          "name": "setBy",
          "type": "address"
        },
        {
          "indexed": true,
          "name": "guard",
          "type": "address"
        }
      ],
      "name": "SetGuard",
      "type": "event"
    },
    {
      "constant": false,
      "inputs": [
        {
          "name": "_subject",
          "type": "address"
        },
        {
          "name": "_key",
          "type": "bytes32"
        },
        {
          "name": "_value",
          "type": "bytes32"
        },
        {
          "name": "_reason",
          "type": "bytes32"
        }
      ],
      "name": "setClaim",
      "outputs": [],
      "payable": false,
      "stateMutability": "nonpayable",
      "type": "function"
    },
    {
      "constant": false,
      "inputs": [
        {
          "name": "_subject",
          "type": "address"
        },
        {
          "name": "_key",
          "type": "bytes32"
        },
        {
          "name": "_value",
          "type": "bytes32"
        }
      ],
      "name": "setClaim",
      "outputs": [],
      "payable": false,
      "stateMutability": "nonpayable",
      "type": "function"
    },
    {
      "constant": false,
      "inputs": [
        {
          "name": "_key",
          "type": "bytes32"
        },
        {
          "name": "_value",
          "type": "bytes32"
        },
        {
          "name": "_reason",
          "type": "bytes32"
        }
      ],
      "name": "setSelfClaim",
      "outputs": [],
      "payable": false,
      "stateMutability": "nonpayable",
      "type": "function"
    },
    {
      "constant": false,
      "inputs": [
        {
          "name": "_key",
          "type": "bytes32"
        },
        {
          "name": "_value",
          "type": "bytes32"
        }
      ],
      "name": "setSelfClaim",
      "outputs": [],
      "payable": false,
      "stateMutability": "nonpayable",
      "type": "function"
    },
    {
      "constant": false,
      "inputs": [
        {
          "name": "_issuer",
          "type": "address"
        },
        {
          "name": "_subject",
          "type": "address"
        },
        {
          "name": "_key",
          "type": "bytes32"
        }
      ],
      "name": "removeClaim",
      "outputs": [],
      "payable": false,
      "stateMutability": "nonpayable",
      "type": "function"
    },
    {
      "constant": false,
      "inputs": [
        {
          "name": "_issuer",
          "type": "address"
        },
        {
          "name": "_subject",
          "type": "address"
        },
        {
          "name": "_key",
          "type": "bytes32"
        },
        {
          "name": "_reason",
          "type": "bytes32"
        }
      ],
      "name": "removeClaim",
      "outputs": [],
      "payable": false,
      "stateMutability": "nonpayable",
      "type": "function"
    },
    {
      "constant": false,
      "inputs": [
        {
          "name": "_subject",
          "type": "address"
        },
        {
          "name": "_key",
          "type": "bytes32"
        },
        {
          "name": "_value",
          "type": "bytes32"
        },
        {
          "name": "_reason",
          "type": "bytes32"
        }
      ],
      "name": "setAuthClaim",
      "outputs": [],
      "payable": false,
      "stateMutability": "nonpayable",
      "type": "function"
    },
    {
      "constant": false,
      "inputs": [
        {
          "name": "_subject",
          "type": "address"
        },
        {
          "name": "_key",
          "type": "bytes32"
        },
        {
          "name": "_value",
          "type": "bytes32"
        }
      ],
      "name": "setAuthClaim",
      "outputs": [],
      "payable": false,
      "stateMutability": "nonpayable",
      "type": "function"
    },
    {
      "constant": false,
      "inputs": [
        {
          "name": "_subject",
          "type": "address"
        },
        {
          "name": "_key",
          "type": "bytes32"
        },
        {
          "name": "_reason",
          "type": "bytes32"
        }
      ],
      "name": "removeAuthClaim",
      "outputs": [],
      "payable": false,
      "stateMutability": "nonpayable",
      "type": "function"
    },
    {
      "constant": false,
      "inputs": [
        {
          "name": "_subject",
          "type": "address"
        },
        {
          "name": "_key",
          "type": "bytes32"
        }
      ],
      "name": "removeAuthClaim",
      "outputs": [],
      "payable": false,
      "stateMutability": "nonpayable",
      "type": "function"
    }
  ],
  "bytecode": "0x608060405234801561001057600080fd5b50604051610b4a380380610b4a8339818101604052602081101561003357600080fd5b505180808061004a816001600160e01b0361005316565b5050505061009e565b600080546001600160a01b0319166001600160a01b0383169081178255604051909133917fa1a6a6164848fdba82d01d50ad73927295d9d4ccfba42020625dd3d7320673909190a350565b610a9d806100ad6000396000f3fe608060405234801561001057600080fd5b50600436106101005760003560e01c8063c7508ec711610097578063e1661eff11610066578063e1661eff1461033b578063e19a9dd914610383578063e6d970aa146103a9578063fc682cd9146103df57610100565b8063c7508ec714610253578063d395394414610289578063d9972b96146102c5578063e13d49551461030f57610100565b80637ceab3b1116100d35780637ceab3b1146101d25780639155b01a146101f65780639918925d14610219578063af1504801461024b57610100565b80630b0f1e8514610105578063431419151461013957806354d9f34e1461017157806374464f04146101a9575b600080fd5b6101376004803603606081101561011b57600080fd5b506001600160a01b038135169060208101359060400135610411565b005b6101376004803603608081101561014f57600080fd5b506001600160a01b03813516906020810135906040810135906060013561046f565b6101376004803603608081101561018757600080fd5b506001600160a01b0381351690602081013590604081013590606001356104d6565b610137600480360360608110156101bf57600080fd5b508035906020810135906040013561053d565b6101da610599565b604080516001600160a01b039092168252519081900360200190f35b6101376004803603604081101561020c57600080fd5b50803590602001356105a8565b6101376004803603606081101561022f57600080fd5b506001600160a01b0381351690602081013590604001356105b6565b6101da6105c6565b6101376004803603606081101561026957600080fd5b506001600160a01b038135811691602081013590911690604001356105cb565b6101376004803603608081101561029f57600080fd5b506001600160a01b038135811691602081013590911690604081013590606001356105d6565b6102fb600480360360408110156102db57600080fd5b5080356001600160a01b031690602001356001600160e01b031916610638565b604080519115158252519081900360200190f35b6101376004803603604081101561032557600080fd5b506001600160a01b03813516906020013561064d565b6103716004803603606081101561035157600080fd5b506001600160a01b03813581169160208101359091169060400135610657565b60408051918252519081900360200190f35b6101376004803603602081101561039957600080fd5b50356001600160a01b031661066c565b610371600480360360608110156103bf57600080fd5b506001600160a01b038135811691602081013590911690604001356106db565b610137600480360360608110156103f557600080fd5b506001600160a01b0381351690602081013590604001356106fe565b61041b8383610709565b604080513381526001600160a01b03851660208201528082018490526060810183905290517f052e11bddba86801ac93b994819036130c21e85546177a9680a776755056e59a9181900360800190a1505050565b61047a8484846107b4565b604080513381526001600160a01b0386166020820152808201859052606081018490526080810183905290517fd010fa6d47404f20db06641a701363de6d46094a01424d7b5e141fd9713e26189181900360a00190a150505050565b6104e184848461085d565b604080513381526001600160a01b0386166020820152808201859052606081018490526080810183905290517f85dfc7f782dd018ba4975f6192a5f5736b3354afaa047d020cc346b8a98c5c719181900360a00190a150505050565b6105478383610890565b60408051338082526020820152808201859052606081018490526080810183905290517f85dfc7f782dd018ba4975f6192a5f5736b3354afaa047d020cc346b8a98c5c719181900360a00190a1505050565b6000546001600160a01b031681565b6105b28282610890565b5050565b6105c183838361085d565b505050565b600081565b6105c18383836108b4565b6105e18484846108b4565b604080516001600160a01b038087168252851660208201528082018490526060810183905290517fe006002e6b4c9aa51995e2cde30299753361f8ee5f0c208e5f110f9c7c01bf169181900360800190a150505050565b6000610644838361093c565b90505b92915050565b6105b28282610709565b60006106648484846109eb565b949350505050565b610682336000356001600160e01b031916610638565b6106cf576040805162461bcd60e51b8152602060048201526019602482015278185d5d1a0b58da1958dad95c8b5d5b985d5d1a1bdc9a5e9959603a1b604482015290519081900360640190fd5b6106d881610a1d565b50565b600160209081526000938452604080852082529284528284209052825290205481565b6105c18383836107b4565b61071f336000356001600160e01b031916610638565b61076c576040805162461bcd60e51b8152602060048201526019602482015278185d5d1a0b58da1958dad95c8b5d5b985d5d1a1bdc9a5e9959603a1b604482015290519081900360640190fd5b6001600160a01b039190911660009081527fa6eef7e35abe7026729641147f7915573c7e97b47efa546f5f6e3230263bcb496020908152604080832093835292905290812055565b6107ca336000356001600160e01b031916610638565b610817576040805162461bcd60e51b8152602060048201526019602482015278185d5d1a0b58da1958dad95c8b5d5b985d5d1a1bdc9a5e9959603a1b604482015290519081900360640190fd5b6001600160a01b039290921660009081527fa6eef7e35abe7026729641147f7915573c7e97b47efa546f5f6e3230263bcb49602090815260408083209383529290522055565b3360009081526001602090815260408083206001600160a01b039690961683529481528482209382529290925291902055565b33600090815260016020908152604080832082528083209483529390529190912055565b82336001600160a01b03821614610908576040805162461bcd60e51b81526020600482015260136024820152723932b3b4b9ba393c96b737ba16b4b9b9bab2b960691b604482015290519081900360640190fd5b506001600160a01b039283166000908152600160209081526040808320949095168252928352838120918152915290812055565b600080546001600160a01b031661095557506000610647565b6000546040805163b700961360e01b81526001600160a01b0386811660048301523060248301526001600160e01b0319861660448301529151919092169163b7009613916064808301926020929190829003018186803b1580156109b857600080fd5b505afa1580156109cc573d6000803e3d6000fd5b505050506040513d60208110156109e257600080fd5b50519392505050565b6001600160a01b0392831660009081526001602090815260408083209490951682529283528381209181529152205490565b600080546001600160a01b0319166001600160a01b0383169081178255604051909133917fa1a6a6164848fdba82d01d50ad73927295d9d4ccfba42020625dd3d7320673909190a35056fea265627a7a723058203d0dcf8de97391c024b20a813fcf8000a72a0b4de5de5b982086a09aeb6e557d64736f6c634300050a0032",
  "source": "pragma solidity ^0.5.10;\n\nimport \"./Registry.sol\";\n\n/**\n * @title ReasonLoggingRegistry\n * @author Disberse LTD\n * @notice ReasonLoggingRegistry logs all changes to the registry with a hash of a reason of change.\n */\ncontract ReasonLoggingRegistry is Registry {\n\n    /////\n    // Events:\n    /////\n\n    /**\n     * @dev Emit this event when a claim is set on the registry.\n     * - issuer The address that issued this claim\n     * - subject Address of the claim recipient (who the claim is about)\n     * - key Claim key (what the claim is about)\n     * - value Claim value (what is being claimed)\n     * - reason Hash of the off chain stored reason information\n     */\n    event ClaimSetReason(\n        address issuer,\n        address subject,\n        bytes32 key,\n        bytes32 value,\n        bytes32 reason\n    );\n\n    /**\n     * @dev Emit this event when a claim is removed from the registry.\n     * - issuer The address that has issued this claim\n     * - subject Address of the claim recipient (who the claim is about)\n     * - key Claim key (what the claim is about)\n     * - value Claim value (what is being claimed)\n     * - reason Hash of the off chain stored reason information\n     */\n    event ClaimRemovedReason(\n        address issuer,\n        address subject,\n        bytes32 key,\n        bytes32 reason\n    );\n\n    /**\n     * @dev Emit this event when an authorized claim is set on the registry.\n     * - issuer The address of the administratior making the claim\n     * - subject Address of the claim recipient (who the claim is about)\n     * - key Claim key (what the claim is about)\n     * - value Claim value (what is being claimed)\n     * - reason Hash of the off chain stored reason information\n     */\n    event AuthClaimSetReason(\n        address issuer,\n        address subject,\n        bytes32 key,\n        bytes32 value,\n        bytes32 reason\n    );\n\n    /**\n     * @dev Emit this event when an authorized claim is removed from the registry.\n     * - issuer The address of the administrator removing the claim\n     * - subject Address of the claim recipient (who the claim is about)\n     * - key Claim key (what the claim is about)\n     * - value Claim value (what is being claimed)\n     * - reason Hash of the off chain stored reason information\n     */\n    event AuthClaimRemovedReason(\n        address issuer,\n        address subject,\n        bytes32 key,\n        bytes32 reason\n    );\n\n    /////\n    // Constructor:\n    /////\n\n    /**\n     * @dev Constructor takes the Guard implementation address and passes it to the base constuctor.\n     * @param _guard The address of the guard implementation.\n     */\n    // solhint-disable-next-line no-empty-blocks\n    constructor(address _guard) public Registry(_guard) {}\n\n    /////\n    // External functions:\n    /////\n\n    /**\n     * @notice Set a new claim in the registry.\n     * @param _subject Address of the claim recipient (who the claim is about)\n     * @param _key Claim key (what the claim is about)\n     * @param _value Claim value (what is being claimed)\n     * @param _reason Hash of the reason the claim was set\n    */\n    function setClaim(\n        address _subject,\n        bytes32 _key,\n        bytes32 _value,\n        bytes32 _reason\n    )\n        external\n    {\n        super._setClaim(_subject, _key, _value);\n        emit ClaimSetReason(msg.sender, _subject, _key, _value, _reason);\n    }\n\n    /**\n     * @notice Set a claim with the caller as the `subject` of the claim.\n     * @param _key Claim key (what the claim is about)\n     * @param _value Claim value (what is being claimed)\n     * @param _reason Hash of the reason the claim was set\n    */\n    function setSelfClaim(\n        bytes32 _key,\n        bytes32 _value,\n        bytes32 _reason\n    )\n        external\n    {\n        super._setSelfClaim(_key, _value);\n        emit ClaimSetReason(msg.sender, msg.sender, _key, _value, _reason);\n    }\n\n    /**\n     * @notice Remove an existing claim from the registry. Claims can only be removed by the \n     * `issuer` that has previously set them.\n     * @param _issuer Address that issued the claim\n     * @param _subject Address of the claim recipient (who the claim is about)\n     * @param _key Claim key (what the claim is about)\n     * @param _reason Hash of the reason the claim was removed\n    */\n    function removeClaim(\n        address _issuer,\n        address _subject,\n        bytes32 _key,\n        bytes32 _reason\n    )\n        external\n    {\n        super._removeClaim(_issuer, _subject, _key);\n        emit ClaimRemovedReason(_issuer, _subject, _key, _reason);\n    }\n\n    /**\n     * @notice Sets a claim from the special AUTH_CLAIM_ADDR. This action requires authorization.\n     * @param _subject Address of the claim recipient (who the claim is about)\n     * @param _key Claim key (what the claim is about)\n     * @param _value Claim value (What is being claimed)\n     * @param _reason Hash of the reason the claim was set\n    */\n    function setAuthClaim(\n        address _subject,\n        bytes32 _key,\n        bytes32 _value,\n        bytes32 _reason\n    )\n        external\n    {\n        super._setAuthClaim(_subject, _key, _value);\n        emit AuthClaimSetReason(msg.sender, _subject, _key, _value, _reason);\n    }\n\n    /**\n     * @notice Removes a claim from the special AUTH_CLAIM_ADDR. This action requires authorization.\n     * @param _subject Address of the claim recipient (who the claim is about)\n     * @param _key Claim key (what the claim is about)\n     * @param _reason Hash of the reason the claim was removed\n    */\n    function removeAuthClaim(\n        address _subject,\n        bytes32 _key,\n        bytes32 _reason\n    )\n        external\n    {\n        super._removeAuthClaim(_subject, _key);\n        emit AuthClaimRemovedReason(msg.sender, _subject, _key, _reason);\n    }\n\n}\n",
  "sourcePath": "/home/ohm/dev/dsb/smart-contracts/contracts/registry/ReasonLoggingRegistry.sol",
  "compiler": {
    "name": "solc",
    "version": "0.5.10+commit.5a6ea5b1.Emscripten.clang"
  },
  "schemaVersion": "3.0.11",
  "updatedAt": "2019-08-17T01:13:52.721Z",
  "devdoc": {
    "author": "Disberse LTD",
    "methods": {
      "constructor": {
        "details": "Constructor takes the Guard implementation address and passes it to the base constuctor.",
        "params": {
          "_guard": "The address of the guard implementation."
        }
      },
      "getClaim(address,address,bytes32)": {
        "params": {
          "_issuer": "Address that issued the claim",
          "_key": "Claim key (what the claim is about)",
          "_subject": "Address of the claim recipient (who the claim is about)"
        },
        "return": "The value of the claim found, or null"
      },
      "isAuthorized(address,bytes4)": {
        "details": "The check performed by calling `canCall` on the Guard instance. If no Guard instance is configured, function returns false (as a failsafe).",
        "params": {
          "_sig": "The function selector of the function being called.",
          "_src": "The address of the caller."
        },
        "return": "True, if the caller is authorized to make the call."
      },
      "removeAuthClaim(address,bytes32)": {
        "params": {
          "_key": "Claim key (what the claim is about)",
          "_subject": "Address of the claim recipient (who the claim is about)"
        }
      },
      "removeAuthClaim(address,bytes32,bytes32)": {
        "params": {
          "_key": "Claim key (what the claim is about)",
          "_reason": "Hash of the reason the claim was removed",
          "_subject": "Address of the claim recipient (who the claim is about)"
        }
      },
      "removeClaim(address,address,bytes32)": {
        "params": {
          "_issuer": "Address that issued the claim",
          "_key": "Claim key (what the claim is about)",
          "_subject": "Address of the claim recipient (who the claim is about)"
        }
      },
      "removeClaim(address,address,bytes32,bytes32)": {
        "params": {
          "_issuer": "Address that issued the claim",
          "_key": "Claim key (what the claim is about)",
          "_reason": "Hash of the reason the claim was removed",
          "_subject": "Address of the claim recipient (who the claim is about)"
        }
      },
      "setAuthClaim(address,bytes32,bytes32)": {
        "params": {
          "_key": "Claim key (what the claim is about)",
          "_subject": "Address of the claim recipient (who the claim is about)",
          "_value": "Claim value (What is being claimed)"
        }
      },
      "setAuthClaim(address,bytes32,bytes32,bytes32)": {
        "params": {
          "_key": "Claim key (what the claim is about)",
          "_reason": "Hash of the reason the claim was set",
          "_subject": "Address of the claim recipient (who the claim is about)",
          "_value": "Claim value (What is being claimed)"
        }
      },
      "setClaim(address,bytes32,bytes32)": {
        "params": {
          "_key": "Claim key (what the claim is about)",
          "_subject": "Address of the claim recipient (who the claim is about)",
          "_value": "Claim value (What is being claimed)"
        }
      },
      "setClaim(address,bytes32,bytes32,bytes32)": {
        "params": {
          "_key": "Claim key (what the claim is about)",
          "_reason": "Hash of the reason the claim was set",
          "_subject": "Address of the claim recipient (who the claim is about)",
          "_value": "Claim value (what is being claimed)"
        }
      },
      "setGuard(address)": {
        "params": {
          "_guard": "The address of the new Guard instance."
        }
      },
      "setSelfClaim(bytes32,bytes32)": {
        "params": {
          "_key": "Claim key (what the claim is about)",
          "_value": "Claim value (What is being claimed)"
        }
      },
      "setSelfClaim(bytes32,bytes32,bytes32)": {
        "params": {
          "_key": "Claim key (what the claim is about)",
          "_reason": "Hash of the reason the claim was set",
          "_value": "Claim value (what is being claimed)"
        }
      }
    },
    "title": "ReasonLoggingRegistry"
  },
  "userdoc": {
    "methods": {
      "getClaim(address,address,bytes32)": {
        "notice": "Get an exisiting claim from the registry."
      },
      "isAuthorized(address,bytes4)": {
        "notice": "isAuthorized will return `true` if `_src` address can call the function with the `_sig` function selector in the current context (in this contract)."
      },
      "removeAuthClaim(address,bytes32)": {
        "notice": "Removes a claim from the special AUTH_CLAIM_ADDR. This action requires authorization."
      },
      "removeAuthClaim(address,bytes32,bytes32)": {
        "notice": "Removes a claim from the special AUTH_CLAIM_ADDR. This action requires authorization."
      },
      "removeClaim(address,address,bytes32)": {
        "notice": "Remove an existing claim from the registry. Claims can only be removed by the `issuer` that has set them."
      },
      "removeClaim(address,address,bytes32,bytes32)": {
        "notice": "Remove an existing claim from the registry. Claims can only be removed by the  `issuer` that has previously set them."
      },
      "setAuthClaim(address,bytes32,bytes32)": {
        "notice": "Sets a claim from the special AUTH_CLAIM_ADDR. This action requires authorization."
      },
      "setAuthClaim(address,bytes32,bytes32,bytes32)": {
        "notice": "Sets a claim from the special AUTH_CLAIM_ADDR. This action requires authorization."
      },
      "setClaim(address,bytes32,bytes32)": {
        "notice": "Set a new claim in the registry."
      },
      "setClaim(address,bytes32,bytes32,bytes32)": {
        "notice": "Set a new claim in the registry."
      },
      "setGuard(address)": {
        "notice": "setGuard will set the new Guard instance. The caller must have permissions to call this function in the current Guard instance."
      },
      "setSelfClaim(bytes32,bytes32)": {
        "notice": "Set a claim with the caller as the `subject` of the claim."
      },
      "setSelfClaim(bytes32,bytes32,bytes32)": {
        "notice": "Set a claim with the caller as the `subject` of the claim."
      }
    },
    "notice": "ReasonLoggingRegistry logs all changes to the registry with a hash of a reason of change."
  }
}