{
  "contractName": "Registry",
  "abi": [
    {
      "constant": true,
      "inputs": [],
      "name": "guard",
      "outputs": [
        {
          "name": "",
          "type": "address"
        }
      ],
      "payable": false,
      "stateMutability": "view",
      "type": "function"
    },
    {
      "constant": false,
      "inputs": [
        {
          "name": "_key",
          "type": "bytes32"
        },
        {
          "name": "_value",
          "type": "bytes32"
        }
      ],
      "name": "setSelfClaim",
      "outputs": [],
      "payable": false,
      "stateMutability": "nonpayable",
      "type": "function"
    },
    {
      "constant": false,
      "inputs": [
        {
          "name": "_subject",
          "type": "address"
        },
        {
          "name": "_key",
          "type": "bytes32"
        },
        {
          "name": "_value",
          "type": "bytes32"
        }
      ],
      "name": "setClaim",
      "outputs": [],
      "payable": false,
      "stateMutability": "nonpayable",
      "type": "function"
    },
    {
      "constant": true,
      "inputs": [],
      "name": "AUTH_CLAIM_ADDR",
      "outputs": [
        {
          "name": "",
          "type": "address"
        }
      ],
      "payable": false,
      "stateMutability": "view",
      "type": "function"
    },
    {
      "constant": false,
      "inputs": [
        {
          "name": "_issuer",
          "type": "address"
        },
        {
          "name": "_subject",
          "type": "address"
        },
        {
          "name": "_key",
          "type": "bytes32"
        }
      ],
      "name": "removeClaim",
      "outputs": [],
      "payable": false,
      "stateMutability": "nonpayable",
      "type": "function"
    },
    {
      "constant": true,
      "inputs": [
        {
          "name": "_src",
          "type": "address"
        },
        {
          "name": "_sig",
          "type": "bytes4"
        }
      ],
      "name": "isAuthorized",
      "outputs": [
        {
          "name": "",
          "type": "bool"
        }
      ],
      "payable": false,
      "stateMutability": "view",
      "type": "function"
    },
    {
      "constant": false,
      "inputs": [
        {
          "name": "_subject",
          "type": "address"
        },
        {
          "name": "_key",
          "type": "bytes32"
        }
      ],
      "name": "removeAuthClaim",
      "outputs": [],
      "payable": false,
      "stateMutability": "nonpayable",
      "type": "function"
    },
    {
      "constant": true,
      "inputs": [
        {
          "name": "_issuer",
          "type": "address"
        },
        {
          "name": "_subject",
          "type": "address"
        },
        {
          "name": "_key",
          "type": "bytes32"
        }
      ],
      "name": "getClaim",
      "outputs": [
        {
          "name": "",
          "type": "bytes32"
        }
      ],
      "payable": false,
      "stateMutability": "view",
      "type": "function"
    },
    {
      "constant": false,
      "inputs": [
        {
          "name": "_guard",
          "type": "address"
        }
      ],
      "name": "setGuard",
      "outputs": [],
      "payable": false,
      "stateMutability": "nonpayable",
      "type": "function"
    },
    {
      "constant": true,
      "inputs": [
        {
          "name": "",
          "type": "address"
        },
        {
          "name": "",
          "type": "address"
        },
        {
          "name": "",
          "type": "bytes32"
        }
      ],
      "name": "registry",
      "outputs": [
        {
          "name": "",
          "type": "bytes32"
        }
      ],
      "payable": false,
      "stateMutability": "view",
      "type": "function"
    },
    {
      "constant": false,
      "inputs": [
        {
          "name": "_subject",
          "type": "address"
        },
        {
          "name": "_key",
          "type": "bytes32"
        },
        {
          "name": "_value",
          "type": "bytes32"
        }
      ],
      "name": "setAuthClaim",
      "outputs": [],
      "payable": false,
      "stateMutability": "nonpayable",
      "type": "function"
    },
    {
      "inputs": [
        {
          "name": "_guard",
          "type": "address"
        }
      ],
      "payable": false,
      "stateMutability": "nonpayable",
      "type": "constructor"
    },
    {
      "anonymous": false,
      "inputs": [
        {
          "indexed": true,
          "name": "setBy",
          "type": "address"
        },
        {
          "indexed": true,
          "name": "guard",
          "type": "address"
        }
      ],
      "name": "SetGuard",
      "type": "event"
    }
  ],
  "bytecode": "0x608060405234801561001057600080fd5b506040516108003803806108008339818101604052602081101561003357600080fd5b50518080610049816001600160e01b0361005116565b50505061009c565b600080546001600160a01b0319166001600160a01b0383169081178255604051909133917fa1a6a6164848fdba82d01d50ad73927295d9d4ccfba42020625dd3d7320673909190a350565b610755806100ab6000396000f3fe608060405234801561001057600080fd5b50600436106100a95760003560e01c8063d9972b9611610071578063d9972b9614610167578063e13d4955146101b1578063e1661eff146101dd578063e19a9dd914610225578063e6d970aa1461024b578063fc682cd914610281576100a9565b80637ceab3b1146100ae5780639155b01a146100d25780639918925d146100f7578063af15048014610129578063c7508ec714610131575b600080fd5b6100b66102b3565b604080516001600160a01b039092168252519081900360200190f35b6100f5600480360360408110156100e857600080fd5b50803590602001356102c2565b005b6100f56004803603606081101561010d57600080fd5b506001600160a01b0381351690602081013590604001356102d0565b6100b66102e0565b6100f56004803603606081101561014757600080fd5b506001600160a01b038135811691602081013590911690604001356102e5565b61019d6004803603604081101561017d57600080fd5b5080356001600160a01b031690602001356001600160e01b0319166102f0565b604080519115158252519081900360200190f35b6100f5600480360360408110156101c757600080fd5b506001600160a01b038135169060200135610305565b610213600480360360608110156101f357600080fd5b506001600160a01b0381358116916020810135909116906040013561030f565b60408051918252519081900360200190f35b6100f56004803603602081101561023b57600080fd5b50356001600160a01b0316610324565b6102136004803603606081101561026157600080fd5b506001600160a01b03813581169160208101359091169060400135610393565b6100f56004803603606081101561029757600080fd5b506001600160a01b0381351690602081013590604001356103b6565b6000546001600160a01b031681565b6102cc82826103c1565b5050565b6102db8383836103e5565b505050565b600081565b6102db838383610418565b60006102fc83836104a0565b90505b92915050565b6102cc828261054f565b600061031c8484846105fa565b949350505050565b61033a336000356001600160e01b0319166102f0565b610387576040805162461bcd60e51b8152602060048201526019602482015278185d5d1a0b58da1958dad95c8b5d5b985d5d1a1bdc9a5e9959603a1b604482015290519081900360640190fd5b6103908161062c565b50565b600160209081526000938452604080852082529284528284209052825290205481565b6102db838383610677565b33600090815260016020908152604080832082528083209483529390529190912055565b3360009081526001602090815260408083206001600160a01b039690961683529481528482209382529290925291902055565b82336001600160a01b0382161461046c576040805162461bcd60e51b81526020600482015260136024820152723932b3b4b9ba393c96b737ba16b4b9b9bab2b960691b604482015290519081900360640190fd5b506001600160a01b039283166000908152600160209081526040808320949095168252928352838120918152915290812055565b600080546001600160a01b03166104b9575060006102ff565b6000546040805163b700961360e01b81526001600160a01b0386811660048301523060248301526001600160e01b0319861660448301529151919092169163b7009613916064808301926020929190829003018186803b15801561051c57600080fd5b505afa158015610530573d6000803e3d6000fd5b505050506040513d602081101561054657600080fd5b50519392505050565b610565336000356001600160e01b0319166102f0565b6105b2576040805162461bcd60e51b8152602060048201526019602482015278185d5d1a0b58da1958dad95c8b5d5b985d5d1a1bdc9a5e9959603a1b604482015290519081900360640190fd5b6001600160a01b039190911660009081527fa6eef7e35abe7026729641147f7915573c7e97b47efa546f5f6e3230263bcb496020908152604080832093835292905290812055565b6001600160a01b0392831660009081526001602090815260408083209490951682529283528381209181529152205490565b600080546001600160a01b0319166001600160a01b0383169081178255604051909133917fa1a6a6164848fdba82d01d50ad73927295d9d4ccfba42020625dd3d7320673909190a350565b61068d336000356001600160e01b0319166102f0565b6106da576040805162461bcd60e51b8152602060048201526019602482015278185d5d1a0b58da1958dad95c8b5d5b985d5d1a1bdc9a5e9959603a1b604482015290519081900360640190fd5b6001600160a01b039290921660009081527fa6eef7e35abe7026729641147f7915573c7e97b47efa546f5f6e3230263bcb4960209081526040808320938352929052205556fea265627a7a72305820a7a5164d57c375adc6d507b359e8c3c9f41485df0f4e8be5111867f52047f65464736f6c634300050a0032",
  "source": "pragma solidity ^0.5.10;\n\nimport \"./BaseRegistry.sol\";\n\n/**\n* @title Registry\n* @author Disberse LTD\n* @notice Provide an extended ERC-780 claims registry.\n* A special authorized addresses is able to set claims from the zero address.\n*/\ncontract Registry is BaseRegistry {\n\n    /////\n    // Constants:\n    /////\n\n    /**\n     * @dev The address from which the authority can make claims.\n     */\n    address public constant AUTH_CLAIM_ADDR = address(0);\n\n    /////\n    // Modifiers:\n    /////\n\n    /**\n     * @dev Modify the function to revert if not called by the given `issuer`.\n     */\n    modifier onlyIssuer(address _issuer) {\n        require(msg.sender == _issuer, \"registry-not-issuer\");\n        _;\n    }\n\n    /////\n    // Constructor:\n    /////\n\n    /**\n     * @dev Constructor takes the Guard implementation address and passes it to the BaseRegistry constuctor.\n     * @param _guard The address of the guard implementation.\n     */\n    // solhint-disable-next-line no-empty-blocks\n    constructor(address _guard) public BaseRegistry(_guard) {}\n\n    /////\n    // Internal functions:\n    /////\n\n    /**\n    * @notice Set a new claim in the registry.\n    * @param _subject Address of the claim recipient (who the claim is about)\n    * @param _key Claim key (what the claim is about)\n    * @param _value Claim value (What is being claimed)\n    */\n    function _setClaim(\n        address _subject,\n        bytes32 _key,\n        bytes32 _value\n    )\n        internal\n    {\n        registry[msg.sender][_subject][_key] = _value;\n    }\n\n    /**\n    * @notice Set a claim with the caller as the `subject` of the claim.\n    * @param _key Claim key (what the claim is about)\n    * @param _value Claim value (What is being claimed)\n    */\n    function _setSelfClaim(\n        bytes32 _key,\n        bytes32 _value\n    )\n        internal\n    {\n        registry[msg.sender][msg.sender][_key] = _value;\n    }\n\n    /**\n    * @notice Remove an existing claim from the registry. Claims can only be removed by the `issuer` that has set them.\n    * @param _issuer Address that issued the claim\n    * @param _subject Address of the claim recipient (who the claim is about)\n    * @param _key Claim key (what the claim is about)\n    */\n    function _removeClaim(\n        address _issuer,\n        address _subject,\n        bytes32 _key\n    )\n        internal\n        onlyIssuer(_issuer)\n    {\n        delete registry[_issuer][_subject][_key];\n    }\n\n    /**\n    * @notice Sets a claim from the special AUTH_CLAIM_ADDR. This action requires authorization.\n    * @param _subject Address of the claim recipient (who the claim is about)\n    * @param _key Claim key (what the claim is about)\n    * @param _value Claim value (What is being claimed)\n    */\n    function _setAuthClaim(\n        address _subject,\n        bytes32 _key,\n        bytes32 _value\n    )\n        internal\n        onlyAuthorized\n    {\n        registry[AUTH_CLAIM_ADDR][_subject][_key] = _value;\n    }\n\n    /**\n    * @notice Removes a claim from the special AUTH_CLAIM_ADDR. This action requires authorization.\n    * @param _subject Address of the claim recipient (who the claim is about)\n    * @param _key Claim key (what the claim is about)\n    */\n    function _removeAuthClaim(\n        address _subject,\n        bytes32 _key\n    )\n        internal\n        onlyAuthorized\n    {\n        delete registry[AUTH_CLAIM_ADDR][_subject][_key];\n    }\n\n}\n",
  "sourcePath": "/home/ohm/dev/dsb/smart-contracts/contracts/registry/Registry.sol",
  "compiler": {
    "name": "solc",
    "version": "0.5.10+commit.5a6ea5b1.Emscripten.clang"
  },
  "schemaVersion": "3.0.11",
  "updatedAt": "2019-08-17T01:13:52.724Z",
  "devdoc": {
    "author": "Disberse LTD",
    "methods": {
      "constructor": {
        "details": "Constructor takes the Guard implementation address and passes it to the BaseRegistry constuctor.",
        "params": {
          "_guard": "The address of the guard implementation."
        }
      },
      "getClaim(address,address,bytes32)": {
        "params": {
          "_issuer": "Address that issued the claim",
          "_key": "Claim key (what the claim is about)",
          "_subject": "Address of the claim recipient (who the claim is about)"
        },
        "return": "The value of the claim found, or null"
      },
      "isAuthorized(address,bytes4)": {
        "details": "The check performed by calling `canCall` on the Guard instance. If no Guard instance is configured, function returns false (as a failsafe).",
        "params": {
          "_sig": "The function selector of the function being called.",
          "_src": "The address of the caller."
        },
        "return": "True, if the caller is authorized to make the call."
      },
      "removeAuthClaim(address,bytes32)": {
        "params": {
          "_key": "Claim key (what the claim is about)",
          "_subject": "Address of the claim recipient (who the claim is about)"
        }
      },
      "removeClaim(address,address,bytes32)": {
        "params": {
          "_issuer": "Address that issued the claim",
          "_key": "Claim key (what the claim is about)",
          "_subject": "Address of the claim recipient (who the claim is about)"
        }
      },
      "setAuthClaim(address,bytes32,bytes32)": {
        "params": {
          "_key": "Claim key (what the claim is about)",
          "_subject": "Address of the claim recipient (who the claim is about)",
          "_value": "Claim value (What is being claimed)"
        }
      },
      "setClaim(address,bytes32,bytes32)": {
        "params": {
          "_key": "Claim key (what the claim is about)",
          "_subject": "Address of the claim recipient (who the claim is about)",
          "_value": "Claim value (What is being claimed)"
        }
      },
      "setGuard(address)": {
        "params": {
          "_guard": "The address of the new Guard instance."
        }
      },
      "setSelfClaim(bytes32,bytes32)": {
        "params": {
          "_key": "Claim key (what the claim is about)",
          "_value": "Claim value (What is being claimed)"
        }
      }
    },
    "title": "Registry"
  },
  "userdoc": {
    "methods": {
      "getClaim(address,address,bytes32)": {
        "notice": "Get an exisiting claim from the registry."
      },
      "isAuthorized(address,bytes4)": {
        "notice": "isAuthorized will return `true` if `_src` address can call the function with the `_sig` function selector in the current context (in this contract)."
      },
      "removeAuthClaim(address,bytes32)": {
        "notice": "Removes a claim from the special AUTH_CLAIM_ADDR. This action requires authorization."
      },
      "removeClaim(address,address,bytes32)": {
        "notice": "Remove an existing claim from the registry. Claims can only be removed by the `issuer` that has set them."
      },
      "setAuthClaim(address,bytes32,bytes32)": {
        "notice": "Sets a claim from the special AUTH_CLAIM_ADDR. This action requires authorization."
      },
      "setClaim(address,bytes32,bytes32)": {
        "notice": "Set a new claim in the registry."
      },
      "setGuard(address)": {
        "notice": "setGuard will set the new Guard instance. The caller must have permissions to call this function in the current Guard instance."
      },
      "setSelfClaim(bytes32,bytes32)": {
        "notice": "Set a claim with the caller as the `subject` of the claim."
      }
    },
    "notice": "Provide an extended ERC-780 claims registry. A special authorized addresses is able to set claims from the zero address."
  }
}