{
  "contractName": "RuntimeMock",
  "abi": [
    {
      "constant": true,
      "inputs": [],
      "name": "luckyNum",
      "outputs": [
        {
          "name": "",
          "type": "uint256"
        }
      ],
      "payable": false,
      "stateMutability": "view",
      "type": "function"
    }
  ],
  "bytecode": "0x6080604052348015600f57600080fd5b50607f8061001e6000396000f3fe6080604052348015600f57600080fd5b506004361060285760003560e01c8063c6af390914602d575b600080fd5b60336045565b60408051918252519081900360200190f35b600d8156fea265627a7a72305820ec666904a3758f1c56580a0650ec0878f6c2c7ad9ea276a12bd317f9c990571164736f6c634300050a0032",
  "source": "pragma solidity ^0.5.10;\n\n/**\n * @dev Compile this contract to test that runtime code is deployed correctly.\n */\ncontract RuntimeMock {\n    uint public constant luckyNum = 13;\n}\n",
  "sourcePath": "/home/ohm/dev/dsb/smart-contracts/contracts/mocks/RuntimeMock.sol",
  "compiler": {
    "name": "solc",
    "version": "0.5.10+commit.5a6ea5b1.Emscripten.clang"
  },
  "schemaVersion": "3.0.11",
  "updatedAt": "2019-08-17T01:13:52.688Z",
  "devdoc": {
    "details": "Compile this contract to test that runtime code is deployed correctly.",
    "methods": {}
  },
  "userdoc": {
    "methods": {}
  }
}