{
  "contractName": "SignerManager",
  "abi": [
    {
      "constant": true,
      "inputs": [],
      "name": "LL_HEAD",
      "outputs": [
        {
          "name": "",
          "type": "address"
        }
      ],
      "payable": false,
      "stateMutability": "view",
      "type": "function"
    },
    {
      "constant": true,
      "inputs": [],
      "name": "threshold",
      "outputs": [
        {
          "name": "",
          "type": "uint256"
        }
      ],
      "payable": false,
      "stateMutability": "view",
      "type": "function"
    },
    {
      "constant": true,
      "inputs": [
        {
          "name": "",
          "type": "address"
        }
      ],
      "name": "signers",
      "outputs": [
        {
          "name": "",
          "type": "address"
        }
      ],
      "payable": false,
      "stateMutability": "view",
      "type": "function"
    },
    {
      "constant": true,
      "inputs": [],
      "name": "signerCount",
      "outputs": [
        {
          "name": "",
          "type": "uint256"
        }
      ],
      "payable": false,
      "stateMutability": "view",
      "type": "function"
    },
    {
      "anonymous": false,
      "inputs": [
        {
          "indexed": true,
          "name": "signer",
          "type": "address"
        }
      ],
      "name": "AddSigner",
      "type": "event"
    },
    {
      "anonymous": false,
      "inputs": [
        {
          "indexed": true,
          "name": "signer",
          "type": "address"
        }
      ],
      "name": "RemoveSigner",
      "type": "event"
    },
    {
      "anonymous": false,
      "inputs": [
        {
          "indexed": true,
          "name": "threshold",
          "type": "uint256"
        }
      ],
      "name": "SetThreshold",
      "type": "event"
    },
    {
      "anonymous": false,
      "inputs": [],
      "name": "BurnAccess",
      "type": "event"
    },
    {
      "constant": false,
      "inputs": [
        {
          "name": "_threshold",
          "type": "uint256"
        }
      ],
      "name": "setThreshold",
      "outputs": [],
      "payable": false,
      "stateMutability": "nonpayable",
      "type": "function"
    },
    {
      "constant": false,
      "inputs": [
        {
          "name": "_signer",
          "type": "address"
        }
      ],
      "name": "addSigner",
      "outputs": [],
      "payable": false,
      "stateMutability": "nonpayable",
      "type": "function"
    },
    {
      "constant": false,
      "inputs": [
        {
          "name": "_prevSigner",
          "type": "address"
        },
        {
          "name": "_signer",
          "type": "address"
        }
      ],
      "name": "removeSigner",
      "outputs": [],
      "payable": false,
      "stateMutability": "nonpayable",
      "type": "function"
    },
    {
      "constant": false,
      "inputs": [
        {
          "name": "_signer",
          "type": "address"
        },
        {
          "name": "_threshold",
          "type": "uint256"
        }
      ],
      "name": "addSignerSetThreshold",
      "outputs": [],
      "payable": false,
      "stateMutability": "nonpayable",
      "type": "function"
    },
    {
      "constant": false,
      "inputs": [
        {
          "name": "_prevSigner",
          "type": "address"
        },
        {
          "name": "_signer",
          "type": "address"
        },
        {
          "name": "_threshold",
          "type": "uint256"
        }
      ],
      "name": "removeSignerSetThreshold",
      "outputs": [],
      "payable": false,
      "stateMutability": "nonpayable",
      "type": "function"
    },
    {
      "constant": false,
      "inputs": [],
      "name": "burnAccess",
      "outputs": [],
      "payable": false,
      "stateMutability": "nonpayable",
      "type": "function"
    },
    {
      "constant": true,
      "inputs": [
        {
          "name": "_signer",
          "type": "address"
        }
      ],
      "name": "isValidSigner",
      "outputs": [
        {
          "name": "",
          "type": "bool"
        }
      ],
      "payable": false,
      "stateMutability": "view",
      "type": "function"
    },
    {
      "constant": true,
      "inputs": [],
      "name": "getSigners",
      "outputs": [
        {
          "name": "",
          "type": "address[]"
        }
      ],
      "payable": false,
      "stateMutability": "view",
      "type": "function"
    }
  ],
  "bytecode": "0x608060405234801561001057600080fd5b50610aab806100206000396000f3fe608060405234801561001057600080fd5b50600436106100b45760003560e01c80638d20efa7116100715780638d20efa71461016557806394cf795e14610193578063960bfe04146101eb578063a94670d314610208578063d5f5058214610234578063eb12d61e1461026e576100b4565b80631fc9a308146100b9578063361e74ef146100f157806342cde4e8146101155780635d1fc0d51461012f578063736c0d5b146101375780637ca548c61461015d575b600080fd5b6100ef600480360360608110156100cf57600080fd5b506001600160a01b03813581169160208101359091169060400135610294565b005b6100f96102ec565b604080516001600160a01b039092168252519081900360200190f35b61011d6102f1565b60408051918252519081900360200190f35b6100ef6102f7565b6100f96004803603602081101561014d57600080fd5b50356001600160a01b03166103a3565b61011d6103be565b6100ef6004803603604081101561017b57600080fd5b506001600160a01b03813581169160200135166103c4565b61019b610412565b60408051602080825283518183015283519192839290830191858101910280838360005b838110156101d75781810151838201526020016101bf565b505050509050019250505060405180910390f35b6100ef6004803603602081101561020157600080fd5b50356104de565b6100ef6004803603604081101561021e57600080fd5b506001600160a01b03813516906020013561052a565b61025a6004803603602081101561024a57600080fd5b50356001600160a01b031661057c565b604080519115158252519081900360200190f35b6100ef6004803603602081101561028457600080fd5b50356001600160a01b031661059c565b3330146102d4576040805162461bcd60e51b815260206004820152600960248201526837b7363c96b9b2b63360b91b604482015290519081900360640190fd5b6102dd816105e5565b6102e783836106a9565b505050565b600181565b60005481565b333014610337576040805162461bcd60e51b815260206004820152600960248201526837b7363c96b9b2b63360b91b604482015290519081900360640190fd5b60001960009081556001818155815260026020527fe90b7bceb6e7df5418fb78d8ee546e97c83a08bbccc01a0644d599ccd2a7c2e080546001600160a01b03191690556040517f91c87a2ef9127fdcd3960a8ccefb34f86a78dfc6842a052539dcd9398875c0649190a1565b6002602052600090815260409020546001600160a01b031681565b60015481565b333014610404576040805162461bcd60e51b815260206004820152600960248201526837b7363c96b9b2b63360b91b604482015290519081900360640190fd5b61040e82826106a9565b5050565b606080600154604051908082528060200260200182016040528015610441578160200160208202803883390190505b506001600090815260026020527fe90b7bceb6e7df5418fb78d8ee546e97c83a08bbccc01a0644d599ccd2a7c2e054919250906001600160a01b03165b6001600160a01b0381166001146104d6578083838151811061049c57fe5b6001600160a01b0392831660209182029290920181019190915291811660009081526002909252604090912054600192909201911661047e565b509091505090565b33301461051e576040805162461bcd60e51b815260206004820152600960248201526837b7363c96b9b2b63360b91b604482015290519081900360640190fd5b610527816105e5565b50565b33301461056a576040805162461bcd60e51b815260206004820152600960248201526837b7363c96b9b2b63360b91b604482015290519081900360640190fd5b6105738261084e565b61040e816105e5565b6001600160a01b0390811660009081526002602052604090205416151590565b3330146105dc576040805162461bcd60e51b815260206004820152600960248201526837b7363c96b9b2b63360b91b604482015290519081900360640190fd5b6105278161084e565b600154811115610630576040805162461bcd60e51b81526020600482015260116024820152701a5b9d985b1a590b5d1a1c995cda1bdb19607a1b604482015290519081900360640190fd5b60008111610679576040805162461bcd60e51b81526020600482015260116024820152701a5b9d985b1a590b5d1a1c995cda1bdb19607a1b604482015290519081900360640190fd5b600081815560405182917f46e8115bf463f9c29a9424fe152addef1bfaf2b43180d19bb7c2c78cc0ff1ebf91a250565b60006106c0600180546109b890919063ffffffff16565b905060005481101561070e576040805162461bcd60e51b81526020600482015260126024820152716e6f742d656e6f7567682d7369676e65727360701b604482015290519081900360640190fd5b6001600160a01b03838116600090815260026020526040902054811690831614610774576040805162461bcd60e51b815260206004820152601260248201527134b73b30b634b216b83932bb29b4b3b732b960711b604482015290519081900360640190fd5b6001600160a01b0382161580159061079657506001600160a01b038216600114155b6107d8576040805162461bcd60e51b815260206004820152600e60248201526d34b73b30b634b216b9b4b3b732b960911b604482015290519081900360640190fd5b6001600160a01b03828116600081815260026020526040808220805488861684528284208054919096166001600160a01b03199182161790955583835280549094169093556001849055915190917f1803740ef72fc16e647c10fe2d31cf61a1578081960c2e3fb7f5aa957e82f55091a2505050565b6001600160a01b0381161580159061087057506001600160a01b038116600114155b6108b2576040805162461bcd60e51b815260206004820152600e60248201526d34b73b30b634b216b9b4b3b732b960911b604482015290519081900360640190fd5b6001600160a01b038181166000908152600260205260409020541615610912576040805162461bcd60e51b815260206004820152601060248201526f323ab83634b1b0ba3296b9b4b3b732b960811b604482015290519081900360640190fd5b60026020527fe90b7bceb6e7df5418fb78d8ee546e97c83a08bbccc01a0644d599ccd2a7c2e080546001600160a01b038381166000818152604081208054939094166001600160a01b031993841617909355600192839052835490911617909155805461097e91610a15565b6001556040516001600160a01b038216907f637c77a2d598a51d085d4a2413332c45a235a25ee855bf3dfcdc2c8fcf02860f90600090a250565b600082821115610a0f576040805162461bcd60e51b815260206004820152601e60248201527f536166654d6174683a207375627472616374696f6e206f766572666c6f770000604482015290519081900360640190fd5b50900390565b600082820183811015610a6f576040805162461bcd60e51b815260206004820152601b60248201527f536166654d6174683a206164646974696f6e206f766572666c6f770000000000604482015290519081900360640190fd5b939250505056fea265627a7a72305820084f925f97c9fbdcd674feaefeef2e0ee0147903efe5b5a87a076a53491e015464736f6c634300050a0032",
  "source": "pragma solidity ^0.5.10;\n\nimport \"../libraries/SafeMath.sol\";\nimport \"../permissions/SelfAuthorized.sol\";\n\ncontract SignerManager is SelfAuthorized {\n\n    using SafeMath for uint256;\n\n    /////\n    // Constants:\n    /////\n\n    address public constant LL_HEAD = address(0x1);  // Head of the signers linked list.\n\n    /////\n    // Storage:\n    /////\n\n    uint256 public threshold;\n    uint256 public signerCount;\n    mapping (address => address) public signers;  // Circular linked list of signers.\n\n    /////\n    // Events:\n    /////\n\n    event AddSigner(address indexed signer);\n    event RemoveSigner(address indexed signer);\n    event SetThreshold(uint indexed threshold);\n    event BurnAccess();\n\n    /////\n    // Modifiers:\n    /////\n\n    modifier onlySigner() {\n        require(isValidSigner(msg.sender), \"not-a-signer\");\n        _;\n    }\n\n    /////\n    // Public functions\n    /////\n\n    function setThreshold(uint _threshold)\n        public\n        onlySelf\n    {\n        _setThreshold(_threshold);\n    }\n\n    function addSigner(address _signer)\n        public\n        onlySelf\n    {\n        _addSigner(_signer);\n    }\n\n    function removeSigner(\n        address _prevSigner,\n        address _signer\n    )\n        public\n        onlySelf\n    {\n        _removeSigner(_prevSigner, _signer);\n    }\n\n    function addSignerSetThreshold(\n        address _signer,\n        uint _threshold\n    )\n        public\n        onlySelf\n    {\n        _addSigner(_signer);\n        _setThreshold(_threshold);\n    }\n\n    function removeSignerSetThreshold(\n        address _prevSigner,\n        address _signer,\n        uint _threshold\n    )\n        public\n        onlySelf\n    {\n        _setThreshold(_threshold);\n        _removeSigner(_prevSigner, _signer);\n    }\n\n    function burnAccess()\n        public\n        onlySelf\n    {\n        threshold = uint(-1);\n        signerCount = uint(0);\n        signers[LL_HEAD] = address(0);\n        emit BurnAccess();\n    }\n\n    /////\n    // Public view functions:\n    /////\n\n    function isValidSigner(address _signer)\n        public\n        view\n        returns (bool)\n    {\n        return signers[_signer] != address(0);\n    }\n\n    function getSigners()\n        public\n        view\n        returns (address[] memory)\n    {\n        address[] memory signersArray = new address[](signerCount);\n        uint256 idx = 0;\n        address signer = signers[LL_HEAD];\n        while (signer != LL_HEAD) {\n            signersArray[idx] = signer;\n            signer = signers[signer];\n            idx++;\n        }\n        return signersArray;\n    }\n\n    /////\n    // Internal functions\n    /////\n\n    function _setupSigners(\n        address[] memory _signers,\n        uint _threshold\n    )\n        internal\n    {\n        require(threshold == 0, \"threshold-set\");\n        require(_threshold > 0, \"no-threshold\");\n        require(_threshold <= _signers.length, \"not-enough-signers\");\n        address lastSigner = LL_HEAD;\n        for (uint256 i = 0; i < _signers.length; i++) {\n            address _signer = _signers[i];\n            require(_signer != address(0) && _signer != LL_HEAD, \"invalid-signer\");\n            require(signers[_signer] == address(0), \"duplicate-signer\");\n            signers[lastSigner] = _signer;\n            lastSigner = _signer;\n        }\n        signers[lastSigner] = LL_HEAD;\n        signerCount = _signers.length;\n        threshold = _threshold;\n    }\n\n    function _addSigner(address _signer)\n        internal\n    {\n        require(_signer != address(0) && _signer != LL_HEAD, \"invalid-signer\");\n        require(signers[_signer] == address(0), \"duplicate-signer\");\n        // insert new signer at the front of the linked list\n        signers[_signer] = signers[LL_HEAD];\n        signers[LL_HEAD] = _signer;\n        signerCount = signerCount.add(1);\n        emit AddSigner(_signer);\n    }\n\n    // note that you need to provide the previous address in the linked list\n    // in order to remove a signer\n    function _removeSigner(\n        address _prevSigner,\n        address _signer\n    )\n        internal\n    {\n        uint newSignerCount = signerCount.sub(1);\n        require(newSignerCount >= threshold, \"not-enough-signers\");\n        require(signers[_prevSigner] == _signer, \"invalid-prevSigner\");\n        require(_signer != address(0) && _signer != LL_HEAD, \"invalid-signer\");\n        signers[_prevSigner] = signers[_signer];\n        signers[_signer] = address(0);\n        signerCount = newSignerCount;\n        emit RemoveSigner(_signer);\n    }\n\n    function _setThreshold(uint _threshold)\n        internal\n    {\n        require(_threshold <= signerCount, \"invalid-threshold\");\n        require(_threshold > 0, \"invalid-threshold\");\n        threshold = _threshold;\n        emit SetThreshold(_threshold);\n    }\n}\n",
  "sourcePath": "/home/ohm/dev/dsb/smart-contracts/contracts/multisig/SignerManager.sol",
  "compiler": {
    "name": "solc",
    "version": "0.5.10+commit.5a6ea5b1.Emscripten.clang"
  },
  "schemaVersion": "3.0.11",
  "updatedAt": "2019-08-17T01:13:52.708Z",
  "devdoc": {
    "methods": {}
  },
  "userdoc": {
    "methods": {
      "isValidSigner(address)": {
        "notice": "//"
      },
      "setThreshold(uint256)": {
        "notice": "//"
      }
    }
  }
}