{
  "contractName": "SignerManagerMock",
  "abi": [
    {
      "constant": false,
      "inputs": [
        {
          "name": "_prevSigner",
          "type": "address"
        },
        {
          "name": "_signer",
          "type": "address"
        },
        {
          "name": "_threshold",
          "type": "uint256"
        }
      ],
      "name": "removeSignerSetThreshold",
      "outputs": [],
      "payable": false,
      "stateMutability": "nonpayable",
      "type": "function"
    },
    {
      "constant": true,
      "inputs": [],
      "name": "LL_HEAD",
      "outputs": [
        {
          "name": "",
          "type": "address"
        }
      ],
      "payable": false,
      "stateMutability": "view",
      "type": "function"
    },
    {
      "constant": true,
      "inputs": [],
      "name": "threshold",
      "outputs": [
        {
          "name": "",
          "type": "uint256"
        }
      ],
      "payable": false,
      "stateMutability": "view",
      "type": "function"
    },
    {
      "constant": false,
      "inputs": [],
      "name": "burnAccess",
      "outputs": [],
      "payable": false,
      "stateMutability": "nonpayable",
      "type": "function"
    },
    {
      "constant": true,
      "inputs": [
        {
          "name": "",
          "type": "address"
        }
      ],
      "name": "signers",
      "outputs": [
        {
          "name": "",
          "type": "address"
        }
      ],
      "payable": false,
      "stateMutability": "view",
      "type": "function"
    },
    {
      "constant": true,
      "inputs": [],
      "name": "signerCount",
      "outputs": [
        {
          "name": "",
          "type": "uint256"
        }
      ],
      "payable": false,
      "stateMutability": "view",
      "type": "function"
    },
    {
      "constant": true,
      "inputs": [],
      "name": "getSigners",
      "outputs": [
        {
          "name": "",
          "type": "address[]"
        }
      ],
      "payable": false,
      "stateMutability": "view",
      "type": "function"
    },
    {
      "constant": false,
      "inputs": [
        {
          "name": "_signer",
          "type": "address"
        },
        {
          "name": "_threshold",
          "type": "uint256"
        }
      ],
      "name": "addSignerSetThreshold",
      "outputs": [],
      "payable": false,
      "stateMutability": "nonpayable",
      "type": "function"
    },
    {
      "constant": true,
      "inputs": [
        {
          "name": "_signer",
          "type": "address"
        }
      ],
      "name": "isValidSigner",
      "outputs": [
        {
          "name": "",
          "type": "bool"
        }
      ],
      "payable": false,
      "stateMutability": "view",
      "type": "function"
    },
    {
      "anonymous": false,
      "inputs": [
        {
          "indexed": true,
          "name": "signer",
          "type": "address"
        }
      ],
      "name": "AddSigner",
      "type": "event"
    },
    {
      "anonymous": false,
      "inputs": [
        {
          "indexed": true,
          "name": "signer",
          "type": "address"
        }
      ],
      "name": "RemoveSigner",
      "type": "event"
    },
    {
      "anonymous": false,
      "inputs": [
        {
          "indexed": true,
          "name": "threshold",
          "type": "uint256"
        }
      ],
      "name": "SetThreshold",
      "type": "event"
    },
    {
      "anonymous": false,
      "inputs": [],
      "name": "BurnAccess",
      "type": "event"
    },
    {
      "constant": false,
      "inputs": [
        {
          "name": "_data",
          "type": "bytes"
        }
      ],
      "name": "callSelf",
      "outputs": [
        {
          "name": "success",
          "type": "bool"
        }
      ],
      "payable": false,
      "stateMutability": "nonpayable",
      "type": "function"
    },
    {
      "constant": false,
      "inputs": [
        {
          "name": "_signers",
          "type": "address[]"
        },
        {
          "name": "_threshold",
          "type": "uint256"
        }
      ],
      "name": "setupSigners",
      "outputs": [],
      "payable": false,
      "stateMutability": "nonpayable",
      "type": "function"
    },
    {
      "constant": false,
      "inputs": [
        {
          "name": "_signer",
          "type": "address"
        }
      ],
      "name": "addSigner",
      "outputs": [],
      "payable": false,
      "stateMutability": "nonpayable",
      "type": "function"
    },
    {
      "constant": false,
      "inputs": [
        {
          "name": "_prevSigner",
          "type": "address"
        },
        {
          "name": "_signer",
          "type": "address"
        }
      ],
      "name": "removeSigner",
      "outputs": [],
      "payable": false,
      "stateMutability": "nonpayable",
      "type": "function"
    },
    {
      "constant": false,
      "inputs": [
        {
          "name": "_threshold",
          "type": "uint256"
        }
      ],
      "name": "setThreshold",
      "outputs": [],
      "payable": false,
      "stateMutability": "nonpayable",
      "type": "function"
    }
  ],
  "bytecode": "0x608060405234801561001057600080fd5b50610e19806100206000396000f3fe608060405234801561001057600080fd5b50600436106100ea5760003560e01c806394cf795e1161008c578063c26a9e0d11610066578063c26a9e0d1461026a578063ced3ded414610324578063d5f50582146103c9578063eb12d61e146103ef576100ea565b806394cf795e146101c9578063960bfe0414610221578063a94670d31461023e576100ea565b80635d1fc0d5116100c85780635d1fc0d514610165578063736c0d5b1461016d5780637ca548c6146101935780638d20efa71461019b576100ea565b80631fc9a308146100ef578063361e74ef1461012757806342cde4e81461014b575b600080fd5b6101256004803603606081101561010557600080fd5b506001600160a01b03813581169160208101359091169060400135610415565b005b61012f61046d565b604080516001600160a01b039092168252519081900360200190f35b610153610472565b60408051918252519081900360200190f35b610125610478565b61012f6004803603602081101561018357600080fd5b50356001600160a01b0316610524565b61015361053f565b610125600480360360408110156101b157600080fd5b506001600160a01b0381358116916020013516610545565b6101d1610553565b60408051602080825283518183015283519192839290830191858101910280838360005b8381101561020d5781810151838201526020016101f5565b505050509050019250505060405180910390f35b6101256004803603602081101561023757600080fd5b503561061f565b6101256004803603604081101561025457600080fd5b506001600160a01b03813516906020013561062b565b6103106004803603602081101561028057600080fd5b81019060208101813564010000000081111561029b57600080fd5b8201836020820111156102ad57600080fd5b803590602001918460018302840111640100000000831117156102cf57600080fd5b91908080601f01602080910402602001604051908101604052809392919081815260200183838082843760009201919091525092955061067d945050505050565b604080519115158252519081900360200190f35b6101256004803603604081101561033a57600080fd5b81019060208101813564010000000081111561035557600080fd5b82018360208201111561036757600080fd5b8035906020019184602083028401116401000000008311171561038957600080fd5b91908080602002602001604051908101604052809392919081815260200183836020028082843760009201919091525092955050913592506106d3915050565b610310600480360360208110156103df57600080fd5b50356001600160a01b03166106dd565b6101256004803603602081101561040557600080fd5b50356001600160a01b03166106fd565b333014610455576040805162461bcd60e51b815260206004820152600960248201526837b7363c96b9b2b63360b91b604482015290519081900360640190fd5b61045e81610706565b61046883836107ca565b505050565b600181565b60005481565b3330146104b8576040805162461bcd60e51b815260206004820152600960248201526837b7363c96b9b2b63360b91b604482015290519081900360640190fd5b60001960009081556001818155815260026020527fe90b7bceb6e7df5418fb78d8ee546e97c83a08bbccc01a0644d599ccd2a7c2e080546001600160a01b03191690556040517f91c87a2ef9127fdcd3960a8ccefb34f86a78dfc6842a052539dcd9398875c0649190a1565b6002602052600090815260409020546001600160a01b031681565b60015481565b61054f82826107ca565b5050565b606080600154604051908082528060200260200182016040528015610582578160200160208202803883390190505b506001600090815260026020527fe90b7bceb6e7df5418fb78d8ee546e97c83a08bbccc01a0644d599ccd2a7c2e054919250906001600160a01b03165b6001600160a01b03811660011461061757808383815181106105dd57fe5b6001600160a01b039283166020918202929092018101919091529181166000908152600290925260409091205460019290920191166105bf565b509091505090565b61062881610706565b50565b33301461066b576040805162461bcd60e51b815260206004820152600960248201526837b7363c96b9b2b63360b91b604482015290519081900360640190fd5b6106748261096f565b61054f81610706565b600061068c3060005a85610ad9565b9050806106ce576040805162461bcd60e51b815260206004820152600b60248201526a18d85b1b0b59985a5b195960aa1b604482015290519081900360640190fd5b919050565b61054f8282610af1565b6001600160a01b0390811660009081526002602052604090205416151590565b6106288161096f565b600154811115610751576040805162461bcd60e51b81526020600482015260116024820152701a5b9d985b1a590b5d1a1c995cda1bdb19607a1b604482015290519081900360640190fd5b6000811161079a576040805162461bcd60e51b81526020600482015260116024820152701a5b9d985b1a590b5d1a1c995cda1bdb19607a1b604482015290519081900360640190fd5b600081815560405182917f46e8115bf463f9c29a9424fe152addef1bfaf2b43180d19bb7c2c78cc0ff1ebf91a250565b60006107e160018054610d2690919063ffffffff16565b905060005481101561082f576040805162461bcd60e51b81526020600482015260126024820152716e6f742d656e6f7567682d7369676e65727360701b604482015290519081900360640190fd5b6001600160a01b03838116600090815260026020526040902054811690831614610895576040805162461bcd60e51b815260206004820152601260248201527134b73b30b634b216b83932bb29b4b3b732b960711b604482015290519081900360640190fd5b6001600160a01b038216158015906108b757506001600160a01b038216600114155b6108f9576040805162461bcd60e51b815260206004820152600e60248201526d34b73b30b634b216b9b4b3b732b960911b604482015290519081900360640190fd5b6001600160a01b03828116600081815260026020526040808220805488861684528284208054919096166001600160a01b03199182161790955583835280549094169093556001849055915190917f1803740ef72fc16e647c10fe2d31cf61a1578081960c2e3fb7f5aa957e82f55091a2505050565b6001600160a01b0381161580159061099157506001600160a01b038116600114155b6109d3576040805162461bcd60e51b815260206004820152600e60248201526d34b73b30b634b216b9b4b3b732b960911b604482015290519081900360640190fd5b6001600160a01b038181166000908152600260205260409020541615610a33576040805162461bcd60e51b815260206004820152601060248201526f323ab83634b1b0ba3296b9b4b3b732b960811b604482015290519081900360640190fd5b60026020527fe90b7bceb6e7df5418fb78d8ee546e97c83a08bbccc01a0644d599ccd2a7c2e080546001600160a01b038381166000818152604081208054939094166001600160a01b0319938416179093556001928390528354909116179091558054610a9f91610d83565b6001556040516001600160a01b038216907f637c77a2d598a51d085d4a2413332c45a235a25ee855bf3dfcdc2c8fcf02860f90600090a250565b6000806000835160208501878988f195945050505050565b60005415610b36576040805162461bcd60e51b815260206004820152600d60248201526c1d1a1c995cda1bdb190b5cd95d609a1b604482015290519081900360640190fd5b60008111610b7a576040805162461bcd60e51b815260206004820152600c60248201526b1b9bcb5d1a1c995cda1bdb1960a21b604482015290519081900360640190fd5b8151811115610bc5576040805162461bcd60e51b81526020600482015260126024820152716e6f742d656e6f7567682d7369676e65727360701b604482015290519081900360640190fd5b600160005b8351811015610cf1576000848281518110610be157fe5b6020026020010151905060006001600160a01b0316816001600160a01b031614158015610c1857506001600160a01b038116600114155b610c5a576040805162461bcd60e51b815260206004820152600e60248201526d34b73b30b634b216b9b4b3b732b960911b604482015290519081900360640190fd5b6001600160a01b038181166000908152600260205260409020541615610cba576040805162461bcd60e51b815260206004820152601060248201526f323ab83634b1b0ba3296b9b4b3b732b960811b604482015290519081900360640190fd5b6001600160a01b03928316600090815260026020526040902080546001600160a01b03191693821693909317909255600101610bca565b506001600160a01b0316600090815260026020526040812080546001600160a01b031916600190811790915592519092559055565b600082821115610d7d576040805162461bcd60e51b815260206004820152601e60248201527f536166654d6174683a207375627472616374696f6e206f766572666c6f770000604482015290519081900360640190fd5b50900390565b600082820183811015610ddd576040805162461bcd60e51b815260206004820152601b60248201527f536166654d6174683a206164646974696f6e206f766572666c6f770000000000604482015290519081900360640190fd5b939250505056fea265627a7a72305820d791db404abb63eb86f6d15f7999a0492ee84496de51d0e56c097ea0068576d164736f6c634300050a0032",
  "source": "pragma solidity ^0.5.10;\n\nimport \"../multisig/SignerManager.sol\";\n\ncontract SignerManagerMock is SignerManager {\n\n    /////\n    // Public functions:\n    /////\n\n    /**\n     * @dev Allow tests to call `onlySelf` functions.\n     */\n    function callSelf(bytes memory _data)\n        public\n        returns (bool success)\n    {\n        success = _execute(address(this), uint(0), gasleft(), _data);\n        require(success, \"call-failed\");\n    }\n\n    /**\n     * @dev Exposes the internal `_setupSigners` function.\n     */\n    function setupSigners(\n        address[] memory _signers,\n        uint256 _threshold\n    )\n        public\n    {\n        _setupSigners(_signers, _threshold);\n    }\n\n    /**\n     * @dev Exposes the internal `_addSigner` function.\n     */\n    function addSigner(address _signer)\n        public\n    {\n        _addSigner(_signer);\n    }\n\n    /**\n     * @dev Exposes the internal _removeSigner function.\n    */\n    function removeSigner(\n        address _prevSigner,\n        address _signer\n    )\n        public\n    {\n        _removeSigner(_prevSigner, _signer);\n    }\n\n    /**\n     * @dev Exposes the internal _setThreshold function.\n     */\n    function setThreshold(uint _threshold) public {\n        _setThreshold(_threshold);\n    }\n\n    /////\n    // Internal functions:\n    /////\n\n    function _execute(\n        address _dst,\n        uint256 _val,\n        uint256 _gas,\n        bytes memory _data\n    )\n        internal\n        returns (bool success)\n    {\n        assembly {\n            // call(gas, dst, value, argsOffset, argsLen, retOffset, retLen)\n            // call to the _dst address with gas _gas, value _val (in wei),\n            // and the _data\n            success := call(_gas, _dst, _val, add(_data, 0x20), mload(_data), 0, 0)\n        }\n    }\n}\n",
  "sourcePath": "/home/ohm/dev/dsb/smart-contracts/contracts/mocks/SignerManagerMock.sol",
  "compiler": {
    "name": "solc",
    "version": "0.5.10+commit.5a6ea5b1.Emscripten.clang"
  },
  "schemaVersion": "3.0.11",
  "updatedAt": "2019-08-17T01:13:52.689Z",
  "devdoc": {
    "methods": {
      "addSigner(address)": {
        "details": "Exposes the internal `_addSigner` function."
      },
      "callSelf(bytes)": {
        "details": "Allow tests to call `onlySelf` functions."
      },
      "removeSigner(address,address)": {
        "details": "Exposes the internal _removeSigner function."
      },
      "setThreshold(uint256)": {
        "details": "Exposes the internal _setThreshold function."
      },
      "setupSigners(address[],uint256)": {
        "details": "Exposes the internal `_setupSigners` function."
      }
    }
  },
  "userdoc": {
    "methods": {
      "isValidSigner(address)": {
        "notice": "//"
      }
    }
  }
}