{
  "contractName": "TargetMock",
  "abi": [
    {
      "constant": false,
      "inputs": [
        {
          "name": "_target",
          "type": "address"
        }
      ],
      "name": "setTarget",
      "outputs": [],
      "payable": false,
      "stateMutability": "nonpayable",
      "type": "function"
    },
    {
      "constant": true,
      "inputs": [],
      "name": "target",
      "outputs": [
        {
          "name": "",
          "type": "address"
        }
      ],
      "payable": false,
      "stateMutability": "view",
      "type": "function"
    },
    {
      "payable": true,
      "stateMutability": "payable",
      "type": "fallback"
    },
    {
      "anonymous": false,
      "inputs": [
        {
          "indexed": false,
          "name": "src",
          "type": "address"
        },
        {
          "indexed": false,
          "name": "val",
          "type": "uint256"
        },
        {
          "indexed": false,
          "name": "data",
          "type": "bytes"
        }
      ],
      "name": "LogCall",
      "type": "event"
    },
    {
      "constant": true,
      "inputs": [],
      "name": "fail",
      "outputs": [],
      "payable": false,
      "stateMutability": "pure",
      "type": "function"
    },
    {
      "constant": true,
      "inputs": [],
      "name": "getValue",
      "outputs": [
        {
          "name": "",
          "type": "uint256"
        }
      ],
      "payable": false,
      "stateMutability": "pure",
      "type": "function"
    }
  ],
  "bytecode": "0x608060405234801561001057600080fd5b50610296806100206000396000f3fe60806040526004361061003f5760003560e01c806320965255146100c4578063776d1a01146100eb578063a9cc471814610120578063d4b8399214610135575b7f202ca0633e9bf52b1d9ffc5784badd7db89fdd8a05bea524c99853429017f7ae333460003660405180856001600160a01b03166001600160a01b03168152602001848152602001806020018281038252848482818152602001925080828437600083820152604051601f909101601f191690920182900397509095505050505050a1005b3480156100d057600080fd5b506100d9610166565b60408051918252519081900360200190f35b3480156100f757600080fd5b5061011e6004803603602081101561010e57600080fd5b50356001600160a01b031661016b565b005b34801561012c57600080fd5b5061011e610219565b34801561014157600080fd5b5061014a610252565b604080516001600160a01b039092168252519081900360200190f35b600d90565b3330146101ab576040805162461bcd60e51b815260206004820152600960248201526837b7363c96b9b2b63360b91b604482015290519081900360640190fd5b6001600160a01b0381166101f7576040805162461bcd60e51b815260206004820152600e60248201526d1a5b9d985b1a590b5d185c99d95d60921b604482015290519081900360640190fd5b600080546001600160a01b0319166001600160a01b0392909216919091179055565b6040805162461bcd60e51b815260206004820152600960248201526832bc31b2b83a34b7b760b91b604482015290519081900360640190fd5b6000546001600160a01b03168156fea265627a7a72305820ac8bbd39e5c9c713fbb767c19987e997183840d8933d7dafa4ae9c8dce47032964736f6c634300050a0032",
  "source": "pragma solidity ^0.5.10;\n\nimport \"../multisig/ProxyTarget.sol\";\n\ncontract TargetMock is ProxyTarget {\n\n    event LogCall(address src, uint256 val, bytes data);\n\n    /**\n     * @dev Fallback function will log the call parameters (sender, value, data).\n     */\n    function ()\n        external\n        payable\n    {\n        emit LogCall(msg.sender, msg.value, msg.data);\n    }\n\n    /**\n     * @dev Calling this function will always revert.\n     */\n    function fail()\n        external\n        pure\n    {\n        revert(\"exception\");\n    }\n\n    /**\n     * @dev Return a value.\n     */\n    function getValue()\n        external\n        pure\n        returns (uint)\n    {\n        return 13;\n    }\n\n}\n",
  "sourcePath": "/home/ohm/dev/dsb/smart-contracts/contracts/mocks/TargetMock.sol",
  "compiler": {
    "name": "solc",
    "version": "0.5.10+commit.5a6ea5b1.Emscripten.clang"
  },
  "schemaVersion": "3.0.11",
  "updatedAt": "2019-08-17T01:13:52.690Z",
  "devdoc": {
    "methods": {
      "fail()": {
        "details": "Calling this function will always revert."
      },
      "getValue()": {
        "details": "Return a value."
      },
      "setTarget(address)": {
        "details": "Changes the target address. Can only be called from the address of this contract. NOTE: we don't inherit from SelfAuthorized here to avoid conflict of storage slots should the SelfAuthorized contract implementation change in the future.",
        "params": {
          "_target": "The new target address that proxies will delegatecall to."
        }
      }
    }
  },
  "userdoc": {
    "methods": {}
  }
}